:100000000C943B000C9445000C9445000C94450066
:100010000C9445000C9445000C9445000C9445004C
:100020000C9445000C9445000C9445000C9445003C
:100030000C9445000C9445000C9445000C9445002C
:100040000C9445000C9445000C9445000C9445001C
:100050000C9445000C9445000C9445000C9445000C
:100060000C9445000C94450068656C6C6F20576FCC
:10007000726C6421210011241FBECFEFD8E0DEBFD7
:10008000CDBF0E9465000C947D000C94000088E0B8
:100090008093C10086E08093C20087E68093C4000D
:1000A00008959091C00095FFFCCF8093C6000895FD
:1000B000CF93C82F82958F70805D0E9451008C2F46
:1000C0008F70805DCF910C9451000E94470088E6AC
:1000D0000E9451008AE00E9451008DE00E94510070
:1000E000C0E0EC2FF0E0E859FF4F8491882391F3B2
:0E00F00084910E945100CF5FF4CFF894FFCFAF
:00000001FF
