:100000000C9434000C9451000C9451000C94510049
:100010000C9451000C9451000C9451000C9451001C
:100020000C9451000C9451000C9451000C9451000C
:100030000C9451000C9451000C9451000C945100FC
:100040000C9451000C9451000C94BF060C94910632
:100050000C9451000C9451000C9451000C945100DC
:100060000C9451000C94510011241FBECFEFD8E026
:10007000DEBFCDBF11E0A0E0B1E0EEE9F2E402C0E6
:1000800005900D92A43AB107D9F724E0A4EAB1E0B3
:1000900001C01D92A43DB207E1F70E943E1D0C94E1
:1000A0004D210C9400000DB407FEFDCF0895CF93B1
:1000B000CFEFCEBD0E9453002898CEBDCF910C94B7
:1000C0005300CF92DF92EF92FF92CF936A017B01B0
:1000D000C22F80648EBD0E9453008F2D9927AA27BE
:1000E000BB278EBD0E945300C701AA27BB278EBD28
:1000F0000E945300BB27AF2D9E2D8D2D8EBD0E94DB
:100100005300CEBC0E945300C160CEBDCF91FF9082
:10011000EF90DF90CF900C945300CF93CFEFCEBDF4
:100120000E945300289ACEBDCF910C9453008FEFBC
:100130008EBD0E9453008EB50895CF93C1E10E94F9
:1001400097008F3F11F4C150D1F7CF910895CF930D
:10015000DF93C4E60E94570020E040E050E0BA017F
:1001600087E30E9461000E949D000E948D000E9412
:1001700057008091A40120E040E050E0BA018130B6
:1001800021F040E050E060E070E489E20E9461000C
:100190000E949D00D82F0E948D00C1508FE39CE9E2
:1001A0000197F1F700C00000DD2339F0C111D2CF73
:1001B00081E090E0DF91CF91089581E090E0CC2341
:1001C000C9F380E0F7CFCF93DF93EC010E949D004D
:1001D0008883823060F40E94970089830E94970090
:1001E0008A830E9497008B830E9497008C83DF9103
:1001F000CF9108950F931F93CF93DF9300D000D03A
:100200001F92CDB7DEB784B18C6284B9209A82E5A3
:100210008CBD299A21988FE99FE00197F1F700C0E2
:1002200000000E948D001AE00FEF0EBD0E945300E7
:100230001150D9F70BE01981113009F058C00E9414
:10024000570026E84AEA51E060E070E088E00E944A
:100250006100CE0101960E94E3000E948D001DBD49
:100260008CB58D7F8CBD8981813009F057C08C8120
:1002700004E010E0813081F58D8103E010E08A3ADE
:1002800059F50E94570020E040E050E0BA018AE3AF
:100290000E946100CE0101960E94E3000E948D0041
:1002A0000E94A7008C01892BA1F50E94570020E035
:1002B00040E050E0BA018AE30E946100CE0101965D
:1002C0000E94E3000E948D008A8187FF39C086FF6B
:1002D00023C083E08093A401C8010F900F900F907A
:1002E0000F900F90DF91CF911F910F9108950E9471
:1002F000570024E940E050E0BA0180E00E9461002C
:100300000E949D0089830E948D00015009F093CFC7
:10031000289A01E010E0E0CF82E0DCCF853099F44C
:100320001093A4010E94A70006E010E082FDD4CF44
:1003300021E090E0811101C020E0022F192FCCCFE5
:1003400005E010E0C9CF02E010E0C6CFBF92CF9227
:10035000DF92EF92FF920F931F93CF93DF936B0186
:100360007C01B42E052F8091A401813039F489E0FD
:10037000CC0CDD1CEE1CFF1C8A95D1F78FEF80930F
:10038000D2020E94570020E0B701A60188E10E9436
:1003900061000E949D00182F811149C08EEF8EBD13
:1003A0000E945300CB2DD02F7E018EEFF81A899139
:1003B0008EBD0E945300CE15DF05C9F7C12CD12C8C
:1003C00076018FEFC81AD80AE80AF80AC701B60101
:1003D0000E94EB1F20E034E244E758E40E943E1FF5
:1003E00087FF05C00E949700182F8F3F51F3812F80
:1003F0008F718530E1F48093D202C12CD12C76012B
:100400000E949700811113C08FEFC81AD80AE80A1A
:10041000F80AC701B6010E94EB1F20E034E244E76E
:1004200058E40E94DB2018165CF71092D2020E945A
:100430008D00812FDF91CF911F910F91FF90EF9051
:10044000DF90CF90BF900895AF92BF92CF92DF928E
:10045000EF92FF920F931F93CF93DF936B017C0179
:100460005A018091A401813039F489E0CC0CDD1C63
:10047000EE1CFF1C8A95D1F78FEF8093D2020E9469
:10048000570020E0B701A60181E10E9461000E94AF
:100490009D00082FC12CD12C760110E08F3F29F54B
:1004A0000E948D00802FDF91CF911F910F91FF90BF
:1004B000EF90DF90CF90BF90AF9008950E9497008B
:1004C000182F8F3F91F08E3F09F5E50175018EEFF2
:1004D000F81A0E9497008993CE15DF05D1F718828C
:1004E0000E9497000E94970011C08FEFC81AD80A87
:1004F000E80AF80AC701B6010E94EB1F20E030E5C8
:1005000043EC57E40E943E1F8111D8CF1093D202D2
:10051000C7CF83B18695817091E0892708950F93A5
:100520001F93CF93DF93EC018C01060F171FC017A9
:10053000D10729F4DF91CF911F910F9108958991EF
:100540008EBD0E945300F3CF0F931F93CF93DF9381
:10055000EC018C01060F171FC017D10729F4DF919A
:10056000CF911F910F9108950E9497008993F4CF26
:100570008F929F92AF92BF92CF92DF92EF920F93A2
:100580001F93CF93DF93EC014A015B01FC01E65B13
:10059000FF4F10823697108231961082319610826A
:1005A0003196108231961082319610821FB7F894DE
:1005B000E881F9810190F081E02D1082E881F981D4
:1005C0000280F381E02D1082E881F9810480F581B9
:1005D000E02D1082C880D980203109F0C3C020E00E
:1005E00030E041E657E4CB01B4010E943E1F87FF93
:1005F0001FC020E030E040E051E4C501B4010E949A
:10060000E0209B01AC0160E074E284E79BE40E947F
:10061000431F20E030E040E85FE30E94D11E20E06D
:1006200030E040E05FE30E94E0200E94BC1F2DC04C
:1006300020E030E040E850E4C501B4010E94E02031
:100640009B01AC0160E074E284E79BE40E94431FDD
:1006500020E030E040E85FE30E94D11E20E030E07F
:1006600040E05FE30E94E0200E94BC1FD601ED91B4
:10067000FC91119780811C969C9121E030E001C093
:10068000220F9A95EAF7822B8083E881F981008412
:10069000F185E02D7083E881F9810680F781E02DF6
:1006A0006083A881B9811496ED91FC911597208102
:1006B000802F1E963C9101C0880F3A95EAF7822B55
:1006C0008083A881B9811496ED91FC9115972081C2
:1006D0008E2D1F963C9101C0880F3A95EAF78670DF
:1006E000822B8083B7E0EB1208C0E881F981028099
:1006F000F381E02D808184608083E881F981A2818B
:10070000B3814C91228981E090E0BC0102C0660F68
:10071000771F2A95E2F79B013389BC0101C0660F60
:100720003A95EAF7262B242B2C931FBFA881B98179
:100730001296ED91FC911397208155963C9101C042
:10074000880F3A95EAF7822B80837894DF91CF91D6
:100750001F910F91EF90DF90CF90BF90AF909F903F
:100760008F900895D6011496ED91FC911597808194
:100770001D969C9121E030E001C0220F9A95EAF786
:10078000822B8083AB019401CB01B4010E94D21E65
:100790009B01AC0160E074E284E79BE40E94431F8C
:1007A00020E030E040E85FE30E94D11E3ECFCF93CF
:1007B000DF93362FFC01EB5BFF4F2081DC01AC5B4C
:1007C000BF4F203219F12081EC01C20FD11D3C83B3
:1007D0002F5F20833FB7F8942C912F5F2C933FBF5E
:1007E000FC01A081B1811296ED91FC91139780815B
:1007F00054969C9121E030E001C0220F9A95EAF7CF
:10080000822B808380E0DF91CF91089510822C911C
:1008100041E053E567E070E02223A9F2415051091D
:1008200061097109C9F781E0EECF0F931F93CF9350
:10083000DF938C01EB016991611106C080E0DF91CB
:10084000CF911F910F910895C8010E94D70388236B
:1008500091F381E0F4CFEF92FF920F931F93CF9328
:10086000DF937C01EB018B01040F111DC017D10731
:1008700041F480E0DF91CF911F910F91FF90EF90B5
:1008800008956991C7010E94D703882379F381E015
:10089000F1CFFC01A081B181ED91FC911197808194
:1008A0005A969C9121E030E001C0220F9A95EAF718
:1008B000822B80830895FC01A081B181ED91FC9190
:1008C000119720815A963C9181E090E001C0880FF9
:1008D0003A95EAF7809582238083089570E07160ED
:1008E0000C94D703EF92FF920F931F93CF93DF9354
:1008F000CDB7DEB72D970FB6F894DEBF0FBECDBFD4
:100900007C01CB01BA018E010F5F1F4F2DE0F80172
:1009100011922A95E9F720E0A8010E94271CB8014E
:10092000C7010E9415042D960FB6F894DEBF0FBEC6
:10093000CDBFDF91CF911F910F91FF90EF90089560
:100940008F929F92AF92BF92CF92DF92EF920F93CE
:10095000CF93DF93CDB7DEB76A970FB6F894DEBFBB
:100960000FBECDBF6C014A015B01E22E00E09E018B
:100970002F5F3F4FAE01425F5F4FCB01B4010E943A
:10098000A11C20E030E0A901C501B4010E943E1F76
:1009900087FF04C06DE2C6010E94D703BE01625FFB
:1009A0007F4FC6010E9415046EE2C6010E94D70364
:1009B000BE016F5F7F4FC6010E9415046A960FB695
:1009C000F894DEBF0FBECDBFDF91CF910F91EF90B6
:1009D000DF90CF90BF90AF909F908F9008950F932E
:1009E0001F93CF938C01962F92959F70C62FCF7037
:1009F00060E39A3008F067E3690F90E3CA3008F0CB
:100A000097E3C90FC8010E94D7036C2FC801CF918B
:100A10001F910F910C94D7031F93CF93DF93EC0199
:100A2000162F672F0E94EF04612FCE01DF91CF9127
:100A30001F910C94EF04CF92DF92EF92FF92CF932D
:100A4000DF93EC016A017B01B70188279927CE016A
:100A50000E940C05B601CE01DF91CF91FF90EF907F
:100A6000DF90CF900C940C05FC01E95BFF4F81E017
:100A70009081911101C080E008958F929F92AF9272
:100A8000BF92CF92DF92EF92FF920F931F93CF937B
:100A9000DF93EC016A017B01A901980160E070E03D
:100AA00080E091E40E94431F20E034E244E759E4EF
:100AB0000E94E0200E94BC1F90E080E00E94EB1F9B
:100AC0004B015C0120E034E244E759E4C701B60180
:100AD0000E94431F9B01AC01C501B4010E94E020AC
:100AE0000E94BC1FCC5BDF4F88818111FECF611556
:100AF000710569F4DF91CF911F910F91FF90EF90F5
:100B0000DF90CF90BF90AF909F908F90089500009E
:100B100061507109ECCF865B9F4FFC0180818C7125
:100B20000895865B9F4FFC018081829581700895B6
:100B3000865B9F4FFC01808183FB882780F90895A5
:100B4000865B9F4FFC01808182FB882780F9089596
:100B5000865B9F4FFC0110820895CF93DF93DC01E9
:100B6000A95BBF4F2C912223B9F0FC01E75BFF4F3B
:100B70002081203209F410822081820F911DEC0126
:100B80008CA12F5F20832FB7F8949C9191509C9358
:100B90002FBFDF91CF91089580E0FBCF8F929F927E
:100BA000AF92BF92CF92DF92EF92FF920F931F937B
:100BB000CF93DF934C01D42F8B01C0E0C12C83E590
:100BC000D82E87E0E82EF12C540187E4A80EB11C42
:100BD000CD17B9F0F5018081882341F0C4010E944E
:100BE000AD05F80181938F01CF5FF2CFC114D1041D
:100BF000E104F10431F0E1E0CE1AD108E108F10896
:100C0000F5CF8C2FDF91CF911F910F91FF90EF9037
:100C1000DF90CF90BF90AF909F908F9008954F92AC
:100C20005F926F927F928F929F92AF92BF92CF927C
:100C3000DF92EF92FF920F931F93CF93DF937C018C
:100C4000822EEA01912C412C83E5582E87E0682EF4
:100C5000712C670187E4C80ED11C062F660F110B9B
:100C6000981469F1F60180818823E1F05E01C701E3
:100C70000E94AD05899380171106F9F4F5011082E1
:100C8000892DDF91CF911F910F91FF90EF90DF9011
:100C9000CF90BF90AF909F908F907F906F905F901C
:100CA0004F900895411451046104710451F391E08F
:100CB000491A510861087108F5CF9394D1CF80E0AB
:100CC000E0CFCF93DF931F92CDB7DEB7DC01ED917C
:100CD000FC9140815181808D21E030E002C0220FE3
:100CE000331F8A95E2F7DA018C9190E082239323F7
:100CF000892B21F40F90DF91CF9108958285938500
:100D0000DC018C9189838981EECFDC01ED91FC912E
:100D10000280F381E02D10820895FC0173836283C9
:100D200008951F920F920FB60F9211248F93EF9395
:100D3000FF9380914601803211F410924601E091B8
:100D4000460181E08E0F80934601F0E0E050FF4FB6
:100D500084818093C6008091440181508093440136
:100D6000811105C08091C1008F7D8093C100FF91EA
:100D7000EF918F910F900FBE0F901F9018951F92BB
:100D80000F920FB60F9211242F933F934F935F93BF
:100D90006F937F938F939F93AF93BF93EF93FF9343
:100DA00080914801803211F4109248019091C00066
:100DB00080914A01892B80934A018091C600E0917D
:100DC0004801F0E0E050FF4F84A3E0910201F09170
:100DD0000301309709F00995809148018F5F809356
:100DE0004801809147018F5F80934701FF91EF9108
:100DF000BF91AF919F918F917F916F915F914F9133
:100E00003F912F910F900FBE0F901F901895CF928A
:100E1000DF92EF92FF92E5EAF1E0268D378DC080F8
:100E2000D180E280F380C20ED31EE11CF11C9B0135
:100E3000AC012250310941095109A0A5B0E00E943E
:100E4000171E6C0D7D1D8E1D9F1DFF90EF90DF9076
:100E5000CF900895CF92DF92EF92FF92CF93DF93DE
:100E6000EC016A017B0182E0C816D104E104F104BF
:100E7000D0F48091C1019091C201B0E0A0E08887D8
:100E80009987AA87BB87CC82DD82EE82FF82198A8E
:100E9000188A188E1B8A1A8ADF91CF91FF90EF90E3
:100EA000DF90CF900895CB01BA010E9407076887B1
:100EB00079878A879B87E7CFCF93DF93EC011F8EDB
:100EC0001E8E1EA281E08CA3188219821A821B82B8
:100ED00019A2688579858A859B856C877D878E8731
:100EE0009F870E940707688F798F8A8F9B8F1D8E3F
:100EF0001C8EDF91CF9108952F923F924F925F9277
:100F00006F927F928F929F92AF92BF92CF92DF9219
:100F1000EF92FF920F931F93CF93DF9300D01F9216
:100F2000CDB7DEB789834090BD015090BE01812CC2
:100F3000912C54011B821A82712C212C312C612C92
:100F4000C12CD12C76012A813B81C901B0E0A0E0FF
:100F50004091B1015091B2016091B3017091B4011F
:100F600084179507A607B707C0F0C701B6010F9011
:100F70000F900F90DF91CF911F910F91FF90EF9005
:100F8000DF90CF90BF90AF909F908F907F906F90A9
:100F90005F904F903F902F9008956091C5017091A0
:100FA000C6012A813B81620F731F90E080E043ED10
:100FB00052E00E94240281115AC0A091CC010091FC
:100FC000B9011091BA012091BB013091BC010E5FB3
:100FD0001F4F2F4F3F4FB701A601C72CD22CE32C38
:100FE000F62C90E080E08415950538F5A23091F557
:100FF000FC01ED52FD4F80809180A280FC01339670
:10100000ED52FD4F0496B080EFE0BE2281149104B2
:10101000A104B10441F44F5F5F4F6F4F7F4FE981EF
:10102000E33009F4A2CFEFEFCE1ADE0AEE0AFE0A91
:101030000C151D052E053F05B0F62A813B812F5F5B
:101040003F4F3B832A837C2C2D2C3E2C6F2C6A0136
:101050007B0179CFA130D1F6FC01ED52FD4F8080AC
:10106000FC013196ED52FD4F02969080CFCFC12CFE
:10107000D12C76017ACF4F925F926F927F928F92AE
:101080009F92AF92BF92CF92DF92EF92FF920F9317
:10109000CF93DF9300D000D000D0CDB7DEB76B0187
:1010A0007C0149015A018091CC01A7019B0104C038
:1010B000220F331F441F551F8A95D2F729833A8385
:1010C0004B835C834091BD015091BE015E834D8393
:1010D0009A0150E040E069817A818B819C810E9475
:1010E000D61D29011092D1011092D0016091C50145
:1010F0007091C601620F731F90E080E043ED52E0F3
:101100000E9424028823D9F0C12CD12C7601C7017A
:10111000B60126960FB6F894DEBF0FBECDBFDF91A5
:10112000CF910F91FF90EF90DF90CF90BF90AF9055
:101130009F908F907F906F905F904F900895AD81BA
:10114000BE81A49DC001A59D900DB49D900D11245C
:10115000E981FA81E81BF90B0D3019F0073009F02D
:101160006DC0DF01AD52BD4F8C911196CC9011979F
:10117000D12CDC2CCC240D2C000CEE08FF08C82A46
:101180008091CC018230A9F412962C91129713967B
:101190008C9190E0B0E0A0E0B82FAA27992788278B
:1011A000A22B8C299D29AE29BF296C017D012FE03E
:1011B000F2220D3009F042C0C114D104E104F1045F
:1011C00009F4A2CF2091CC01AF014D525D4F5A835B
:1011D0004983EC52FD4F2230A1F4DA0113963C9181
:1011E000808190E0982F8827092E000CAA0BBB0B5A
:1011F000B32B88279927AA27B07F882A992AAA2A59
:10120000BB2AA981BA818C929082223029F412964D
:10121000AC9212971396BC926091C5017091C60171
:10122000640D751D90E080E043ED52E00E94A60140
:101230008091D202853009F067CF69CF063009F07E
:1012400066CFC0CFCF92DF92EF92FF920F93CF93F2
:10125000DF93EC016A017B0183E00E947C079B0124
:10126000AC01288339834A835B8384E090E0223099
:10127000310541055105B0F08091AD019091AE016D
:10128000A091AF01B091B0018C159D05AE05BF05D1
:10129000C9F006E0C701B6010E943B08672B51F474
:1012A0008CE090E0DF91CF910F91FF90EF90DF9075
:1012B000CF900895C090AD01D090AE01E090AF0105
:1012C000F090B001688179818A819B8106E0A70155
:1012D00096010E943B0890E080E0672B19F7E0CF71
:1012E0000F931F93CF93DF93EC016C857D858E85E3
:1012F0009F85623071058105910590F107E020E03E
:1013000030E0A9010E943B086C877D878E879F870C
:101310001D8E1C8E0091AD011091AE012091AF0188
:101320003091B001601771078207930741F481E0A3
:101330008EA382E0DF91CF911F910F9108956115E7
:1013400071058105910521F48CE089A383E0F2CF3A
:101350000E940707688F798F8A8F9B8F80E0EACF82
:1013600081E0E8CF0F931F93CF93DF93CFEFDFEFB1
:101370006115710581059105A9F00091AD011091EC
:10138000AE012091AF013091B00106171707280771
:10139000390741F00DE020E030E0A9010E943B0850
:1013A000219731F7DF91CF911F910F9108950F93FE
:1013B0001F93CF93DF93EC0188819981AA81BB8130
:1013C0000297A105B10598F48091BF019091C001E9
:1013D00021E0488959894817590788F1222361F08B
:1013E00081E090E0DF91CF911F910F91089580915E
:1013F000CD0190E020E0EDCF6C817D818E819F81D9
:1014000007E020E030E0A9010E943B086C837D8367
:101410008E839F830091AD011091AE012091AF01A9
:101420003091B0016017710782079307C9F20E94DB
:101430000707688779878A879B87198A188A288986
:101440003989688579858A859B85620F731F811D1F
:10145000911D43ED52E00E942402811108C0888949
:1014600099890196998B888B90E080E0BBCF8CE0C6
:1014700090E0B8CF1F93CF93DF93EC01162F6889CC
:1014800079898A899B8943ED52E00E94240288234E
:1014900031F08CE090E0DF91CF911F910895E8A1A9
:1014A00080E2E89FF00111241B3009F5E151FD4F66
:1014B00088818083898181838A8182838B818383F0
:1014C00088819981AA81BB818C839D83AE83BF83F0
:1014D000688979898A899B8943ED52E00E94A60137
:1014E0008091D2028530A9F690E080E0D4CFE3511C
:1014F000FD4F88858083898581838091CC018230EE
:1015000039F7E8A180E2E89FF0011124E951FD4F8D
:101510008A8580838B858183DBCF95E0660F771F7B
:101520009A95E1F75091CE019091CF0130E06D5244
:101530007D4F680F711DFB01E30FF11D8081882332
:1015400089F08F3F11F04F3F21F49093CF01842F0A
:101550000895E42FF0E0EE52FE4F8083511101C058
:1015600091E04F5F3E5F321730F3EFCF0F931F9341
:10157000CF938C01FC0185E0EE0FFF1F8A95E1F708
:10158000ED52FD4FC081CF7B4DE0C49F402D112413
:101590004D502AE0B80181E00E948D0A2CE0482FCE
:1015A000B8018EE00E948D0A24E0482FB8018CE13A
:1015B0000E948D0A9091CF01992351F01092CF0192
:1015C00091E09093CE01E82FF0E0EE52FE4F1082B2
:1015D000C13011F41092CE01CF911F910F91089557
:1015E000CF93DF9390E2899FD0011124AD52BD4F7C
:1015F000E0E020E03EE29D918FEB890F8A3108F513
:10160000905E283021F5613011F181E08E0FF0E01D
:10161000EE52FE4F3083E82F9032C9F42F5F2B300B
:1016200051F78E2F90E0FC01EF52FE4F20812E32B9
:1016300009F410828E529E4FFC011082DF91CF91EF
:101640000895283001F3903211F4613039F7CE2F2C
:10165000D0E0CE52DE4F9883EF5FE0CF5F926F9283
:101660007F928F929F92AF92BF92CF92DF92EF9232
:10167000FF920F931F93CF93DF9300D01F92CDB7AC
:10168000DEB79B838A838B01E42E712C612CDC01F5
:101690001D967C936E931C9751961C921E925097A8
:1016A00053961C921E925297F12CB42FB77FB98398
:1016B0005F2CF12C26C0892D90E09C0145E0220F83
:1016C000331F4A95E1F7F901ED52FD4F6F0120817B
:1016D0002223F9F0253E81F02E3271F08384F8E068
:1016E0008F1651F02FE0821218C04981413021F04D
:1016F0000E94B60AFF24F39493948091CA0198162D
:10170000D0F28A819B810E94D7095C01892B09F460
:10171000E1C082E0A82EB12C42C0FF2019F051E0B8
:10172000E51204C06E2D892D0E94F00A89E0E812AE
:101730000CC0AA81BB8154968D919C9155970196BE
:1017400055969C938E935497D7CFEA81FB818289DB
:1017500093890196938B828BD8018C918F3211F0F3
:101760008C3589F5EA81FB8184859585019695877D
:101770008487D80111968C91811125C08091B50183
:101780009091B601A091B701B091B8018083918387
:10179000A283B3838FE28093D2011092D301C5015B
:1017A0000F900F900F90DF91CF911F910F91FF90AD
:1017B000EF90DF90CF90BF90AF909F908F907F90F1
:1017C0006F905F900895AA81BB811C96ED91FC916A
:1017D000F52C80E08F0120813196A82FB0E0AE5229
:1017E000BE4F9C91222311F0911102C0512C1AC0BE
:1017F0003FEB320F3A3108F4205E3FEB390F3A31BC
:1018000008F4905E291348C08F5F90819F3221F0C9
:10181000FF24F3949C35F1F60E5F1F4F552453942B
:10182000FF24F394E82FF0E0EE52FE4F8081811107
:1018300004C0F8018081882319F0552009F446C0BE
:10184000FF2009F445C0F1E0EF16C9F02AE0E216E6
:10185000B1F0D6015A969C915A975B968C915B9702
:101860002091CC01223029F454967C9054975596BF
:101870006C90EA81FB819083818372826382D801BC
:101880008C9181110CC0B8E0EB1289CF84FC87CF1A
:1018900099E0A92EB12C83CF512CF12CC3CFEA8132
:1018A000FB811587048760817181828193816483C4
:1018B0007583868397830E940707EA81FB8160878F
:1018C000718782879387118A108AF2CEF12C14CF08
:1018D000512C12CF912C11CFCF93DF93DA01FC0161
:1018E000ED52FD4F4FEFCD91DC91119728812223CE
:1018F000A9F020832D913C9111972F5F3F4F1196B6
:101900003C932E9332969F01281B390B235D324066
:101910002617370740F3DF91CF9108954083418325
:10192000F1CFCF92DF92EF92FF921F93CF93DF938D
:10193000142FE3EDF2E0119224E0E33DF207D9F732
:101940000E9407076B017C01D0E0C0E080E090912D
:10195000CD019C171D0609F048F490E0DF91CF916E
:101960001F91FF90EF90DF90CF90089543ED52E0EC
:10197000C701B6010E94A6019091D202953049F4A8
:101980009FEFC91AD90AE90AF90A1111E6CF21967F
:10199000DECF8CE090E0E2CF2F923F924F925F92A9
:1019A0006F927F928F929F92AF92BF92CF92DF926F
:1019B000EF92FF920F931F93CF93DF93CDB7DEB7D4
:1019C000AA970FB6F894DEBF0FBECDBF7C017A8B0D
:1019D000698B4E8F1C86D090CA01DC015A968C917F
:1019E00081110DC08091B5019091B601A091B70110
:1019F000B091B801F70180839183A283B38340E063
:101A000050E0BA01C7010E942A0769897A8940E03B
:101A1000C7010E942E0B823031F195E0A92EB12C26
:101A2000C501AA960FB6F894DEBF0FBECDBFDF91F9
:101A3000CF911F910F91FF90EF90DF90CF90BF90CB
:101A4000AF909F908F907F906F905F904F903F905E
:101A50002F9008953196FA8BE98B815029F428E074
:101A6000A22EB12CDDCF88EFE989FA8990819111FE
:101A7000F1CFD7011C960D90BC91A02DBA8FA98FE4
:101A8000BA8BA98BE989FA898081811138C0E98DE7
:101A9000FA8DFA8BE98BD7014D915D916D917C9117
:101AA000C7010E942A0749895A89FA011B8A30E036
:101AB00020E070E060E090E0DF018191882311F088
:101AC0007F3F39F5D70159967C932115310539F0BF
:101AD000F901E41BF50BE830F1050CF49E2F6230A0
:101AE00008F06AC0983009F069C041E04B8BE1E032
:101AF000F0E0EC0FFD1FE90FF11D80E23AC08F32DC
:101B000009F487C38C3509F484C33196FA8BE98BC9
:101B1000B9CF8E3221F46F5F9D017F5FCDCF9830BA
:101B2000E0F7803209F18F32C9F08C35D1F0803284
:101B3000DCF0AFE9A80FAA3150F48052A1E0B0E088
:101B4000AC0FBD1FA90FB11D8C939F5FE6CFAFEB0C
:101B5000A80FAA3198F7B1E0BB8BF0CFA1E0AB8B17
:101B6000DCCFB1E0BB8BD9CF81E08B8BD6CF81931B
:101B70009F5F9B30E0F3F90180E09191992311F090
:101B800061111EC0853010F081E08B8B41112EC099
:101B900041E0BE016F5F7F4FC7010E942E0B823074
:101BA00009F03BCFF701118A108A818C81106EC039
:101BB00077E0A72EB12C34CFF1E0FB8B40E097CF3C
:101BC000833078F49081903271F02FE9290F2A3117
:101BD00008F49052A9E0B0E0AC0FBD1FA80FB11DF2
:101BE0009C938F5FCACF51E05B8BC7CF88248394CF
:101BF00016E000E0AEE7CA2EBAE0AB2E87E0B82EC2
:101C00000A3069F51150F2E08F2EE12FF0E0A1E0EB
:101C1000B0E0AC0FBD1FAE0FBF1FCC92912C802F38
:101C200050E040E0E80DF91D84169506F1F48B2C88
:101C3000811AD7014D915D916D917C91C7010E94F0
:101C40002A0741E0BE016F5F7F4FC7010E942E0B44
:101C5000029709F4E6C20F5F0F3F91F6DECE04361D
:101C6000A1F61150E3E08E2ED0CFDF01A41BB50BFF
:101C700021E030E02C0F3D1FA20FB31F6A2D0E9400
:101C8000CA1D905D9C934F5F5F4FCECF2DE0882D96
:101C9000622F0E94CA1DC82EFB89FF2309F445C08C
:101CA000829F801811248C8A8110C39411E01C0D2E
:101CB0009E01245F3F4FAE014F5F5F4F5D8F4C8FA2
:101CC0001B8E9B8D80E8989FA0011124AC8DBD8D4B
:101CD0009D91BD8FAC8F8B8D8695890F840F8B8FD7
:101CE000A217B30771F7F7014081518162817381B7
:101CF000C7010E942A0700E0712C612C212C312C95
:101D000021011E8A1D8AB12CA12C912C812C2D2DF4
:101D100030E0388F2F8BC7010E94D7098111C8C1CD
:101D2000E3EDF2E090E080E0B8C11C8ABFCF2081F3
:101D3000222319F0253E09F0AAC10F5F21143104B6
:101D400041045104A1F4D70118962D903D904D9077
:101D50005C901B9750962D913C915197A901415051
:101D600051095E8B4D8B1496AD90BC904C011013B5
:101D700092C1C501B0E0A0E0F70184839583A683FA
:101D8000B783D7012086318642865386ED89FE8946
:101D90005196FC93EE935097FE8DF43009F0CFC12D
:101DA0004091AD015091AE016091AF017091B001D1
:101DB000CE010D960E9422095C01BB24811130CE18
:101DC0006D857E858F85988940E00E94910C6D8598
:101DD0007E858F8598890E9407072B013C0141145D
:101DE00051046104710409F4E3CEC7010E94D709CC
:101DF0005C01892B09F086C16894C6F8C8A28C8959
:101E00008D5F880F8D8B82508BA3BD89B550BCA38D
:101E1000C12E312C1F8A1F8E212CED2DF0E0FAA34C
:101E2000E9A354E5D52E212F30E03EA32DA35C89F4
:101E3000452F50E058A74FA33197FAA7E9A789A1EA
:101E40009AA18815990541F4C7010E94D709892BE9
:101E500009F058C1912C812C840145E0000F111F1D
:101E60004A95E1F7D801AD52BD4FFD0180E290E007
:101E700011920197E9F79B89992309F46EC1E1E07A
:101E8000CE1609F46DC1298D3A8D3A8B298BF80154
:101E9000ED52FD4F38A130834EEF4C0D48A3D701D2
:101EA00059968C918E30B8F04DA15EA14C19510914
:101EB00063EF64039001659F300D1124820F932F0F
:101EC000911DEFA1F8A58E1B9F0B298D3A8D820FD6
:101ED000931F9A8B898BAE014F5E5F4F6AE070E073
:101EE000C80101960E946C0CAE014F5E5F4F6CE022
:101EF00070E0C8010E960E946C0CAE014F5E5F4F01
:101F000064E070E0C8014C960E946C0C3C8933235D
:101F100091F0311010C0353008F419C13B3008F48D
:101F200018C13D3008F417C1F801E30DF11DED5261
:101F3000FD4F10821182F801ED52FD4F4FE04387B3
:101F40005B8D5587A9A5BAA5A815B90509F443C1A4
:101F5000B1E0CB1609F43FC1CA94EFEF8E1A9E0A86
:101F6000C1106DCFBE8D2091BD013091BE01E3ED5A
:101F7000F2E0B43009F054CDCF01835D9240821776
:101F8000930708F444C18EE28093D302E4EDF2E0BB
:101F90008EED92E020E221938E179F07E1F780E11A
:101FA0008093DE021092E9022092EA02EF89E09328
:101FB000EB02FF8DF093EC023D859E852F8588898D
:101FC0003093ED029093EE029091CC01923021F487
:101FD0002093E7028093E8028EE28093F3028093DD
:101FE000F40280E28093F5028093F6028093F70278
:101FF0008093F8028093F9028093FA028093FB02A7
:102000008093FC028093FD0280E18093FE02109297
:10201000090320920A032F8920930B033F8D3093ED
:102020000C03923009F5D7014D915D916D917C9132
:102030008091B5019091B601A091B701B091B8011E
:10204000481759076A077B0729F4F70110821182A4
:1020500012821382D70112968C91129780930703F4
:1020600013968C9180930803F701808180930D0370
:10207000818180930E0343ED52E0C301B2010E94BF
:10208000A6018091D202853009F4CACC3BC000E0A1
:10209000212C312C21010196B0969301280F391F74
:1020A000AF89B88D8A179B0708F441CE390133CE2A
:1020B000011709F45ECEF70180819181A281B3817D
:1020C0000297A105B10508F473CD6720609409F467
:1020D0006FCD83E00E947C079B01AC012D873E877A
:1020E0004F87588B223031054105510508F495C0C2
:1020F000D7016D917D918D919C9106E00E943B08E6
:10210000611104C06CE0A62EB12C8ACC2091AD01E7
:102110003091AE014091AF015091B0016D857E8547
:102120008F85988906E00E943B08662359F36D85E8
:102130007E858F85988940E00E94910C1ACE1D867D
:102140001E861F86188A412C512C32014ECE3CA08F
:10215000EBCE3BA0E9CE3D88E7CE81E0C812F2CEBF
:10216000F801E252FD4F9E8D943091F520E12083DD
:10217000F801ED52FD4F47EC4587168658E057872A
:10218000168A578B81E2808BD18A808FD18E3D85D4
:102190002E859F858889328F238F2091CC01223014
:1021A00011F4948B858B9B89911102C028E12487BF
:1021B000FE01319681918D934C8D5D8DE417F5076D
:1021C000C9F751E25F8B84E58F8F38E0232EBACEBA
:1021D00030E23083CDCFD70118966D917D918D91EE
:1021E0009C911B97615071098109910950962D911D
:1021F0003C91620F731F811D911D43ED52E00E94BF
:10220000A6018091D202853009F4A6CE7BCF11922F
:10221000B3CE93E0A92EB12C03CC84E0A82EB12C30
:10222000FFCB1111BFCCF9CB4F925F926F927F928F
:10223000BF92CF92DF92EF92FF920F931F93CF93B3
:10224000DF931092B5011092B6011092B70110926F
:10225000B8011092A5011092A6011092A701109248
:10226000A8011092CC01C12CD12C76010E94FA0059
:102270008093CB018111C8C143ED52E060E070E072
:10228000CB010E9424028093CB01882381F082E05D
:1022900090E0DF91CF911F910F91FF90EF90DF9031
:1022A000CF90BF907F906F905F904F900895C090B7
:1022B000D204D090D1042AEAC21625E5D206E10460
:1022C000F10419F084E090E0E4CFC0908F04D09046
:1022D00090043AE5C316D306E104F10409F043C0C3
:1022E0002091950490E080E0211114C02091A50474
:1022F00081E090E021110EC02091B50482E090E0D1
:10230000211108C02091C50483E090E0211102C092
:1023100084E090E0A4E0880F991FAA95E1F78D5220
:102320009D4FFC01EA53FE4FC0803196D08031961C
:10233000E08087539E4FFC01F080D701C601809357
:10234000A5019093A601A093A701B093A801C12C69
:10235000D12C7601222321F0892B8A2B8B2B49F457
:1023600083E090E096CFC114D104E104F10409F4B4
:10237000B7CF6091A5017091A6018091A7019091BE
:10238000A80143ED52E00E9424028093CB01811109
:102390007ECFC090D204D090D104FAEACF16F5E5F2
:1023A000DF06E104F10409F08DCFC090DE02D09089
:1023B000DF02D092BE01C092BD0186E090E0C11460
:1023C00022E0D20609F065CFB090E002B092CD01D4
:1023D000C090E102D090E2028601E091E302C09059
:1023E000E402D090E502C601C090E602D090E70278
:1023F000B701A601C090E902D090EA022601370198
:10240000C090F302D090F402E090F502F090F60252
:10241000C092A901D092AA01E092AB01F092AC0166
:102420000115110509F44ECF35E0880F991F3A9533
:10243000E1F79C01232F332726953093C001209389
:10244000BF014114510409F48AC0662477244092E4
:10245000B1015092B2016092B3017092B401C09187
:10246000B101D091B201EC9FC001ED9F900D1124FC
:10247000800F911F820F931F9093C4018093C3011B
:102480004115510509F47CC06A017B01EE24FF244B
:10249000A7019601281B390B41095109CA01B9014D
:1024A0000E94EB1F2B013C016B2D70E090E080E05F
:1024B0000E94ED1F9B01AC01C301B2010E94431FAA
:1024C00020E030E040E05FE30E94D11E0E94BC1F8C
:1024D0006093B9017093BA018093BB019093BC01E2
:1024E000653F3FE073078105910508F052C01092E7
:1024F000CC018091CC018150823008F088C080915D
:10250000A5019091A6012091BF013091C001FC016D
:10251000E21BF30B9F014091C3015091C401240FB2
:10252000351F3093C2012093C101080F191F10936A
:10253000C6010093C5010C0F1D1F1093C801009325
:10254000C7018091BD019091BE0125E096958795C8
:102550002A95E1F78093CA0190E080E09ACEC0907E
:10256000F702D090F802E090F902F090FA02C092DF
:10257000B101D092B201E092B301F092B4016FCFF9
:10258000C090A901D090AA01E090AB01F090AC01FD
:102590007FCF653F7F4F8105910598F481E080935F
:1025A000CC0182E08093C9018FEF9FEFA0E0B0E003
:1025B0008093AD019093AE01A093AF01B093B001B1
:1025C00098CF82E08093CC0184E08093C9018FEFA3
:1025D0009FEFAFEFBFE08093AD019093AE01A0936A
:1025E000AF01B093B001C090FF02D0900003E09023
:1025F0000103F0900203C092B501D092B601E092BF
:10260000B701F092B80175CF81E090E042CE85E04D
:1026100090E03FCEAF92BF92CF92DF92EF92FF92C7
:102620000F931F93CF93DF9382E00E947C076B018F
:102630007C01E5EAF1E0608D718D90E080E020A5FD
:1026400030E050E040E00E947A1ED22FC32F5601A6
:102650006701E12CF12C00E010E02D2F3C2F0E94AF
:10266000221EDF91CF911F910F91FF90EF90DF908D
:10267000CF90BF90AF900895CF93DF93E5EAF1E05C
:10268000868D978D2481358146815781281B390B92
:1026900041095109A08DB18D0E94171EDC019B01DB
:1026A000AD0160E070E080E090E0DF91CF910895AF
:1026B0000F930E943C130AE00E94A71E0E9428204C
:1026C0000F9108950E94581320E030E040E85AE34B
:1026D0000E94E02008950E94621320E030E040E86C
:1026E0005AE30E94E0200895CF92DF92EF92FF928A
:1026F0000F931F93CF93DF938C01EB016091C10186
:102700007091C20190E080E043ED52E00E9424020B
:1027100090E0009739F58BE0E0E0815060F5E00F44
:10272000F12FF11D11826091A5017091A601809198
:10273000A7019091A80143ED52E00E94240290E08D
:10274000009781F42091CC01223039F5C090160316
:10275000D0901703E0901803F0901903C882D98233
:10276000EA82FB82DF91CF911F910F91FF90EF9052
:10277000DF90CF900895282F30E0D901AD52BD4FA2
:102780009C91903211F4EE2341F2200F311FD901B8
:102790009C93E111C2CFE82FC0CF2130F9F6C09051
:1027A000FA02D090FB02E090FC02F090FD02D6CF3E
:1027B00087EC089580E098E0089581E294E508951B
:1027C00044E00C94CC0C0F931F93CF93DF93EC0158
:1027D0008B011B8A1A8A4091B5015091B601609114
:1027E000B7017091B801488359836A837B831A8E3D
:1027F0001F8A1E8A1B8E0E942A0748E0B801CE015C
:102800000E942E0B8C01892B49F4488159816A81E1
:102810007B81CE010E942A0781E08A8FC801DF9167
:10282000CF911F910F9108950F931F93CF93DF9333
:10283000FC0140815181628173810091B501109149
:10284000B6012091B7013091B801401751076207D6
:102850007307D1F1EC01128E0E942A0768857985F1
:102860008A859B8543ED52E00E94240281112FC08E
:1028700040E050E0BA0140910D0350910E03809169
:10288000CC01823089F460910703709108034115EF
:1028900051056105710541F44091B5015091B601B2
:1028A0006091B7017091B801488359836A837B8333
:1028B000CE010E942A0781E08A8F90E080E0DF91BC
:1028C000CF911F910F9108958AE090E0F8CF8CE0AE
:1028D00090E0F5CFCF92DF92EF92FF920F931F938C
:1028E000CF93DF93EC018B01888D882339F08091A1
:1028F000D0019091D1018C179D07A1F028893989C9
:10290000688579858A859B85620F731F811D911D5E
:1029100043ED52E00E9424028111C4C0D093D10142
:10292000C093D001C12CD88C8091CA01D816B8F0C0
:10293000888999890196998B888BCE010E94D70945
:10294000892BE9F4188E88899989009719F00197E5
:10295000998B888BD093D101C093D001E4CF4D2DBA
:1029600050E0CA0125E0880F991F2A95E1F79C01E4
:102970002D523D4F7901F901908191110BC082E0F8
:1029800090E0DF91CF911F910F91FF90EF90DF903A
:10299000CF900895953E91F19E3281F19385F80193
:1029A00092A3983059F19F3059F52E893F8921150E
:1029B000310539F0215031098A899B8982179307A3
:1029C000E8F0CA010E94B60AC11018C0888599852E
:1029D000AA85BB85F801808B918BA28BB38BD0A28B
:1029E00088899989958F848F8C819D81AE81BF81E3
:1029F00084879587A687B787CC24C394D39494CF34
:102A0000C11009C060E08D2D0E94F00AF801108A03
:102A1000118A128A138A8A899B8901969B8B8A8BD9
:102A20006E897F898617970710F4C12CE7CFF701CD
:102A3000548D458D368D278DF8015483458336831B
:102A4000278330E020E0F701508D418DF801568B4F
:102A5000478BF70156894789F801548B458BF7015D
:102A6000528D438DE091CC01E23019F4F7013489A5
:102A70002589EB8DEE2321F0588349833A832B83FC
:102A8000F8015087418732872387D88E61157105F9
:102A900029F4D394D88E90E080E073CF86179707FF
:102AA00021F6F9CF8CE090E06CCF0F931F93CF937A
:102AB000DF93EC018B015F8B4E8B488159816A81DA
:102AC0007B810E942A07B801CE010E946A141F8AE6
:102AD0001E8ADF91CF911F910F910895CF92DF92BF
:102AE000FF920F931F93CF93DF93EC016B018A0149
:102AF0001A8EFF24F394FB8E488159816A817B8171
:102B00000E942A07A801B601CE010E9455158C012A
:102B1000892B79F41B8E1B8A1A8AF60182A184FF05
:102B200011C0488159816A817B81CE010E942A07A8
:102B3000FA8EC801DF91CF911F910F91FF90DF9026
:102B4000CF90089509E010E0F4CFCF93DF93EC012C
:102B50001D8A1C8A488159816A817B810E942A07CB
:102B600049E06BE871E0CE010E942E0B488159814B
:102B70006A817B81CE010E942A078C899D89DF9121
:102B8000CF91089545E00C94CC0CCF92DF92EF9258
:102B9000FF920F93CF93DF93EC0188819981AA81F3
:102BA000BB814C815D816E817F8184179507A6076B
:102BB000B70708F05BC02CA1222309F457C0892B6A
:102BC0008A2B8B2B01F5688579858A859B850E94E8
:102BD000B209188619861A861B866CE0CE010E94FF
:102BE0003A0ACE010E945C0788819981AA81BB8143
:102BF0008C839D83AE83BF836BE0CE010E943A0A33
:102C000090E080E013C06C857D858E859F8507E010
:102C100020E030E0A9010E943B086B017C01C11457
:102C2000D104E104F10451F48CE090E0DF91CF9104
:102C30000F91FF90EF90DF90CF9008952091AD011C
:102C40003091AE014091AF015091B0016C857D850E
:102C50008E859F8506E00E943B08672B682B692BB9
:102C600019F3C701B6010E94B209BECF87E090E018
:102C7000DDCF2F923F924F925F926F927F928F9211
:102C80009F92AF92BF92CF92DF92EF92FF920F93FB
:102C90001F93CF93DF93CDB7DEB7ED970FB6F894C0
:102CA000DEBF0FBECDBF9E01285D3F4F3DAB2CABBD
:102CB0002CE0ACA9BDA91D922A95E9F7FC01408042
:102CC000518062807380C12CD12C7601F28DFDAFD2
:102CD00047E0242E312CFF2309F468C05B018C01EE
:102CE000B301A2010E942A07198A1A8A1B8A1C8A28
:102CF000A501BE016F5F7F4FC8010E9455151C01E1
:102D0000892B09F053C02BA12AAF21702EAB3AAD0D
:102D100030FD66C189849A84AB84BC84D8015896FE
:102D2000EC91B0E2EB9FF0011124BF016D527D4F99
:102D3000DE019896CE01C3969D01FB014191BF0132
:102D4000F90141939F018E179F07B9F78EA9F0E80B
:102D50008F9FA00111249D918695890F840F8EABC2
:102D60002A173B0799F789899A89AB89BC8900970B
:102D7000A105B10599F0F80180879187A287B387F3
:102D80008D8D9E8D918B808B8D859E85AF85B8892D
:102D900084839583A683B78389A1808FC8010E940D
:102DA000D7098823E9F05CE0252E312CC101ED968E
:102DB0000FB6F894DEBF0FBECDBFDF91CF911F914C
:102DC0000F91FF90EF90DF90CF90BF90AF909F90CA
:102DD0008F907F906F905F904F903F902F900895CD
:102DE000F6E1FCAF1BAED8015896EC91B0E2EB9F38
:102DF000F0011124ED52FD4F83858F3009F042C060
:102E000085852EA98213F0C035EE3083D8015896FF
:102E10008C9158978F5F58968C939091CA0189171F
:102E200008F047C0BBADB11144C0ECADE150ECAF10
:102E3000E111D9CFEAADE4FFC3C089849A84AB84A1
:102E4000BC84B501A401C8010E942A071EAA1FAABA
:102E500018AE19AEBE016F5F7F4FC8010E946A14A1
:102E6000892B09F44EC0F80180819181A281B38140
:102E700088159905AA05BB0509F4A2C0C8010E94DE
:102E80001414E8CFC28CD38C8091CC01823011F421
:102E9000E488F58889859A85AB85BC85C816D906EE
:102EA000EA06FB0609F0A4C085EE80839DAD9BAFCA
:102EB000ADCFD80158961C92589718966D917D9178
:102EC0008D919C911B9761507109810991095096D0
:102ED0002D913C91620F731F811D911D43ED52E0B6
:102EE0000E94A6018091D202853009F05CCFBBAD73
:102EF000B111A0CFC8010E94D709882309F495CF4A
:102F000052CFD8015896EC91E150B0E2EB9FF0011E
:102F10001124ED52FD4F8485882319F0883109F082
:102F20006BC08F89988D892B09F466C0C984DA84B7
:102F3000EB84FC848BA184FF40C08EA99FA9A8AD1F
:102F4000B9AD8C159D05AE05BF0539F5D8018D913C
:102F50009D910D90BC91A02D8EAB9FABA8AFB9AF4A
:102F6000B5EEB083F801208931896085718582854D
:102F70009385620F731F811D911D43ED52E00E94E6
:102F8000A6018091D202853009F00DCF69857A853E
:102F90008B859C850E94B2095DCFD801CD92DD92D0
:102FA000ED92FC921397B701A601C8010E942A076F
:102FB000CEAADFAAE8AEF9AE4DCFC701B601EACF7F
:102FC000C501B4010E94B209D8014D925D926D9283
:102FD0007C921397B301A201C8010E942A07E6CE92
:102FE0003DE0232E312CE2CE2EE0222E312CDECEFF
:102FF00096E0292E312CDACE8FE0282E312CD6CE39
:103000000F931F93CF93DF93EC018B01488159817C
:103010006A817B810E942A074AE0B801CE010E94A2
:103020002E0B009749F46A897B89CE01DF91CF91FD
:103030001F910F910C943916DF91CF911F910F9131
:103040000895CF93DF93EC018CA1882399F18DA192
:10305000811130C02C8D3D8D688D798D8A8D9B8D31
:10306000620F731F811D911D43ED52E00E94A60166
:103070008091D202853009F58BA1811107C081E0D2
:103080008DA390E080E0DF91CF9108954881598130
:103090006A817B818C819D81AE81BF818417950778
:1030A000A607B70760F76BE0CE010E943A0A0097C7
:1030B00031F3E9CF87E090E0E6CF8CE090E0E3CF1A
:1030C0004F925F926F927F928F929F92AF92BF9238
:1030D000CF92DF92EF92FF920F931F93CF93DF93E4
:1030E00000D000D0CDB7DEB719821A821B821C82B5
:1030F000D9011D921C92DC019496EC91EE2309F407
:1031000043C159017A016B018C01FC0180859185D5
:10311000A285B385892B8A2B8B2BE1F0D80195965C
:103120008C91882309F45DC0F80115A2248D358D9A
:10313000608D718D828D938D620F731F811D911D26
:1031400043ED52E00E942402882309F44AC08CE037
:1031500090E032C04091AD015091AE016091AF015D
:103160007091B001CE0101960E942209009721F5CD
:1031700049805A806B807C80F80140865186628647
:1031800073864486558666867786C301B2010E949F
:103190000707F801608F718F828F938F158E148EC1
:1031A00041E0C301B2010E94910C6CE0C8010E9491
:1031B0003A0A009709F4B2CF0F900F900F900F903A
:1031C000DF91CF911F910F91FF90EF90DF90CF9003
:1031D000BF90AF909F908F907F906F905F904F9037
:1031E0000895D80196968C9196978823E9F01C96BD
:1031F0004D915D916D917C911F97CE0101960E943A
:1032000022090097C9F6F80116A269817A818B819B
:103210009C8164877587868797870E940707F801D6
:10322000608F718F828F938FEC0CFD1C4601772489
:103230007394C4018C199D09E814F90431F4D50183
:103240008D939C9390E080E0B7CFD8015E968D91EE
:103250009C918115924008F46FC0F801178E168E6C
:1032600013A2C8010E942118009709F0A5CFD80128
:103270005C968D919C915D9701965D969C938E9343
:103280005C9795961C92959793967C929397209134
:10329000CD012817190609F088F51C968D919D918E
:1032A0000D90BC91A02D89839A83AB83BC83C80108
:1032B0000E947009F80186A1882301F149815A8191
:1032C0006B817C81CE0101960E942209009709F052
:1032D00073CFD80196961C9269817A818B819C81EB
:1032E000F80164877587868797870E940707D8014A
:1032F00058966D937D938D939C935B97F8014081D5
:1033000051816281738184819581A681B78148173B
:1033100059076A077B0780F5248D358D608D718D87
:10332000828D938D620F731F811D911D43ED52E0BD
:103330000E94240281110BCFD8015E968D919C9141
:103340005F979C012F5F3F4F5F963C932E935E9754
:10335000F40121914F018D529D4FDC012C93F80116
:1033600080819181A281B3810196A11DB11D8083CD
:103370009183A283B3835DCFE3EDF2E0119224E069
:10338000E33DF207D9F7D8CF87E090E015CFCF9390
:10339000DF9300D0CDB7DEB7FB0101900020E9F745
:1033A0003197AF01461B570B9E012F5F3F4F0E9485
:1033B00060180F900F90DF91CF9108958F929F9298
:1033C000AF92BF92CF92DF92EF920F931F93CF9362
:1033D000DF93CDB7DEB76A970FB6F894DEBF0FBEA6
:1033E000CDBF6C014A015B01E22E00E09E012F5F20
:1033F0003F4FAE01425F5F4FCB01B4010E94A11C61
:1034000020E030E0A901C501B4010E943E1F87FF02
:1034100005C06FE971E0C6010E94C719BE01625F75
:103420007F4FC6010E94C719182F61EA71E0C601DB
:103430000E94C719182BBE016F5F7F4FC6010E9403
:10344000C719812BA1F490E080E06A960FB6F8943A
:10345000DEBF0FBECDBFDF91CF911F910F91EF90D7
:10346000DF90CF90BF90AF909F908F9008958CE0A9
:1034700090E0EBCF0F931F93CF93DF93CDB7DEB7E1
:103480002C970FB6F894DEBF0FBECDBF8C01CB01D9
:10349000BA0120E0AE014F5F5F4F0E94271CBE01C2
:1034A0006F5F7F4FC8010E94C7192C960FB6F89422
:1034B000DEBF0FBECDBFDF91CF911F910F91089559
:1034C000EF92FF920F931F93CF93DF93FB0114A210
:1034D000FC01228D2223C9F17A018B01EC0140818C
:1034E0005181628173810E942A074AE0B701CE01AF
:1034F0000E942E0B7C01892B01F54A895B89B8015A
:10350000CE010E9455157C01892BB9F4288939898F
:1035100088859985AA85BB85820F931FA11DB11D42
:10352000F801808B918BA28BB38B888D80A381E077
:1035300085A383A3C8010E945C07C701DF91CF91D7
:103540001F910F91FF90EF90089587E0E82EF12CE6
:10355000F4CF0F931F93CF93DF93FB0114A2FC01D1
:10356000228D07E010E0222339F0EB010E9455156F
:103570008C01CE010E945C07C801DF91CF911F91A1
:103580000F910895CF93DF93EC012091CD018C8DA5
:103590009D8D2817190609F018F4CE010E947009B4
:1035A0008EA1811112C02C8D3D8D688D798D8A8DF3
:1035B0009B8D620F731F811D911D43ED52E00E9490
:1035C0002402882329F08CE089A390E080E00BC0DE
:1035D0008C8D9D8D01969D8F8C8F8E8D9F8D1F8ED6
:1035E0001E8E8D529D4FDF91CF910895FC01608119
:1035F00071818281938108954F925F926F927F9241
:103600008F929F92AF92BF92CF92DF92EF92FF92F2
:10361000CF93DF9300D000D000D0CDB7DEB79A8330
:1036200089832A013B01FC0184819581A681B781B0
:1036300084159505A605B70508F46DC0A090BD01D9
:10364000B090BE01950150E040E0CB01B2010E9474
:10365000D61D69017A01A29EC001A39E900DB29E63
:10366000900D11249201281B390BA981BA815F9614
:103670003C932E935E972091CD0130E050E040E0E6
:10368000C701B6010E94D61D49015A018114910457
:10369000A104B10409F06B01E981FA81FE83ED8395
:1036A00080859185A285B38584879587A687B7870E
:1036B00081149104A104B104E9F0AD81BE811C968E
:1036C0008D919D910D90BC91A02D89839A83AB83A0
:1036D000BC838D819E810E947009ED81FE8186A14F
:1036E000882371F189819A81AB81BC818487958718
:1036F000A687B78781E0AD81BE8195968C9395971B
:103700005D96DC92CE925C97FD014082518262828E
:10371000738216A211A226960FB6F894DEBF0FBED2
:10372000CDBFDF91CF91FF90EF90DF90CF90BF9012
:10373000AF909F908F907F906F905F904F90089583
:10374000F1E08F1A9108A108B108B2CFFC014481C1
:103750005581668177810C94FC1A0F931F93FC01AD
:1037600086A1811113C081E0008111812281338102
:10377000448155816681778104171507260737072D
:1037800008F480E081701F910F91089581E0FACFD5
:10379000FC0181A10895FC0111A2089582ED91E040
:1037A0000895FC01828993890895FC0164817581E3
:1037B000868197810895FC012789822F869590E064
:1037C0008454984F0895FC018689978925E0969541
:1037D00087952A95E1F78F700895FC0186898F718E
:1037E0000895FC0185898695869586950895FC0146
:1037F0008489958925E0969587952A95E1F78F73B9
:103800000895FC018489880F8E730895FC0182A1BC
:10381000829581700895FC0182A18295817091E06A
:1038200089270895FC0182A1869581700895FC0185
:1038300082A182FB882780F90895FC0182A1817012
:103840000895FC0182A185FB882780F908954F9295
:103850005F926F927F929F92AF92BF92CF92DF92D0
:10386000EF92FF920F931F93CF93DF936B017C0135
:103870008A01C22FAC019B01D0E09AE0492E512C65
:10388000612C712C211531054105510521F5C1141B
:10389000D104E104F10409F4D1E0CD1BC7FDC0E07F
:1038A000912CF7FE0BC0F094E094D094C094C11C0E
:1038B000D11CE11CF11CDF5F99249394CD0FCC3017
:1038C00020F4F801EC0FF11D10828AE0482E512CF3
:1038D000612C712C1FC0DF5FCA01B901A3019201E5
:1038E0000E94F81DCFCFC150CC3060F45801AC0E0F
:1038F000B11CC701B601A30192010E94F81D605DD1
:10390000F5016083C701B601A30192010E94F81D71
:1039100069017A01C111E7CF992019F08DE2F80110
:103920008083DF91CF911F910F91FF90EF90DF90F7
:10393000CF90BF90AF909F907F906F905F904F908F
:1039400008954F925F926F927F928F929F92AF9263
:10395000BF92CF92DF92EF920F931F93CF93DF939B
:103960004B015C016A01E9011E2D412C512C612C97
:103970008FE3782E111143C020E030E0A901C5018A
:10398000B4010E943E1F87FF04C0B7FAB094B7F895
:10399000B094A3019201C501B4010E94D21E4B0153
:1039A0005C010E94B51F2B013C010E94ED1F9B0191
:1039B000AC01C501B4010E94D11E4B015C011E2D5A
:1039C000111129C0202FA601C301B2010E94271C9A
:1039D000C501B4010E94B51F2E2DAE01DF91CF911C
:1039E0001F910F91EF90DF90CF90BF90AF909F907D
:1039F0008F907F906F905F904F900C94271C20E0E9
:103A000030E040E251E4C301B2010E94431F2B01A8
:103A10003C011150AFCF20E030E040E251E4C5015D
:103A2000B4010E94E0204B015C011150C9CF97FF07
:103A300003C09195819591090895CF93DF9370E02C
:103A4000AC01460F571F30E020E061507109FB01C7
:103A5000E21BF30B2E173F0718F0DF91CF9108956B
:103A6000FC01A191CF0141505109FA01B081EC0153
:103A70002197B883A0832F5F3F4FE9CFCF93DF9388
:103A8000CDB7DEB7C355D1090FB6F894DEBF0FBE70
:103A9000CDBF2FEF8FE493EC215080409040E1F7B1
:103AA00000C0000083E0E82E00E020E140E050E0AC
:103AB00066E176E480E091E00E94B8020E94141171
:103AC000811139C066E671E080E091E00E94150442
:103AD00064961CAE1DAE1EAE1FAE6497BE01605B49
:103AE0007F4FCE018C5B9F4F0E94741366E771E09D
:103AF00080E091E00E941504BE016C5B7F4F80E086
:103B000091E00E94150468E871E080E091E00E9475
:103B100015046CE871E0CE0188960E94E3138111D0
:103B20000AC0CE0188960E94A5157C0110E000E035
:103B30000E151F0551F42FEF83ED90E321508040C7
:103B40009040E1F700C00000F6CFBE016F5F7F4FED
:103B5000CE0188960E946A14CE0101960E94061C2E
:103B600061E971E0811102C069E971E080E091E0F2
:103B70000E9415040E94CE1BBC0180E091E00E94CF
:103B8000150469E871E080E091E00E9415040F5F80
:103B90001F4FCECF991B79E004C0991F961708F0EC
:103BA000961B881F7A95C9F780950895A1E21A2E71
:103BB000AA1BBB1BFD010DC0AA1FBB1FEE1FFF1FD1
:103BC000A217B307E407F50720F0A21BB30BE40B21
:103BD000F50B661F771F881F991F1A9469F7609568
:103BE0007095809590959B01AC01BD01CF01089522
:103BF000052E97FB1EF400940E940F1E57FD07D060
:103C00000E94D61D07FC03D04EF40C940F1E509555
:103C10004095309521953F4F4F4F5F4F08959095B8
:103C20008095709561957F4F8F4F9F4F08950E94AB
:103C3000C21EA59F900DB49F900DA49F800D911D55
:103C400011240895DF93CF931F930F939A9DF02D26
:103C5000219FF00D8B9DF00D8A9DE02DF10D039FAE
:103C6000F00D029FE00DF11D4E9DE00DF11D5E9DDA
:103C7000F00D4F9DF00D7F936F93BF92AF925F93C6
:103C80004F93D5010E94C21E8B01AC01D7010E9447
:103C9000C21EEB01E80FF91FD6010E94711E2F9181
:103CA0003F91D6010E94C21EC60FD71FE81FF91F01
:103CB000AF91BF910E94711E2F913F910E94C21E31
:103CC000C60FD71FE81FF91FD6010E94C21EE60FBC
:103CD000F71F9801BE01CF010F911F91CF91DF9186
:103CE00008950E94C21E460F571FC81FD91F08F40F
:103CF00031960895E894DF93CF93FC01DB010E9495
:103D0000C21E7F936F93E9019A01AC01BF93AF93F9
:103D10003F932F93DF010E94C21E26F46C1B7D0B84
:103D2000820B930B9E01EB01FC010E94711EAF916F
:103D3000BF912F913F910E94711EBE01CF01F901E9
:103D40002F913F91CF91DF91089597FD1094002E10
:103D5000083098F00850232F342F452F562F672F07
:103D6000782F892F912DF4CF159497958795779576
:103D7000679557954795379527950A95AAF7112482
:103D8000002D0895A29FB001B39FC001A39F700DA5
:103D9000811D1124911DB29F700D811D1124911D53
:103DA00008955058BB27AA270E94E91E0C94A12011
:103DB0000E94932038F00E949A2020F039F49F3F0F
:103DC00019F426F40C9490200EF4E095E7FB0C9483
:103DD0008A20E92F0E94B22058F3BA1762077307AE
:103DE0008407950720F079F4A6F50C94D4200EF4FE
:103DF000E0950B2EBA2FA02D0B01B90190010C01FB
:103E0000CA01A0011124FF27591B99F0593F50F412
:103E1000503E68F11A16F040A22F232F342F44276A
:103E2000585FF3CF469537952795A795F040539562
:103E3000C9F77EF41F16BA0B620B730B840BBAF032
:103E40009150A1F0FF0FBB1F661F771F881FC2F79D
:103E50000EC0BA0F621F731F841F48F487957795B1
:103E60006795B795F7959E3F08F0B0CF9395880F6B
:103E700008F09927EE0F9795879508950E94662080
:103E800008F481E008950E94571F0C94A1200E941D
:103E90009A2058F00E94932040F029F45F3F29F0C7
:103EA0000C948A2051110C94D5200C9490200E94DF
:103EB000B22068F39923B1F3552391F3951B550B69
:103EC000BB27AA2762177307840738F09F5F5F4FED
:103ED000220F331F441FAA1FA9F335D00E2E3AF02C
:103EE000E0E832D091505040E695001CCAF72BD044
:103EF000FE2F29D0660F771F881FBB1F2617370795
:103F00004807AB07B0E809F0BB0B802DBF01FF27C6
:103F100093585F4F3AF09E3F510578F00C948A20F9
:103F20000C94D5205F3FE4F3983ED4F386957795C3
:103F30006795B795F7959F5FC9F7880F911D96957F
:103F4000879597F90895E1E0660F771F881FBB1FDB
:103F5000621773078407BA0720F0621B730B840B88
:103F6000BA0BEE1F88F7E09508950E94BC1F689475
:103F7000B1110C94D52008950E94BA2088F09F5763
:103F800098F0B92F9927B751B0F0E1F0660F771F7D
:103F9000881F991F1AF0BA95C9F714C0B13091F073
:103FA0000E94D420B1E008950C94D420672F782F7C
:103FB0008827B85F39F0B93FCCF386957795679538
:103FC000B395D9F73EF490958095709561957F4FA4
:103FD0008F4F9F4F0895E89409C097FB3EF490954A
:103FE0008095709561957F4F8F4F9F4F9923A9F0D2
:103FF000F92F96E9BB279395F69587957795679561
:10400000B795F111F8CFFAF4BB0F11F460FF1BC0A4
:104010006F5F7F4F8F4F9F4F16C0882311F096E937
:1040200011C0772321F09EE8872F762F05C06623E5
:1040300071F096E8862F70E060E02AF09A95660F9E
:10404000771F881FDAF7880F9695879597F9089557
:10405000E894F92F96EBFF2381F01216130614064D
:10406000440B9395F69587957795679557954040BE
:10407000FF23B9F71BC099270895882351F498505E
:10408000D2F7872B762F652F542F432F322F20E026
:10409000B1F3121613061406440B88233AF09A95CE
:1040A000440F551F661F771F881FCAF755234AF410
:1040B000440F551F11F460FF04C06F5F7F4F8F4F97
:1040C0009F4F880F9695879597F90895990F000847
:1040D000550FAA0BE0E8FEEF16161706E807F907DA
:1040E000C0F012161306E407F50798F0621B730B75
:1040F000840B950B39F40A2661F0232B242B252BF6
:1041000021F408950A2609F4A140A6958FEF811D98
:10411000811D089597F99F6780E870E060E0089539
:104120009FEF80EC089500240A94161617061806CF
:104130000906089500240A941216130614060506AB
:104140000895092E0394000C11F4882352F0BB0F3C
:1041500040F4BF2B11F460FF04C06F5F7F4F8F4F9F
:104160009F4F089557FD9058440F551F59F05F3FDA
:1041700071F04795880F97FB991F61F09F3F79F089
:1041800087950895121613061406551FF2CF46950B
:10419000F1DF08C0161617061806991FF1CF86958D
:1041A0007105610508940895E894BB276627772771
:1041B000CB0197F908950E94662008F48FEF0895C7
:1041C0000E94F3200C94A1200E94932038F00E94BA
:1041D0009A2020F0952311F00C948A200C949020C2
:1041E00011240C94D5200E94B22070F3959FC1F346
:1041F000950F50E0551F629FF001729FBB27F00D95
:10420000B11D639FAA27F00DB11DAA1F649F6627E9
:10421000B00DA11D661F829F2227B00DA11D621F38
:10422000739FB00DA11D621F839FA00D611D221FF2
:10423000749F3327A00D611D231F849F600D211DD6
:10424000822F762F6A2F11249F5750409AF0F1F059
:1042500088234AF0EE0FFF1FBB1F661F771F881FC2
:1042600091505040A9F79E3F510580F00C948A2050
:104270000C94D5205F3FE4F3983ED4F38695779570
:104280006795B795F795E7959F5FC1F7FE2B880F68
:0E429000911D9695879597F90895F894FFCFA4
:10429E004B010000000000000000000000000000C4
:1042AE000000000000000000000000000000000000
:1042BE0000000000000000000000000000000000F0
:1042CE0000000000000000000000000000000000E0
:1042DE000000000000000000000000C000C100C28D
:1042EE0000C400C500C60001060401020204030555
:1042FE0007050007060043617264206D6F756E74CA
:10430E0065642E0A0D00566F6C756D65206C6162CA
:10431E00656C2069733A20000A0A0D004C6F6773B2
:10432E0000666F6C6465723A0066696C653A002DC2
:04433E00002E00004D
:00000001FF
