:100000000C9434000C9451000C9451000C94510049
:100010000C9451000C9451000C9451000C9451001C
:100020000C9451000C9451000C9451000C9451000C
:100030000C9451000C94E3000C9451000C9451006A
:100040000C9451000C9451000C9451000C945100EC
:100050000C9451000C9451000C9451000C945100DC
:100060000C9451000C94510011241FBECFEFD8E026
:10007000DEBFCDBF11E0A0E0B1E0E8E1F4E002C0F6
:1000800005900D92A630B107D9F721E0A6E0B1E0C6
:1000900001C01D92A031B207E1F70E9494010C94B7
:1000A0000A020C9400008DE38093850088E0809321
:1000B00084001092800083E08093810081E080932F
:1000C0006F00789408950E948B010E946B0180ED6F
:1000D0000E9473018EE00E94730180E00E94730110
:1000E0000E9467010E946B0180ED0E9473018BE604
:1000F0000E94730181E00E9473010E9467010E94C7
:100100006B0180ED0E9473018BE10E94730180EE10
:100110000E9473010E9467010E946B0180ED0E94A2
:10012000730183E20E94730184E00E9473010C94C6
:100130006701FF920F931F93CF93DF93EC018B0125
:10014000F42E0E946B0180ED0E9473018F2D0E949E
:1001500073010E9467010E946B0181ED0E9473018F
:1001600081E00E947D01888380E00E947D01F8018A
:100170008083988190930C0180930B01DF91CF9144
:100180001F910F91FF900C94670180910B0190914A
:100190000C0190930A018093090143E468E071E047
:1001A0008FE091E00E94990080910B0190910C01E9
:1001B0002091090130910A01821B930B9093070152
:1001C0008093060108951F920F920FB60F9211248B
:1001D0002F933F934F935F936F937F938F939F934F
:1001E000AF93BF93EF93FF938DE38093850088E0F7
:1001F000809384000E94C500FF91EF91BF91AF9161
:100200009F918F917F916F915F914F913F912F912E
:100210000F900FBE0F901F901895FC018081948164
:1002200090838483818193819183838308950F9345
:100230001F93CF93DF93EB0120E297FF04C09195CA
:10024000819591092DE228839E012F5F3F4FE1E0C8
:10025000F0E00AE010E03196B8010E94E201805D12
:10026000D9018D939D01CB0118161906A4F3EC0F4B
:10027000FD1F20E3CF018C1B9D0B069744F01082DD
:10028000CE01DF91CF911F910F910C940D0121931D
:10029000F1CF88E08093C10086E08093C20087E6BA
:1002A0008093C40008959091C00095FFFCCF809387
:1002B000C6000895CF93C82F82958F70805D0E94ED
:1002C00053018C2F8F70805DCF910C94530184E982
:1002D0008093BC00089584EA8093BC008091BC00A8
:1002E00087FFFCCF08958093BB0084E88093BC0017
:1002F0008091BC0087FFFCCF089520E4829FC0015D
:10030000112484688093BC008091BC0087FFFCCFDF
:100310008091BB0008951092B90088E98093B800DD
:1003200084E08093BC0008950E9453000E94630003
:100330002FEF83EC99E0215080409040E1F700C01E
:1003400000000E94490184E70E94530180910D0141
:1003500090910E012091060130910701820F931FA9
:1003600090930E0180930D0160E071E00E941701EF
:1003700084E70E9453018AE30E94530180910001A7
:100380000E945301809101010E945301809102015A
:100390000E945301809103010E9453018091040146
:1003A0000E9453018AE00E9453018DE00E94530194
:1003B0002FEF83EC99E0215080409040E1F700C09E
:1003C0000000C4CF97FB072E16F4009407D077FDEA
:1003D00009D00E94F60107FC05D03EF49095819566
:1003E0009F4F0895709561957F4F0895AA1BBB1B81
:1003F00051E107C0AA1FBB1FA617B70710F0A61B25
:10040000B70B881F991F5A95A9F780959095BC0145
:08041000CD010895F894FFCF1F
:06041800303030303000EE
:00000001FF
