:100000000C94A4110C94C1110C94C1110C94C11145
:100010000C94C1110C94C1110C94C1110C94C11118
:100020000C94C1110C94C1110C94C1110C94C11108
:100030000C94C1110C94C1110C94C1110C94C111F8
:100040000C94C1110C94C1110C94B7130C94C111F0
:100050000C94C1110C94C1110C94C1110C94C111D8
:100060000C94C1110C94C1110700000000000000A5
:100070000000000000000000000000000000000080
:100080000000000000000000000000000000000070
:100090000000000000000000000008000000000058
:1000A00000000000000000007C000000FF003300A2
:1000B000FF003300FF0033007C0000000000000060
:1000C0000000000000000000000000000900000027
:1000D0000000000000003C0000003C0000003C006C
:1000E0000000000000003C0000003C0000003C005C
:1000F00000000000000000000000000000000C00F4
:100100000000020010001E0090001F00F0001F0001
:10011000FE0003007E001E009E001F00F0001F0076
:10012000FE0003007E0002001E0000001000000020
:100130000A000000000078000400FC000C00FC0035
:100140000C00FF003F00FF003F00FF003F00CC001D
:100150000F00CC000F008800070000000000000026
:1001600000000C00000030003800380038003C006F
:1001700038001E0038000F0080000700C000030098
:10018000E0003900F0003800780038003C0038000A
:100190001C0000000B000000000000001F00B80061
:1001A0003F00FC003F00FE003100E6003700FE008B
:1001B0003F003E001E001C003E0000003600000014
:1001C0002200000000000700000000000000000006
:1001D00000000000270000003F0000003F0000007A
:1001E0001F000000000000000000000000000000F0
:1001F00000000000000000000900000000000000F6
:100200000000F0000300FC000F00FE001F00FF00D4
:100210003F0007003800010020000100200000001E
:1002200000000000000000000000090000000000C5
:10023000000000000100200001002000070038003D
:10024000FF003F00FE001F00FC000F00F000030055
:100250000000000000000000000000000A00000094
:10026000000098000C00B8000E00F8000F00F80025
:100270000F00F8000F00F8000F00F8000F00B800A2
:100280000E0098000C0000000000000000000A00B2
:1002900000000000800001008000010080000100DB
:1002A000F0000F00F0000F00F0000F0080000100D0
:1002B000800001008000010000000000000000003C
:1002C0000700000000000000000000000000000027
:1002D000B8000000F8000000F800000078000000FE
:1002E000000000000000000000000000000000000E
:1002F00000000A00000000008000010080000100F2
:1003000080000100800001008000010080000100E9
:10031000800001008000010080000100000000005A
:1003200000000000070000000000000000000000C6
:100330000000000038000000380000003800000015
:100340003800000000000000000000000000000075
:100350000000000000000C000000180000001C005D
:1003600000001E0000000F0080000700C000030016
:10037000E0000100F0000000780000003C000000F8
:100380001E0000000E0000000C00F8000700FE0038
:100390001F00FE001F0007003F0083003300C30062
:1003A0003100E3003000730030003F003800FE00F1
:1003B0001F00FE001F00F80007000B0000000000F7
:1003C000000000000C0030000C0030000E00300077
:1003D000FF003F00FF003F00FF003F000000300033
:1003E0000000300000003000000000000C001C0085
:1003F00030001E0038001F003C0007003E000300D4
:100400003F0083003700C3003300E3003100F700F2
:1004100030007F0030003E0030001C0030000C0037
:100420000C000C000E001C000F003C00C700380040
:10043000C3003000C3003000C3003000C3003000F0
:10044000E7003900FF003F007E001F003C000E0067
:100450000C00C0000300E0000300F000030078007F
:1004600003003C0003001E0003000F000300FF0018
:100470003F00FF003F00FF003F00000003000000BE
:1004800003000C003F000C007F001C007F003C00BC
:100490006300380063003000630030006300300008
:1004A00063003000E3003800E3003F00C3001F009A
:1004B00083000F000C00C0000F00F0001F00F800C8
:1004C0003F00FC003900DE003000CF003000C700E4
:1004D0003000C3003000C3003900C3003F0080007B
:1004E0001F0000000F000C000300000003000000CC
:1004F000030000000300300003003C0003003F0045
:10050000C3000F00F3000300FF0000003F000000E5
:100510000F000000030000000C0000000F00BC00F2
:100520001F00FE003F00FF003900E7003000C3005D
:100530003000C3003000E7003000FF003900FE004B
:100540003F00BC001F0000000F000C003C0000003A
:100550007E000000FF003000E7003000C3003000E4
:10056000C3003800C3003C00C3001E00E7000F00BA
:10057000FF000700FE000300FC0000000700000071
:100580000000000000000000000070001C0070006F
:100590001C0070001C0070001C0000000000000027
:1005A0000000000000000000000000000000070044
:1005B00000000000000000000000000070009C002F
:1005C0007000FC007000FC0070007C000000000067
:1005D000000000000000000000000000000000001B
:1005E0000A0000000000C0000000E0000100F00070
:1005F0000300F80007003C000F001E001E000F0063
:100600003C0007003800030030000000000000003C
:1006100000000B0000000000600006006000060003
:100620006000060060000600600006006000060032
:100630006000060060000600600006006000060022
:10064000000000000A000000000003003000070066
:1006500038000F003C001E001E003C000F00F80098
:100660000700F0000300E0000100C00000000000EF
:100670000000000000000B001C0000001E00000035
:100680001F0000000700000083003700C300370090
:10069000E3003700F70000007F0000003E0000008C
:1006A0001C000000000000000B00FC000F00FE001A
:1006B0001F0007001C00E3003900F30033003B007B
:1006C00033001B0033009B003300F3003100FF00B8
:1006D0003300FE000300000000000B0000003800A3
:1006E00000003F00E0003F00FC000700FF000600A4
:1006F0001F000600FF000600FC000700E0003F00AE
:1007000000003F0000003800000000000B00FF0068
:100710003F00FF003F00FF003F00C3003000C30068
:100720003000C3003000E7003000FF003900FE0059
:100730003F00BC001F0000000F00000000000B0085
:10074000F0000300FC000F00FE001F000F003C0043
:1007500007003800030030000300300007003800B5
:100760000F003C000E001C000C000C0000000000FC
:100770000B00FF003F00FF003F00FF003F000300B1
:1007800030000300300003003000070038000F0085
:100790003C00FE001F00FC000F00F0000300000002
:1007A00000000B00FF003F00FF003F00FF003F0084
:1007B000C3003000C3003000C3003000C30030006D
:1007C000C3003000C30030000300300003003000DD
:1007D000000000000B00FF003F00FF003F00FF0093
:1007E0003F00C3000000C3000000C3000000C300BE
:1007F0000000C3000000C30000000300000003006D
:100800000000000000000B00F0000300FC000F00DF
:10081000FE001F000F003C0007003800C30030003E
:10082000C3003000C3003000C7003F00C7003F00D6
:10083000C6003F00000000000B00FF003F00FF006B
:100840003F00FF003F00C0000000C0000000C000EB
:100850000000C0000000C0000000FF003F00FF00DB
:100860003F00FF003F000000000009000000000002
:10087000000000000300300003003000FF003F00D4
:10088000FF003F00FF003F00030030000300300086
:100890000000000000000000000000000B0000004D
:1008A0000E0000001E0000003E00000038000000A6
:1008B0003000000030000000300000003800FF0071
:1008C0003F00FF001F00FF000700000000000B00BA
:1008D000FF003F00FF003F00FF003F00E00001007D
:1008E000F0000300F80007003C000F001E001E008F
:1008F0000F003C000700380003003000000000003B
:100900000B00FF003F00FF003F00FF003F00000022
:100910003000000030000000300000003000000017
:100920003000000030000000300000003000000007
:1009300000000B00FF003F00FF003F00FF003F00F2
:100940007E000000F8000100E0000100F800010056
:100950007E000000FF003F00FF003F00FF003F005F
:10096000000000000B00FF003F00FF003F00FF0001
:100970003F003E000000F8000000F0000300C0004F
:10098000070000001F00FF003F00FF003F00FF00C6
:100990003F00000000000B00F0000300FC000F000F
:1009A000FE001F000F003C0007003800030030006D
:1009B000070038000F003C00FE001F00FC000F0085
:1009C000F0000300000000000B00FF003F00FF00EC
:1009D0003F00FF003F00830001008300010083000F
:1009E000010083000100C7000100FF000100FE00BC
:1009F00000007C000000000000000B00F00003007D
:100A0000FC000F00FE001F000F003C000700380034
:100A100003003200070036000F003C00FE001F00FC
:100A2000FC003F00F0002300000000000B00FF006E
:100A30003F00FF003F00FF003F00830001008300F4
:100A400003008300070083000F00C7001F00FF00A2
:100A50003D00FE0038007C003000000000000B006C
:100A60003C000C007E001C00FF003C00E70038004A
:100A7000C3003000C3003000C3003000C70039009D
:100A8000CF003F008E001F000C000F000000000090
:100A90000A00000000000300000003000000030043
:100AA0000000FF003F00FF003F00FF003F00030089
:100AB0000000030000000300000000000000000030
:100AC00000000B00FF000700FF001F00FF003F00B9
:100AD000000038000000300000003000000030004E
:100AE00000003800FF003F00FF001F00FF0007006C
:100AF000000000000B00070000003F000000FF00A6
:100B00000100F8000F00C0003F0000003E00C000E0
:100B10003F00F8000F00FF0001003F000000070049
:100B20000000000000000B00FF003F00FF003F003E
:100B3000FF003F0000001E0080000700800003004F
:100B40008000070000001E00FF003F00FF003F0084
:100B5000FF003F00000000000B00030030000F000A
:100B60003C001F003E003C000F00F0000300E000CE
:100B70000100F00003003C000F001F003E000F00CA
:100B80003C0003003000000000000B0003000000E8
:100B90000F0000003F000000FC000000F0003F00DC
:100BA000C0003F00F0003F00FC0000003F000000DC
:100BB0000F00000003000000000000000B00030015
:100BC000300003003C0003003E0003003F00C30070
:100BD0003300E3003100F30030003F0030001F001D
:100BE00030000F003000030030000000000009005A
:100BF0000000000000000000FF003F00FF003F0079
:100C0000FF003F000300300003003000030030000D
:100C100003003000000000000000000000000000A1
:100C20000C000E0000001E0000003C0000007800D8
:100C30000000F0000000E0000100C00003008000A0
:100C4000070000000F0000001E0000001C00000054
:100C50001800090000000000000000000300300040
:100C6000030030000300300003003000FF003F00AD
:100C7000FF003F00FF003F000000000000000000F8
:100C8000000000000C006000000070000000780010
:100C900000003C0000001E0000000F0000000F00DC
:100CA00000001E0000003C00000078000000700002
:100CB0000000600000000C000000C0000000C00048
:100CC0000000C0000000C0000000C0000000C00024
:100CD0000000C0000000C0000000C0000000C00014
:100CE0000000C0000000C00008000000000000007C
:100CF000000000000000000000003E0000007E0038
:100D000000007E0000004E00000000000000000017
:100D1000000000000000000000000B0000001C00AC
:100D200040003E0060003F00600033006000330080
:100D3000600033006000330060003300E0003F00DB
:100D4000E0003F00C0003F00000000000B00FF007B
:100D50003F00FF003F00FF003F00E0003000600068
:100D600030006000300060003000E0003800E0003B
:100D70003F00C0001F0080000F00000000000B00BB
:100D800080000F00C0001F00E0003F00E0003800BE
:100D90006000300060003000600030006000300013
:100DA000E0003800C00018008000080000000000CB
:100DB0000B0080000F00C0001F00E0003F00E000BB
:100DC00038006000300060003000E0003000E000DB
:100DD0003000FF003F00FF003F00FF003F00000029
:100DE00000000B0080000F00C0001F00E0003F006B
:100DF000E0003B006000330060003300600033001F
:100E000060003300E0003300C000130080000100E8
:100E1000000000000900C0000000C0000000FC004D
:100E20003F00FE003F00FF003F00C7000000C3007E
:100E30000000C300000003000000000000000000EC
:100E40000000000000000B0080000300C000C7008D
:100E5000E000CF00E000CE006000CC006000CC00DD
:100E60006000CC006000EE00E000FF00E0007F00CA
:100E7000E0003F00000000000A00FF003F00FF000C
:100E80003F00FF003F00E000000060000000600045
:100E90000000E0000000E0003F00C0003F008000D4
:100EA0003F000000000000000000090000000000FA
:100EB000000000000000300060003000EC003F0047
:100EC000EC003F00EC003F0000003000000030006C
:100ED0000000000000000000000000000900000009
:100EE000000000000000000060000000E0000000C2
:100EF000E0006000C000EC00FF00EC00FF00EC0030
:100F00007F000000000000000000000000000A0058
:100F100000000000FF003F00FF003F00FF003F0017
:100F200080000700C0000F00E0001F00E0003C0050
:100F300060003800000030000000000000000000E9
:100F40000900000000000000000000003000030065
:100F50003000FF003F00FF003F00FF003F000000A7
:100F60003000000030000000000000000000000021
:100F700000000B00E0003F00E0003F00E0003F0009
:100F8000E0000000E0003F00C0003F00E0003F0044
:100F9000E0000000E0003F00C0003F0080003F0094
:100FA000000000000B0000000000E0003F00E00037
:100FB0003F00E0003F0060000000600000006000B3
:100FC0000000E0000000E0003F00C0003F008000A3
:100FD0003F00000000000B0080000F00C0001F0059
:100FE000E0003F00E00038006000300060003000AA
:100FF00060003000E0003800E0003F00C0001F004B
:1010000080000F00000000000B00E000FF00E00087
:10101000FF00E000FF0060001C006000180060009E
:10102000180060001800E0001C00E0001F00C00075
:101030000F0080000700000000000B008000070088
:10104000C0000F00E0001F00E0001C00600018005E
:10105000600018006000180060001C00E000FF0045
:10106000E000FF00E000FF00000000000B000000B7
:101070000000E0003F00E0003F00E0003F00E00033
:101080000000600000006000000060000000E00060
:101090000000E0000000C0000000000000000900A7
:1010A000C0001100E0003300E000330060003300B6
:1010B000600033006000330060003F0060003F00CC
:1010C00040001E00000000000000000000000000C2
:1010D00009006000000060000000FE001F00FE002C
:1010E0003F00FE003F006000300060003000600004
:1010F0003000000030000000000000000000000090
:1011000000000B00E0000F00E0001F00E0003F00C7
:101110000000380000003000000030000000300007
:1011200000003800E0003F00E0003F00E0003F002A
:10113000000000000B0060000000E0000100E00083
:10114000070080001F0000003E0000003800000083
:101150003E0080001F00E0000700E000010060008A
:101160000000000000000B00E0000700E0001F008E
:10117000E0003F0000003C00E0001F00E0000F0026
:10118000E0001F0000003C00E0003F00E0001F0006
:10119000E0000700000000000A0060003000E000EE
:1011A0003800E0003D00C0001F0080000F008000FC
:1011B0000F00C0001F00E0003D00E00038006000AC
:1011C000300000000000000000000A0000000000E5
:1011D00060000000E0008100E000E7008000FF0008
:1011E00000007E0080001F00E0000700E00001001A
:1011F0006000000000000000000000000A00600025
:1012000030006000380060003C0060003E0060007C
:101210003700E0003300E0003100E0003000600003
:1012200030002000300000000000000000000A0034
:101230000000000080000000C0000100FC001F0052
:10124000FE003F007F007F00070070000300600089
:1012500003006000030060000000000000000000C8
:101260000700000000000000000000000000000077
:101270000000BF003F00BF003F00BF003F00000074
:10128000000000000000000000000000000000005E
:1012900000000A000000000003006000030060007E
:1012A00003006000070070007F007F00FE003F0029
:1012B000FC001F00C00001008000000000000000D2
:1012C000000000000B0010000000180000001C00CF
:1012D00000000C0000000C0000001C0000001800C2
:1012E0000000180000001C0000000C0000000400BA
:1012F0000000000000000B0000000F0080000F0045
:10130000C0000F00E0000C0070000C0030000C006A
:1013100070000C00E0000C00C0000F0080000F0007
:1013200000000F00000000000500000000000000A9
:101330000000000000000000000001002F0000007D
:101340000000000000000000000000000400020097
:101350000100020001000000000000000000050084
:1013600014007F0014007F00140000000000000043
:10137000050024004A00FF00520024000000000085
:1013800000000600670035001F007C005600730057
:10139000000000000600180026002D003200180092
:1013A0002000000000000100060000000000000016
:1013B000000000000000000003003C00420081002B
:1013C0000000000000000000000003008100420057
:1013D0003C000000000000000000000005001400B8
:1013E00008003E0008001400000000000000050096
:1013F000080008003E00080008000000000000008F
:10140000010060000000000000000000000000007B
:10141000000005000800080008000800080000009F
:10142000000000000200000020000000000000009A
:101430000000000000000400200018000600010069
:10144000000000000000000005003E0041004100D7
:1014500041003E00000000000000020002007F008A
:101460000000000000000000000000000400460032
:10147000610051004E000000000000000000040068
:10148000220041004900360000000000000000007A
:1014900005001800140012007F001000000000007A
:1014A000000004002F004500450039000000000046
:1014B0000000000004003E00450045003900000027
:1014C0000000000000000400010061001D00030096
:1014D0000000000000000000040036004900490040
:1014E0003600000000000000000004002600490053
:1014F00049003E0000000000000000000100220042
:1015000000000000000000000000000000000100DA
:101510006200000000000000000000000000000069
:101520000500080014002200220041000000000015
:101530000000050014001400140014001400000042
:1015400000000000050041002200220014000800F5
:101550000000000000000400020001005900060025
:10156000000000000000000006001C0022003900FE
:1015700035002D002E00000000000700200018009C
:101580000E0009000E0018002000000006003F00B9
:1015900025002500250025001A0000000000060097
:1015A0001E00210021002100210012000000000087
:1015B00006003F0021002100210012000C00000065
:1015C000000005003F002500250025002500000043
:1015D0000000000005003F000500050005000100B7
:1015E00000000000000006001E002100210029006C
:1015F00029003A000000000006003F000800080033
:10160000080008003F0000000000030021003F0028
:10161000210000000000000000000000050018008C
:101620002000200020001F00000000000000060035
:101630003F00040004000A00110020000000000028
:1016400005003F00200020002000200000000000D6
:10165000000007003F0006000C0030000C000600F0
:101660003F00000006003F000200040008001000D8
:101670003F000000000006001E00210021002100A4
:1016800021001E000000000006003F0009000900C4
:101690000900090006000000000006001E002100ED
:1016A0002100290011002E000000000005003F006D
:1016B00009000900190026000000000000000500D4
:1016C000120025002D00290012000000000000007B
:1016D0000500010001003F000100010000000000C2
:1016E000000006001F0020002000200020001F0036
:1016F000000000000700010007001C0030001C0073
:1017000007000100000007000F0038000E00030072
:101710000E0038000F0000000600210012000C002F
:101720000C00120021000000000006000000010073
:1017300002003C0002000100000000000500310032
:101740002900250023002100000000000000020005
:10175000FF00810000000000000000000000000009
:10176000050052005C00F0005C0052000000000028
:10177000000002008100FF000000000000000000E7
:10178000000000000400020001000100020000004F
:1017900000000000000003002000200020000000E6
:1017A0000000000000000000030000000100020033
:1017B0000000000000000000000004003A002A00C1
:1017C0002A003E00000000000000000004003F006E
:1017D00024002400180000000000000000000500A4
:1017E0001C00220022002200140000000000000063
:1017F00004001800240024003F0000000000000046
:10180000000004001C002A002A002C000000000038
:1018100000000000040004003E0005000500000078
:1018200000000000000004004C00920092007E00C6
:10183000000000000000000004003F00040004005D
:101840003800000000000000000001003D00000022
:101850000000000000000000000000000200800006
:101860007D000000000000000000000000000500F6
:101870003F0008000C0012002000000000000000E3
:1018800001003F0000000000000000000000000018
:10189000000007003E00020002003E0002000200BD
:1018A0003C00000004003E00020002003C0000007A
:1018B00000000000000005001C00220022002200A1
:1018C0001C000000000000000400FE0022002200B6
:1018D0001C00000000000000000004001C002200AA
:1018E0002200FE00000000000000000003003E0097
:1018F00004000200000000000000000000000400DE
:1019000024002A002A00120000000000000000004D
:10191000030002001F002200000000000000000081
:10192000000004001E00200020003E000000000017
:1019300000000000050002001C0020001C00020046
:1019400000000000000006000E0030000E000E0037
:1019500030000E0000000000050022001400080006
:1019600014002200000000000000050002009C009E
:10197000E0001C0002000000000000000400320033
:101980002A002600220000000000000000000300E2
:101990001000FF00810000000000000000000000B7
:1019A00002000000FF000000000000000000000036
:1019B000000003008100FF00100000000000000094
:1019C000000000000400030001000200030000000A
:1019D0000000000000000200FC00FC00000000000D
:1019E00000000000000000000700000000000000F0
:1019F00000000000000000000000000000000000E7
:101A000000030000FC13FC130000000000000000B5
:101A1000000000000000000000000500001C0000A5
:101A2000001C001C0000000000000000000000007E
:101A30000000000A00002002200EF80F38022002E9
:101A4000E00FF8022002200000000000090000382A
:101A5000066C0C4408C73884188C08980F000200E4
:101A600000000000000B0000FC108418840CF80734
:101A70008001C000300E18110C11001F00000A0078
:101A800000000FB81BEC11C4116C13381E000C8041
:101A90001F8010000000000200001C000000000079
:101AA0000000000000000000000000000000000036
:101AB000050000F81F0E7002400240000000000008
:101AC00000000000000000000004024002400E6020
:101AD000FC3F0000000000000000000000000000CB
:101AE0000000060000580070003C00700018000064
:101AF000000000000000000000000009000080005D
:101B000080008000F00F80008000800080000000D6
:101B10000000000003000000380008000000000082
:101B200000000000000000000000000000060000AF
:101B300000010001000100010001000000000000A0
:101B40000000000000000300000010001000000072
:101B5000000000000000000000000000000000077E
:101B600000200038000EC00370001E0006000000B8
:101B70000000000000000000090000F007180C0C35
:101B800018041004100C18F80FE003000000000007
:101B900000052000300018000C00FC1F00000000B1
:101BA00000000000000000000000080000381818C5
:101BB0001C041604138C11F81070100000000000B3
:101BC000000000080000040C0418C410E410B41055
:101BD0009C190C0F0000000000000000090002002A
:101BE00003C003600230021C02FC1F00020002005E
:101BF0000000000000080000F80CFC18441044101D
:101C00004410C408840F0000000000000000080019
:101C100000800FE00870105C104C10C018800F009E
:101C20000000000000000007040004000410041E6F
:101C30008407F4001C000000000000000000000009
:101C4000080000700FF8198C1084108410C81978DF
:101C50000F0000000000000000080000F8008C01E8
:101C60000419040D0C07D8017000000000000000EA
:101C700000000300004010401000000000000000C1
:101C800000000000000000000000000300004038D9
:101C900040180000000000000000000000000000EC
:101CA00000000000060000C001600320023006189A
:101CB0000C00000000000000000000000007000011
:101CC000400440044004400440044004000000007C
:101CD000000000000000070000180C100420026043
:101CE00003C00180000000000000000000000007A9
:101CF000200018000C0004168417CC0078000000A7
:101D000000000000000000000C0000C01F30301078
:101D100060D84F48484848C84FD84F1028702CC04A
:101D2000070A0010001EC003F0021C021C02780209
:101D3000C003001E001800000000090000FC1FFC8A
:101D40001F8410841084108410CC19780F000000B8
:101D5000000000090000F007180C0C180410041013
:101D60000C180808380E000000000000090000FCF4
:101D70001FFC1F0410041004100C180808F80F00B2
:101D80000000000000080000FC1FFC1F84108410ED
:101D9000841084108410000000000000000008007F
:101DA00000FC1FFC1F840084008400840084000069
:101DB00000000000000000090000F007180C0C18DB
:101DC000041084108C188808980F00000000000090
:101DD000090000FC1FFC1F80008000800080008044
:101DE00000FC1F000000000000030000FC1FFC1F9F
:101DF00000000000000000000000000000000000E3
:101E00000000080000040E0418041004100410045C
:101E100018FC0F0000000000000000090000FC1F7B
:101E2000FC1FE001300318060C0C0C180010000019
:101E300000000000080000FC1FFC1F001000100044
:101E4000100010001000000000000000000B000057
:101E5000FC1FFC1F7000C00100030003C0017800DC
:101E6000FC1FFC1F0000090000FC1FFC1F3000E0ED
:101E70000080010007000CFC1F00000000000009AA
:101E80000000F007180C0C18041004100C18180CA3
:101E9000F007000000000000090000FC1FFC1F0408
:101EA000010401040104018801F8000000000000A1
:101EB00000090000F007180C0C18041004100C188E
:101EC000183CF027000000000000090000FC1FFC87
:101ED0001F8400840084018407FC1E781800000021
:101EE000000000090000780C6C18C41084108410E5
:101EF0008C19180F00060000000000000804000400
:101F00000004000400FC1F040004000400000000A2
:101F10000000000000090000FC07FC0F0018001082
:101F200000100018000CFC0F000000000000090465
:101F3000003C00F001800F001C001EC007F8001CD0
:101F4000000000000000000B00007C00E00F001803
:101F5000000FE001E001001F0018E00F7C0000000E
:101F60000904100C18180E7003C001E00330061CA1
:101F70001C04100000000000000904000C003800E0
:101F8000E000801FC01F700038000C00000000003F
:101F90000000080000041C041E0413C41164103C5B
:101FA000100C100000000000000000050000FE7F83
:101FB000024002400240000000000000000000005B
:101FC000000000000702000E007800E0010007009A
:101FD0003C0020000000000000000000000402405F
:101FE00002400240FE7F00000000000000000000F0
:101FF00000000000000005000008000400040008C4
:102000000000000000000000000000000000000AC6
:102010000000001000100010001000100010001050
:10202000001000100000000004000004000C000874
:1020300000000000000000000000000000000000A0
:1020400000070000401E6012201320196009C01F05
:1020500000000000000000000000080000FC1FC09D
:102060000C6018201020106018C00F000000000045
:10207000000000080000C00F601820102010601839
:10208000C00C80040000000000000000080000C038
:102090000F6018201020106018FC1FFC1F000000AB
:1020A0000000000000080000C00F6019201120117E
:1020B0006019C00980010000000000000000062037
:1020C000002000F81F2C0024002400000000000065
:1020D00000000000000000080000C04F60D8209001
:1020E00020906098E0FFE07F00000000000000000A
:1020F000080000FC1FC0006000200020006000C03D
:102100001F0000000000000000030000E41F0400A6
:1021100000000000000000000000000000000000BF
:102120000000030080E4FFE43F0000000000000026
:102130000000000000000000000000070000FC1F7D
:1021400000038006C00C60082010000000000000A2
:1021500000000000020000FC1F0000000000000062
:10216000000000000000000000000000000C000063
:10217000E01FC000200020006000C01FC000200041
:1021800020006000C01F080000E01FC000600020A9
:102190000020006000C01F000000000000000008D8
:1021A0000000C00F6018201020106018C00C8007BD
:1021B0000000000000000000080000E0FFC00C600C
:1021C00018201020106018C00F0000000000000050
:1021D00000080000C00F6018201020106018E0FFF9
:1021E000E0FF0000000000000000050000E01FC04C
:1021F000002000200000000000000000000000009F
:10220000000000070000C009601920132013601AA5
:10221000400E00000000000000000000062000202A
:1022200000FC0F201820100010000000000000002B
:102230000000000000080000E00F001C001000106B
:102240000018E01FE01F0000000000000000082050
:1022500000E0008003001E001C0007E00160000099
:10226000000000000000000C0000E0008007001CDF
:10227000000FE001E001000F001C800FE0012000D2
:102280000800106018C00C80078007C00C60182080
:10229000100000000000000000082000E00080C3E3
:1022A000007E001C0007E00160000000000000004C
:1022B00000000700002018201E2013A011E010606D
:1022C0001000000000000000000000050001C00335
:1022D000FC3E06600240000000000000000000001C
:1022E00000000000020000FFFF00000000000000EE
:1022F0000000000000000000000000000005024097
:1023000002400E60F83F8001000000000000000065
:102310000000000000000700008001800080000035
:102320000100018001000000000000000000000426
:10233000F83F08200820F83F0000000000000000DF
:10234000000000000000000011241FBECFEFD8E005
:10235000DEBFCDBF12E0A0E0B1E0EEE1F3E302C0EA
:1023600005900D92A433B107D9F726E0A4E3B2E0BB
:1023700001C01D92A13DB207E1F70E9431190C94F2
:102380008D190C9400008DE391E00E94621889E49D
:1023900091E00C946218CF93DF9364E080E00E9498
:1023A00022156DE680E591E00E94DD1564E080E095
:1023B0000E942215CBE6D2E08991882331F00E9459
:1023C000B51582E0CB37D807B9F7DF91CF910895E3
:1023D0000F931F93CF93DF93CDB7DEB769970FB6F7
:1023E000F894DEBF0FBECDBF8C0161E671E0CE0177
:1023F00001960E948619B801CE0101960E947B19B0
:1024000065E671E0CE0101960E947B19CE0101962E
:102410000E94621869960FB6F894DEBF0FBECDBF5A
:10242000DF91CF911F910F91089589E691E00C946F
:102430006218AF92BF92DF92EF92FF920F931F93B9
:10244000CF93DF93CDB7DEB72B970FB6F894DEBFEF
:102450000FBECDBF0E94321564E78FE691E00E9467
:10246000DD1562E080E00E9422158E010F5F1F4F94
:1024700058017501E01AF10A0E94A417D82EF4E45D
:102480008F132CC0F801EE0DFF1D10820E94321533
:10249000C8010E94E81164E789E791E00E94DD1518
:1024A00062E080E00E94221564E7C8010E94DD1509
:1024B0000E94A417843411F40E9415122B960FB6B3
:1024C000F894DEBF0FBECDBFDF91CF911F910F916A
:1024D000FF90EF90DF90BF90AF90089564E78D2D4F
:1024E0000E946615F501D1925F01C3CF8F929F9232
:1024F000AF92BF92CF92DF92EF92FF920F931F9312
:10250000CF93DF935C014B018C01D0E0C0E0D80198
:10251000ED91FD918D0180818823D1F06C2F660FA4
:1025200080E00E942215209719F481E00E9417157F
:1025300064E7F8013297808191810E94DD15209730
:1025400019F480E00E9417152196C430D105F9F6E0
:10255000D0E0C0E010E000E00E94A417843491F4C1
:10256000080D191DC00FD11F8881DF91CF911F91D8
:102570000F91FF90EF90DF90CF90BF90AF909F9022
:102580008F9008958134B9F5209779F121976801EA
:10259000CC0CDD1CCA0CDB1CF12CE12CD601ED911E
:1025A000FD916D0180818823B9F26E2D660F80E068
:1025B0000E942215CE15DF0519F481E00E9417153F
:1025C00064E7F6013297808191810E94DD15CE1576
:1025D000DF0519F480E00E941715BFEFEB1AFB0A24
:1025E00084E0E816F104D1F6B7CF0115110571F1B9
:1025F00001501109CCCF823421F5CE010196FC01A6
:10260000EE0FFF1FEA0DFB1D0190F081E02D2081F0
:10261000222329F0C330D10511F0EC01B8CFF80125
:10262000EC0FFD1F3196EE0FFF1FEA0DFB1D019011
:10263000F081E02D8081882309F4A9CF0F5F1F4F1F
:10264000A6CF833409F0A3CF83E48FCFE8019FCFD7
:102650001F93CF93DF93CDB7DEB7AD970FB6F89446
:10266000DEBF0FBECDBF8EE0E0E1F1E0DE011196EE
:1026700001900D928A95E1F786E0EEE1F1E0DE014E
:10268000919601900D928A95E1F78AE0E4E2F1E0FB
:10269000DE011F9601900D928A95E1F780912E013F
:1026A00090912F01A0913001B09131018FA398A793
:1026B000A9A7BAA788E0E2E3F1E0DE01599601900C
:1026C0000D928A95E1F780913A0190913B01A0919A
:1026D0003C018BA79CA7ADA70E943215BE016F5D80
:1026E0007F4FCE0101960E947612833649F08437DF
:1026F000F1F0823691F48AE991E00E9462180DC0EF
:102700000E943215BE01695D7F4FCE010F960E9477
:102710007612823711F40E941912AD960FB6F89412
:10272000DEBF0FBECDBFDF91CF911F9108950E94F4
:102730003215BE01655D7F4FCE0149960E9476122B
:10274000182F833449F20E9432156DE684E891E037
:102750000E94DD15812F0E94B51561E080E00E9486
:1027600022156DE68EE891E00E94DD15D6CF1F920E
:102770000F920FB60F9211242F933F934F935F93B5
:102780006F937F938F939F93AF93BF93EF93FF9339
:1027900080913902082E000C990B0E947518FF9148
:1027A000EF91BF91AF919F918F917F916F915F91C9
:1027B0004F913F912F910F900FBE0F901F90189542
:1027C000CF93C82F0E94F11688E70E94F91680E87F
:1027D0000E94F9168C2F0E94F916CF910C94ED16D9
:1027E0002FEC32E098E041E0F90180E040838F5F18
:1027F00038968038D9F791502F5F3F4F9111F4CF21
:102800008EEA0E94E01388EA0E94E0138FE30E94A0
:10281000E01380E20E94E01382E00E94E01380E473
:102820000E94E01383ED0E94E01380E00E94E01319
:1028300081EA0E94E01388EC0E94E0138AED0E9476
:10284000E01382E10E94E01380EB0E94E01381E834
:102850000E94E01380E80E94E01384EA0E94E013E3
:1028600086EA0E94E01385ED0E94E01380E80E9452
:10287000E01389ED0E94E01382EC0E94E0138BEDDF
:102880000E94E01380E20E94E0138DE80E94E013B2
:1028900084E10E94E0138EE20E94E0138FEA0E941E
:1028A000E01387E20E94E01380E00E94E01380E0E2
:1028B0000E94E01380E00E94E01383E00E94E01396
:1028C00080E00E94E0138FEF0C94E01390913802A7
:1028D000E091370248E0949F9001112421533D4F2D
:1028E000E20FF32FF11D2081281759F18083892FE2
:1028F0008F700E94E0138091380282958F70805F04
:102900000E94E0138091370280550E94E0130E94DC
:10291000F11688E70E94F91680E40E94F91680916A
:10292000380220913702E8E08E9FC00111248153C4
:102930009D4F820F911DFC0180810E94F9160C941D
:10294000ED16089540913802E091370298E0499FD2
:102950009001112421533D4FE20FF32FF11D90817F
:10296000981761F1982B9083842F8F700E94E01349
:102970008091380282958F70805F0E94E013809171
:10298000370280550E94E0130E94F11688E70E94EA
:10299000F91680E40E94F9168091380220913702DE
:1029A000E8E08E9FC001112481539D4F820F911D3D
:1029B000FC0180810E94F9160C94ED160895809117
:1029C0003802E091370298E0899F90011124215349
:1029D0003D4FE20FF32FF11D90819923E9F0108212
:1029E0008F700E94E0138091380282958F70805F13
:1029F0000E94E0138091370280550E94E0130E94EC
:102A0000F11688E70E94F91680E40E94F91680E02A
:102A10000E94F9160E94ED16809138028F3719F442
:102A20001092380208958F5F8093380208958130A4
:102A300021F48FEF809336020895811102C0109225
:102A4000360208958093380260933702089590917A
:102A50003702690F90913802890F80933802609392
:102A600037020895CF93DF93C0E010923802C093ED
:102A70003702D0E08FEF0E946614DF5FD038D1F7C5
:102A8000CF5FC83091F7C0E010923802C093370290
:102A9000D0E00E94DF14DF5FD038D9F7CF5FC830B5
:102AA00099F72FEC32E0F90180E010828F5F3896C1
:102AB0008038D9F7C1502F5F3F4FC111F4CF10922A
:102AC000380210923702DF91CF910895BF92CF92D2
:102AD000DF92EF92FF920F931F93CF93DF93B62E67
:102AE000805299E1899FE00111248E010F5F1F4FF1
:102AF0006996F12CE12CC8018851964E6C0103C0F7
:102B0000EE24E394F12C82E7B81220C0F601EE0D1A
:102B1000FF1D84910E94661481E06FEFE81611F0AA
:102B200061E080E00E942715EA94EF2849F70E5FE4
:102B30001F4F0C171D07E9F6DF91CF911F910F91E1
:102B4000FF90EF90DF90CF90BF90089594E7B91277
:102B5000E3CFF801EE0DFF1DEE0FFF1FE859FF4F09
:102B6000E491809136028E27D5CF0F931F93CF9398
:102B7000DF93805299E0899F80011124D0E0C0E06A
:102B80000E94DF1460E08FEF0E942715F801EC0F20
:102B9000FD1FEE0FFF1FE65DFC4E84910E94661440
:102BA00060E081E00E9427152196C830D10541F7E9
:102BB000DF91CF911F910F9108951F93CF93DF93D2
:102BC000EC01623781F410E004C062E70E946615F0
:102BD0001F5FFE01E10FF11D80818111F6CFDF91B2
:102BE000CF911F91089510E0643789F010E06D36A1
:102BF000B1F7FE01E10FF11D8081882381F30E946E
:102C0000B5151F5FF6CF64E70E9466151F5FFE01D2
:102C1000E10FF11D80818111F6CFE1CFFC013696E5
:102C20009C012D5F3F4FDC014D91CD0152911197D9
:102C30005C93408382179307B1F70895CF92DF9298
:102C4000FF920F931F93CF93DF9300D000D000D05B
:102C50001F92CDB7DEB7F62E27E0EDE2F2E08E014F
:102C60000F5F1F4FD80101900D922A95E1F731E0D7
:102C700097FF04C091958195910930E0E0E02AE04A
:102C8000C22ED12C21E02E0FE00FF12FF11DB60145
:102C90000E945319805D8083CB01E22F181619061C
:102CA0008CF3E00FF12FF11D40E3CF01801B910B5E
:102CB0002530E8F02BE2311101C02DE2F801E80FD8
:102CC000F91F2083C8010E940E166F2DC8010E94B3
:102CD000DD1527960FB6F894DEBF0FBECDBFDF918E
:102CE000CF911F910F91FF90DF90CF9008952F5FAC
:102CF0004193DBCF0F931F93CF93DF93C82F042F04
:102D0000122F962F9770D62FD695D695D6956213FB
:102D100015C011E001C0110F9A95EAF70C1728F4BD
:102D2000DF91CF911F910F910895C0933802D093F6
:102D30003702812F0E94A214CF5FF0CF8413F0CF0F
:102D4000022F06950695069580933802D093370298
:102D50008FEF01C0880F9A95EAF70E94A214DF5FF7
:102D6000C0933802D017A0F000933702177027E005
:102D700030E0211B31098FEF90E002C095958795D7
:102D80002A95E2F7DF91CF911F910F910C94A21435
:102D9000D09337028FEFE1CF0F931F93CF93DF9341
:102DA000082FD62FC42F122F262F0E947A16212FDC
:102DB0004C2F612F802F0E947A16212F402F6D2FCC
:102DC000802F0E947A16212F4C2F6D2F8C2FDF9190
:102DD000CF911F910F910C947A1684E98093BC00D7
:102DE000089584EA8093BC008091BC0087FFFCCFEB
:102DF00008958093BB0084E88093BC008091BC0060
:102E000087FFFCCF08951F93CF93DF93C82FD62F52
:102E1000142F0E94F116812F880F0E94F9168D2F12
:102E20000E94F9168C2F0E94F91684E98093BC0049
:102E3000DF91CF911F91089520E4829FC00111245A
:102E400084688093BC008091BC0087FFFCCF809198
:102E5000BB000895FF920F931F93CF93DF93F82E3B
:102E6000192F062FC42FD22F0E94F1168D2F880FF5
:102E70000E94F9168C2F0E94F916CF2DD12F0C0F1E
:102E80001D2F111DC017D10749F484E98093BC00A0
:102E9000DF91CF911F910F91FF90089589910E942A
:102EA000F916F0CFCF92DF92EF92FF920F931F931C
:102EB000CF93DF938C01D62FF42EC22F0E94F116F0
:102EC0008C2F880F0E94F9168F2D0E94F91684E925
:102ED0008093BC000E94F1168C2F880F81600E94A5
:102EE000F9167801CD2FD0E06801CC0EDD1EEC1470
:102EF000FD0499F42197C00FD11F80E00E941C1798
:102F0000888384E98093BC00DF91CF911F910F915A
:102F1000FF90EF90DF90CF90089581E00E941C1702
:102F2000F70181937F01E3CF1092B90084E280938F
:102F3000B80084E08093BC00089590EC9AB983E0D7
:102F400084B99BB985B908958BB18C738BB985B160
:102F500015B8000089B1869586958F708093CF064D
:102F60008F3091F72FEF87EE93E021508040904013
:102F7000E1F700C0000089B1869586958F70809337
:102F8000CF068F3079F32FEF87EE93E0215080400A
:102F90009040E1F700C0000089B1869586958F705A
:102FA0008093CF068F30F1F28CEB8BB993E095B91B
:102FB000000089B1869586958F708093CF068F30FB
:102FC00081F01092D0068091CF068E30B9F5E09155
:102FD000D00624E0E29FF0011124E050FF4F8081F1
:102FE00008958CE78BB995B9000089B186958695CF
:102FF0008F708093CF068F3021F081E08093D006D0
:10300000E2CF2CEF2BB932E035B9000089B18695BB
:1030100086958F708093CF068F3019F03093D0064D
:10302000D2CF2BB981E085B9000089B1869586950C
:103030008F708093CF069093D006C5CF8D3051F41A
:10304000E091D00684E0E89FF0011124E050FF4FAA
:10305000818108958B3051F4E091D00694E0E99F8E
:10306000F0011124E050FF4F82810895873051F420
:10307000E091D00624E0E29FF0011124E050FF4FE0
:103080008381089580E2089588E98093C10086E0F5
:103090008093C20087E68093C40008959091C00099
:1030A00095FFFCCF8093C6000895CF93C82F8295DB
:1030B0008F70805D0E944E188C2F8F70805DCF9135
:1030C0000C944E18CF93DF93EC018991811103C0CA
:1030D000DF91CF9108950E944E18F7CF8091C000E4
:1030E00087FFFCCF8091C6000895EF92FF920F9367
:1030F0001F93CF93DF93EC018091C10080588093A0
:10310000C1000E946E188D30E1F38A30D1F3E8815E
:10311000F981808301E010E0E880F980E00EF11E83
:103120000E946E18F70180838D3069F5888199813E
:10313000080F191FF80110820E946E188D30E1F3FC
:103140008A30D1F3EA81FB81808301E010E0EA80DC
:10315000FB80E00EF11E0E946E18F70180838D3017
:10316000A9F48A819B81080F191FF80110828091B0
:10317000C10080588093C100DF91CF911F910F91C2
:10318000FF90EF9008950F5F1F4FC6CF0F5F1F4F47
:10319000DECFFC0136969C012D5F3F4FDC014D9147
:1031A000CD01529111975C93408382179307B1F739
:1031B0000895EF92FF920F931F93CF93DF9300D068
:1031C00000D000D01F92CDB7DEB727E0EDE2F2E0ED
:1031D0008E010F5F1F4FD80101900D922A95E1F7E4
:1031E00031E097FF04C091958195910930E0E0E0CE
:1031F0002AE0E22EF12C21E02E0FE00FF12FF11D3D
:10320000B7010E945319805D8083CB01E22F18160D
:1032100019068CF3E00FF12FF11D40E3CF01801B65
:10322000910B2530D8F02BE2311101C02DE2F801CD
:10323000E80FF91F2083C8010E94C918C8010E9425
:10324000621827960FB6F894DEBF0FBECDBFDF9190
:10325000CF911F910F91FF90EF9008952F5F4193B1
:10326000DDCF0E9494170E9444180E94F0130E9420
:103270009D172FEF81EE94E0215080409040E1F7C0
:1032800000C000000E94C31178940E9432150E9471
:1032900028132FEF83ED90E3215080409040E1F719
:1032A00000C00000F4CF97FB072E16F4009407D05F
:1032B00077FD09D00E94671907FC05D03EF4909570
:1032C00081959F4F0895709561957F4F0895AA1B32
:1032D000BB1B51E107C0AA1FBB1FA617B70710F001
:1032E000A61BB70B881F991F5A95A9F78095909533
:1032F000BC01CD010895FB01DC010D900020E9F730
:10330000119701900D920020E1F70895FB01DC0177
:0E33100001900D920020E1F70895F894FFCF90
:10331E003132334134353642373839432A3023443B
:10332E00A001AB01B601C101CC01D7014F016374FD
:10333E0062647365E201ED01F80103024F01726DE3
:10334E0064610C02170222024F0177757241542BF1
:10335E00434C43433D310D0A00415445300D0A00A4
:10336E00202020202020202020202020202020204F
:10337E0000415444003B0A0D004154480D0A0045DB
:10338E006E746572204E6F3A0043616C6C696E67A5
:10339E002E2E2E0073656C65637465643A00534D72
:1033AE005320636F64652E2E2E004154490D0A0082
:1033BE0043616C6C732020202020005465787420AB
:1033CE0020202020200050686F6E6520426F6F6BAA
:1033DE000043616C656E64657220200053657474E1
:1033EE00696E677320200045787472617320202007
:1033FE002000456E746572204E6F2E20004D69734D
:10340E0073656420202020004469616C656420206F
:10341E00202000416E73776572656400577269747F
:10342E0065205465787400556E72656164202020A5
:10343E00200052656164202020202020002B303097
:04344E0030303000EA
:00000001FF
