:100000000C9434000C943E000C943E000C943E0082
:100010000C943E000C943E000C943E000C943E0068
:100020000C943E000C943E000C943E000C943E0058
:100030000C943E000C943E000C943E000C943E0048
:100040000C943E000C943E000C943E000C943E0038
:100050000C943E000C943E000C943E000C943E0028
:100060000C943E000C943E0011241FBECFEFD8E04C
:10007000DEBFCDBF0E942E010C9484010C940000C1
:100080000E9425010E94050180ED0E940D0187E07C
:100090000E940D0180E00E940D010C9401011F934C
:1000A000CF93DF93C82FD62F142F0E94050180ED28
:1000B0000E940D0180E00E940D01812F0E940D0120
:1000C0008D2F0E940D018C2F0E940D01DF91CF9189
:1000D0001F910C9401011F93CF93DF93C82FD62F4C
:1000E000142F0E94050180ED0E940D0184E00E9402
:1000F0000D01812F0E940D018D2F0E940D018C2F6B
:100100000E940D01DF91CF911F910C940101EF929C
:10011000FF920F931F93CF93DF93EC018B017A0132
:100120000E94050180ED0E940D0180E00E940D01FA
:100130000E9401010E94050181ED0E940D0181E0F4
:100140000E941701F701808381E00E941701F801E6
:10015000808380E00E9417018883DF91CF911F91F7
:100160000F91FF90EF900C940101EF92FF920F938B
:100170001F93CF93DF93EC018B017A010E9405015D
:1001800080ED0E940D0184E00E940D010E9401019A
:100190000E94050181ED0E940D0181E00E9417017E
:1001A000F701808381E00E941701F801808380E0DD
:1001B0000E9417018883DF91CF911F910F91FF90CB
:1001C000EF900C94010188E08093C10086E0809359
:1001D000C20087E68093C40008959091C00095FF07
:1001E000FCCF8093C6000895CF93C82F82958F705F
:1001F000805D0E94ED008C2F8F70805DCF910C94FC
:10020000ED0084E98093BC00089584EA8093BC00EB
:100210008091BC0087FFFCCF08958093BB0084E8E9
:100220008093BC008091BC0087FFFCCF089520E440
:10023000829FC001112484688093BC008091BC001F
:1002400087FFFCCF8091BB0008951092B90088E928
:100250008093B80084E08093BC000895CF93DF932F
:1002600000D000D000D0CDB7DEB70E9440000E9481
:10027000E300AE014C5F5F4FBE016B5F7F4FCE016D
:1002800006960E94B50082E30E94ED0080E30E9482
:10029000ED008E810E94F4008FE20E94ED008D81BE
:1002A0000E94F4008FE20E94ED008C810E94F40015
:1002B00080E20E94ED00AE014F5F5F4FBE016E5FB6
:1002C0007F4FCE0103960E9487008B810E94F4002D
:1002D0008AE30E94ED008A810E94F4008AE30E9472
:1002E000ED0089810E94F4008AE00E94ED008DE01B
:1002F0000E94ED002FEF83EC99E021508040904068
:0C030000E1F700C00000B5CFF894FFCF7B
:00000001FF
