:100000000C94A4110C94C1110C94C1110C94C11145
:100010000C94C1110C94C1110C94C1110C94C11118
:100020000C94C1110C94C1110C94C1110C94C11108
:100030000C94C1110C9466140C94C1110C94C11150
:100040000C94C1110C94C1110C94C1110C94C111E8
:100050000C94C1110C94C1110C94C1110C94C111D8
:100060000C94C1110C94C1110700000000000000A5
:100070000000000000000000000000000000000080
:100080000000000000000000000000000000000070
:100090000000000000000000000008000000000058
:1000A00000000000000000007C000000FF003300A2
:1000B000FF003300FF0033007C0000000000000060
:1000C0000000000000000000000000000900000027
:1000D0000000000000003C0000003C0000003C006C
:1000E0000000000000003C0000003C0000003C005C
:1000F00000000000000000000000000000000C00F4
:100100000000020010001E0090001F00F0001F0001
:10011000FE0003007E001E009E001F00F0001F0076
:10012000FE0003007E0002001E0000001000000020
:100130000A000000000078000400FC000C00FC0035
:100140000C00FF003F00FF003F00FF003F00CC001D
:100150000F00CC000F008800070000000000000026
:1001600000000C00000030003800380038003C006F
:1001700038001E0038000F0080000700C000030098
:10018000E0003900F0003800780038003C0038000A
:100190001C0000000B000000000000001F00B80061
:1001A0003F00FC003F00FE003100E6003700FE008B
:1001B0003F003E001E001C003E0000003600000014
:1001C0002200000000000700000000000000000006
:1001D00000000000270000003F0000003F0000007A
:1001E0001F000000000000000000000000000000F0
:1001F00000000000000000000900000000000000F6
:100200000000F0000300FC000F00FE001F00FF00D4
:100210003F0007003800010020000100200000001E
:1002200000000000000000000000090000000000C5
:10023000000000000100200001002000070038003D
:10024000FF003F00FE001F00FC000F00F000030055
:100250000000000000000000000000000A00000094
:10026000000098000C00B8000E00F8000F00F80025
:100270000F00F8000F00F8000F00F8000F00B800A2
:100280000E0098000C0000000000000000000A00B2
:1002900000000000800001008000010080000100DB
:1002A000F0000F00F0000F00F0000F0080000100D0
:1002B000800001008000010000000000000000003C
:1002C0000700000000000000000000000000000027
:1002D000B8000000F8000000F800000078000000FE
:1002E000000000000000000000000000000000000E
:1002F00000000A00000000008000010080000100F2
:1003000080000100800001008000010080000100E9
:10031000800001008000010080000100000000005A
:1003200000000000070000000000000000000000C6
:100330000000000038000000380000003800000015
:100340003800000000000000000000000000000075
:100350000000000000000C000000180000001C005D
:1003600000001E0000000F0080000700C000030016
:10037000E0000100F0000000780000003C000000F8
:100380001E0000000E0000000C00F8000700FE0038
:100390001F00FE001F0007003F0083003300C30062
:1003A0003100E3003000730030003F003800FE00F1
:1003B0001F00FE001F00F80007000B0000000000F7
:1003C000000000000C0030000C0030000E00300077
:1003D000FF003F00FF003F00FF003F000000300033
:1003E0000000300000003000000000000C001C0085
:1003F00030001E0038001F003C0007003E000300D4
:100400003F0083003700C3003300E3003100F700F2
:1004100030007F0030003E0030001C0030000C0037
:100420000C000C000E001C000F003C00C700380040
:10043000C3003000C3003000C3003000C3003000F0
:10044000E7003900FF003F007E001F003C000E0067
:100450000C00C0000300E0000300F000030078007F
:1004600003003C0003001E0003000F000300FF0018
:100470003F00FF003F00FF003F00000003000000BE
:1004800003000C003F000C007F001C007F003C00BC
:100490006300380063003000630030006300300008
:1004A00063003000E3003800E3003F00C3001F009A
:1004B00083000F000C00C0000F00F0001F00F800C8
:1004C0003F00FC003900DE003000CF003000C700E4
:1004D0003000C3003000C3003900C3003F0080007B
:1004E0001F0000000F000C000300000003000000CC
:1004F000030000000300300003003C0003003F0045
:10050000C3000F00F3000300FF0000003F000000E5
:100510000F000000030000000C0000000F00BC00F2
:100520001F00FE003F00FF003900E7003000C3005D
:100530003000C3003000E7003000FF003900FE004B
:100540003F00BC001F0000000F000C003C0000003A
:100550007E000000FF003000E7003000C3003000E4
:10056000C3003800C3003C00C3001E00E7000F00BA
:10057000FF000700FE000300FC0000000700000071
:100580000000000000000000000070001C0070006F
:100590001C0070001C0070001C0000000000000027
:1005A0000000000000000000000000000000070044
:1005B00000000000000000000000000070009C002F
:1005C0007000FC007000FC0070007C000000000067
:1005D000000000000000000000000000000000001B
:1005E0000A0000000000C0000000E0000100F00070
:1005F0000300F80007003C000F001E001E000F0063
:100600003C0007003800030030000000000000003C
:1006100000000B0000000000600006006000060003
:100620006000060060000600600006006000060032
:100630006000060060000600600006006000060022
:10064000000000000A000000000003003000070066
:1006500038000F003C001E001E003C000F00F80098
:100660000700F0000300E0000100C00000000000EF
:100670000000000000000B001C0000001E00000035
:100680001F0000000700000083003700C300370090
:10069000E3003700F70000007F0000003E0000008C
:1006A0001C000000000000000B00FC000F00FE001A
:1006B0001F0007001C00E3003900F30033003B007B
:1006C00033001B0033009B003300F3003100FF00B8
:1006D0003300FE000300000000000B0000003800A3
:1006E00000003F00E0003F00FC000700FF000600A4
:1006F0001F000600FF000600FC000700E0003F00AE
:1007000000003F0000003800000000000B00FF0068
:100710003F00FF003F00FF003F00C3003000C30068
:100720003000C3003000E7003000FF003900FE0059
:100730003F00BC001F0000000F00000000000B0085
:10074000F0000300FC000F00FE001F000F003C0043
:1007500007003800030030000300300007003800B5
:100760000F003C000E001C000C000C0000000000FC
:100770000B00FF003F00FF003F00FF003F000300B1
:1007800030000300300003003000070038000F0085
:100790003C00FE001F00FC000F00F0000300000002
:1007A00000000B00FF003F00FF003F00FF003F0084
:1007B000C3003000C3003000C3003000C30030006D
:1007C000C3003000C30030000300300003003000DD
:1007D000000000000B00FF003F00FF003F00FF0093
:1007E0003F00C3000000C3000000C3000000C300BE
:1007F0000000C3000000C30000000300000003006D
:100800000000000000000B00F0000300FC000F00DF
:10081000FE001F000F003C0007003800C30030003E
:10082000C3003000C3003000C7003F00C7003F00D6
:10083000C6003F00000000000B00FF003F00FF006B
:100840003F00FF003F00C0000000C0000000C000EB
:100850000000C0000000C0000000FF003F00FF00DB
:100860003F00FF003F000000000009000000000002
:10087000000000000300300003003000FF003F00D4
:10088000FF003F00FF003F00030030000300300086
:100890000000000000000000000000000B0000004D
:1008A0000E0000001E0000003E00000038000000A6
:1008B0003000000030000000300000003800FF0071
:1008C0003F00FF001F00FF000700000000000B00BA
:1008D000FF003F00FF003F00FF003F00E00001007D
:1008E000F0000300F80007003C000F001E001E008F
:1008F0000F003C000700380003003000000000003B
:100900000B00FF003F00FF003F00FF003F00000022
:100910003000000030000000300000003000000017
:100920003000000030000000300000003000000007
:1009300000000B00FF003F00FF003F00FF003F00F2
:100940007E000000F8000100E0000100F800010056
:100950007E000000FF003F00FF003F00FF003F005F
:10096000000000000B00FF003F00FF003F00FF0001
:100970003F003E000000F8000000F0000300C0004F
:10098000070000001F00FF003F00FF003F00FF00C6
:100990003F00000000000B00F0000300FC000F000F
:1009A000FE001F000F003C0007003800030030006D
:1009B000070038000F003C00FE001F00FC000F0085
:1009C000F0000300000000000B00FF003F00FF00EC
:1009D0003F00FF003F00830001008300010083000F
:1009E000010083000100C7000100FF000100FE00BC
:1009F00000007C000000000000000B00F00003007D
:100A0000FC000F00FE001F000F003C000700380034
:100A100003003200070036000F003C00FE001F00FC
:100A2000FC003F00F0002300000000000B00FF006E
:100A30003F00FF003F00FF003F00830001008300F4
:100A400003008300070083000F00C7001F00FF00A2
:100A50003D00FE0038007C003000000000000B006C
:100A60003C000C007E001C00FF003C00E70038004A
:100A7000C3003000C3003000C3003000C70039009D
:100A8000CF003F008E001F000C000F000000000090
:100A90000A00000000000300000003000000030043
:100AA0000000FF003F00FF003F00FF003F00030089
:100AB0000000030000000300000000000000000030
:100AC00000000B00FF000700FF001F00FF003F00B9
:100AD000000038000000300000003000000030004E
:100AE00000003800FF003F00FF001F00FF0007006C
:100AF000000000000B00070000003F000000FF00A6
:100B00000100F8000F00C0003F0000003E00C000E0
:100B10003F00F8000F00FF0001003F000000070049
:100B20000000000000000B00FF003F00FF003F003E
:100B3000FF003F0000001E0080000700800003004F
:100B40008000070000001E00FF003F00FF003F0084
:100B5000FF003F00000000000B00030030000F000A
:100B60003C001F003E003C000F00F0000300E000CE
:100B70000100F00003003C000F001F003E000F00CA
:100B80003C0003003000000000000B0003000000E8
:100B90000F0000003F000000FC000000F0003F00DC
:100BA000C0003F00F0003F00FC0000003F000000DC
:100BB0000F00000003000000000000000B00030015
:100BC000300003003C0003003E0003003F00C30070
:100BD0003300E3003100F30030003F0030001F001D
:100BE00030000F003000030030000000000009005A
:100BF0000000000000000000FF003F00FF003F0079
:100C0000FF003F000300300003003000030030000D
:100C100003003000000000000000000000000000A1
:100C20000C000E0000001E0000003C0000007800D8
:100C30000000F0000000E0000100C00003008000A0
:100C4000070000000F0000001E0000001C00000054
:100C50001800090000000000000000000300300040
:100C6000030030000300300003003000FF003F00AD
:100C7000FF003F00FF003F000000000000000000F8
:100C8000000000000C006000000070000000780010
:100C900000003C0000001E0000000F0000000F00DC
:100CA00000001E0000003C00000078000000700002
:100CB0000000600000000C000000C0000000C00048
:100CC0000000C0000000C0000000C0000000C00024
:100CD0000000C0000000C0000000C0000000C00014
:100CE0000000C0000000C00008000000000000007C
:100CF000000000000000000000003E0000007E0038
:100D000000007E0000004E00000000000000000017
:100D1000000000000000000000000B0000001C00AC
:100D200040003E0060003F00600033006000330080
:100D3000600033006000330060003300E0003F00DB
:100D4000E0003F00C0003F00000000000B00FF007B
:100D50003F00FF003F00FF003F00E0003000600068
:100D600030006000300060003000E0003800E0003B
:100D70003F00C0001F0080000F00000000000B00BB
:100D800080000F00C0001F00E0003F00E0003800BE
:100D90006000300060003000600030006000300013
:100DA000E0003800C00018008000080000000000CB
:100DB0000B0080000F00C0001F00E0003F00E000BB
:100DC00038006000300060003000E0003000E000DB
:100DD0003000FF003F00FF003F00FF003F00000029
:100DE00000000B0080000F00C0001F00E0003F006B
:100DF000E0003B006000330060003300600033001F
:100E000060003300E0003300C000130080000100E8
:100E1000000000000900C0000000C0000000FC004D
:100E20003F00FE003F00FF003F00C7000000C3007E
:100E30000000C300000003000000000000000000EC
:100E40000000000000000B0080000300C000C7008D
:100E5000E000CF00E000CE006000CC006000CC00DD
:100E60006000CC006000EE00E000FF00E0007F00CA
:100E7000E0003F00000000000A00FF003F00FF000C
:100E80003F00FF003F00E000000060000000600045
:100E90000000E0000000E0003F00C0003F008000D4
:100EA0003F000000000000000000090000000000FA
:100EB000000000000000300060003000EC003F0047
:100EC000EC003F00EC003F0000003000000030006C
:100ED0000000000000000000000000000900000009
:100EE000000000000000000060000000E0000000C2
:100EF000E0006000C000EC00FF00EC00FF00EC0030
:100F00007F000000000000000000000000000A0058
:100F100000000000FF003F00FF003F00FF003F0017
:100F200080000700C0000F00E0001F00E0003C0050
:100F300060003800000030000000000000000000E9
:100F40000900000000000000000000003000030065
:100F50003000FF003F00FF003F00FF003F000000A7
:100F60003000000030000000000000000000000021
:100F700000000B00E0003F00E0003F00E0003F0009
:100F8000E0000000E0003F00C0003F00E0003F0044
:100F9000E0000000E0003F00C0003F0080003F0094
:100FA000000000000B0000000000E0003F00E00037
:100FB0003F00E0003F0060000000600000006000B3
:100FC0000000E0000000E0003F00C0003F008000A3
:100FD0003F00000000000B0080000F00C0001F0059
:100FE000E0003F00E00038006000300060003000AA
:100FF00060003000E0003800E0003F00C0001F004B
:1010000080000F00000000000B00E000FF00E00087
:10101000FF00E000FF0060001C006000180060009E
:10102000180060001800E0001C00E0001F00C00075
:101030000F0080000700000000000B008000070088
:10104000C0000F00E0001F00E0001C00600018005E
:10105000600018006000180060001C00E000FF0045
:10106000E000FF00E000FF00000000000B000000B7
:101070000000E0003F00E0003F00E0003F00E00033
:101080000000600000006000000060000000E00060
:101090000000E0000000C0000000000000000900A7
:1010A000C0001100E0003300E000330060003300B6
:1010B000600033006000330060003F0060003F00CC
:1010C00040001E00000000000000000000000000C2
:1010D00009006000000060000000FE001F00FE002C
:1010E0003F00FE003F006000300060003000600004
:1010F0003000000030000000000000000000000090
:1011000000000B00E0000F00E0001F00E0003F00C7
:101110000000380000003000000030000000300007
:1011200000003800E0003F00E0003F00E0003F002A
:10113000000000000B0060000000E0000100E00083
:10114000070080001F0000003E0000003800000083
:101150003E0080001F00E0000700E000010060008A
:101160000000000000000B00E0000700E0001F008E
:10117000E0003F0000003C00E0001F00E0000F0026
:10118000E0001F0000003C00E0003F00E0001F0006
:10119000E0000700000000000A0060003000E000EE
:1011A0003800E0003D00C0001F0080000F008000FC
:1011B0000F00C0001F00E0003D00E00038006000AC
:1011C000300000000000000000000A0000000000E5
:1011D00060000000E0008100E000E7008000FF0008
:1011E00000007E0080001F00E0000700E00001001A
:1011F0006000000000000000000000000A00600025
:1012000030006000380060003C0060003E0060007C
:101210003700E0003300E0003100E0003000600003
:1012200030002000300000000000000000000A0034
:101230000000000080000000C0000100FC001F0052
:10124000FE003F007F007F00070070000300600089
:1012500003006000030060000000000000000000C8
:101260000700000000000000000000000000000077
:101270000000BF003F00BF003F00BF003F00000074
:10128000000000000000000000000000000000005E
:1012900000000A000000000003006000030060007E
:1012A00003006000070070007F007F00FE003F0029
:1012B000FC001F00C00001008000000000000000D2
:1012C000000000000B0010000000180000001C00CF
:1012D00000000C0000000C0000001C0000001800C2
:1012E0000000180000001C0000000C0000000400BA
:1012F0000000000000000B0000000F0080000F0045
:10130000C0000F00E0000C0070000C0030000C006A
:1013100070000C00E0000C00C0000F0080000F0007
:1013200000000F00000000000500000000000000A9
:101330000000000000000000000001002F0000007D
:101340000000000000000000000000000400020097
:101350000100020001000000000000000000050084
:1013600014007F0014007F00140000000000000043
:10137000050024004A00FF00520024000000000085
:1013800000000600670035001F007C005600730057
:10139000000000000600180026002D003200180092
:1013A0002000000000000100060000000000000016
:1013B000000000000000000003003C00420081002B
:1013C0000000000000000000000003008100420057
:1013D0003C000000000000000000000005001400B8
:1013E00008003E0008001400000000000000050096
:1013F000080008003E00080008000000000000008F
:10140000010060000000000000000000000000007B
:10141000000005000800080008000800080000009F
:10142000000000000200000020000000000000009A
:101430000000000000000400200018000600010069
:10144000000000000000000005003E0041004100D7
:1014500041003E00000000000000020002007F008A
:101460000000000000000000000000000400460032
:10147000610051004E000000000000000000040068
:10148000220041004900360000000000000000007A
:1014900005001800140012007F001000000000007A
:1014A000000004002F004500450039000000000046
:1014B0000000000004003E00450045003900000027
:1014C0000000000000000400010061001D00030096
:1014D0000000000000000000040036004900490040
:1014E0003600000000000000000004002600490053
:1014F00049003E0000000000000000000100220042
:1015000000000000000000000000000000000100DA
:101510006200000000000000000000000000000069
:101520000500080014002200220041000000000015
:101530000000050014001400140014001400000042
:1015400000000000050041002200220014000800F5
:101550000000000000000400020001005900060025
:10156000000000000000000006001C0022003900FE
:1015700035002D002E00000000000700200018009C
:101580000E0009000E0018002000000006003F00B9
:1015900025002500250025001A0000000000060097
:1015A0001E00210021002100210012000000000087
:1015B00006003F0021002100210012000C00000065
:1015C000000005003F002500250025002500000043
:1015D0000000000005003F000500050005000100B7
:1015E00000000000000006001E002100210029006C
:1015F00029003A000000000006003F000800080033
:10160000080008003F0000000000030021003F0028
:10161000210000000000000000000000050018008C
:101620002000200020001F00000000000000060035
:101630003F00040004000A00110020000000000028
:1016400005003F00200020002000200000000000D6
:10165000000007003F0006000C0030000C000600F0
:101660003F00000006003F000200040008001000D8
:101670003F000000000006001E00210021002100A4
:1016800021001E000000000006003F0009000900C4
:101690000900090006000000000006001E002100ED
:1016A0002100290011002E000000000005003F006D
:1016B00009000900190026000000000000000500D4
:1016C000120025002D00290012000000000000007B
:1016D0000500010001003F000100010000000000C2
:1016E000000006001F0020002000200020001F0036
:1016F000000000000700010007001C0030001C0073
:1017000007000100000007000F0038000E00030072
:101710000E0038000F0000000600210012000C002F
:101720000C00120021000000000006000000010073
:1017300002003C0002000100000000000500310032
:101740002900250023002100000000000000020005
:10175000FF00810000000000000000000000000009
:10176000050052005C00F0005C0052000000000028
:10177000000002008100FF000000000000000000E7
:10178000000000000400020001000100020000004F
:1017900000000000000003002000200020000000E6
:1017A0000000000000000000030000000100020033
:1017B0000000000000000000000004003A002A00C1
:1017C0002A003E00000000000000000004003F006E
:1017D00024002400180000000000000000000500A4
:1017E0001C00220022002200140000000000000063
:1017F00004001800240024003F0000000000000046
:10180000000004001C002A002A002C000000000038
:1018100000000000040004003E0005000500000078
:1018200000000000000004004C00920092007E00C6
:10183000000000000000000004003F00040004005D
:101840003800000000000000000001003D00000022
:101850000000000000000000000000000200800006
:101860007D000000000000000000000000000500F6
:101870003F0008000C0012002000000000000000E3
:1018800001003F0000000000000000000000000018
:10189000000007003E00020002003E0002000200BD
:1018A0003C00000004003E00020002003C0000007A
:1018B00000000000000005001C00220022002200A1
:1018C0001C000000000000000400FE0022002200B6
:1018D0001C00000000000000000004001C002200AA
:1018E0002200FE00000000000000000003003E0097
:1018F00004000200000000000000000000000400DE
:1019000024002A002A00120000000000000000004D
:10191000030002001F002200000000000000000081
:10192000000004001E00200020003E000000000017
:1019300000000000050002001C0020001C00020046
:1019400000000000000006000E0030000E000E0037
:1019500030000E0000000000050022001400080006
:1019600014002200000000000000050002009C009E
:10197000E0001C0002000000000000000400320033
:101980002A002600220000000000000000000300E2
:101990001000FF00810000000000000000000000B7
:1019A00002000000FF000000000000000000000036
:1019B000000003008100FF00100000000000000094
:1019C000000000000400030001000200030000000A
:1019D0000000000000000200FC00FC00000000000D
:1019E00000000000000000000700000000000000F0
:1019F00000000000000000000000000000000000E7
:101A000000030000FC13FC130000000000000000B5
:101A1000000000000000000000000500001C0000A5
:101A2000001C001C0000000000000000000000007E
:101A30000000000A00002002200EF80F38022002E9
:101A4000E00FF8022002200000000000090000382A
:101A5000066C0C4408C73884188C08980F000200E4
:101A600000000000000B0000FC108418840CF80734
:101A70008001C000300E18110C11001F00000A0078
:101A800000000FB81BEC11C4116C13381E000C8041
:101A90001F8010000000000200001C000000000079
:101AA0000000000000000000000000000000000036
:101AB000050000F81F0E7002400240000000000008
:101AC00000000000000000000004024002400E6020
:101AD000FC3F0000000000000000000000000000CB
:101AE0000000060000580070003C00700018000064
:101AF000000000000000000000000009000080005D
:101B000080008000F00F80008000800080000000D6
:101B10000000000003000000380008000000000082
:101B200000000000000000000000000000060000AF
:101B300000010001000100010001000000000000A0
:101B40000000000000000300000010001000000072
:101B5000000000000000000000000000000000077E
:101B600000200038000EC00370001E0006000000B8
:101B70000000000000000000090000F007180C0C35
:101B800018041004100C18F80FE003000000000007
:101B900000052000300018000C00FC1F00000000B1
:101BA00000000000000000000000080000381818C5
:101BB0001C041604138C11F81070100000000000B3
:101BC000000000080000040C0418C410E410B41055
:101BD0009C190C0F0000000000000000090002002A
:101BE00003C003600230021C02FC1F00020002005E
:101BF0000000000000080000F80CFC18441044101D
:101C00004410C408840F0000000000000000080019
:101C100000800FE00870105C104C10C018800F009E
:101C20000000000000000007040004000410041E6F
:101C30008407F4001C000000000000000000000009
:101C4000080000700FF8198C1084108410C81978DF
:101C50000F0000000000000000080000F8008C01E8
:101C60000419040D0C07D8017000000000000000EA
:101C700000000300004010401000000000000000C1
:101C800000000000000000000000000300004038D9
:101C900040180000000000000000000000000000EC
:101CA00000000000060000C001600320023006189A
:101CB0000C00000000000000000000000007000011
:101CC000400440044004400440044004000000007C
:101CD000000000000000070000180C100420026043
:101CE00003C00180000000000000000000000007A9
:101CF000200018000C0004168417CC0078000000A7
:101D000000000000000000000C0000C01F30301078
:101D100060D84F48484848C84FD84F1028702CC04A
:101D2000070A0010001EC003F0021C021C02780209
:101D3000C003001E001800000000090000FC1FFC8A
:101D40001F8410841084108410CC19780F000000B8
:101D5000000000090000F007180C0C180410041013
:101D60000C180808380E000000000000090000FCF4
:101D70001FFC1F0410041004100C180808F80F00B2
:101D80000000000000080000FC1FFC1F84108410ED
:101D9000841084108410000000000000000008007F
:101DA00000FC1FFC1F840084008400840084000069
:101DB00000000000000000090000F007180C0C18DB
:101DC000041084108C188808980F00000000000090
:101DD000090000FC1FFC1F80008000800080008044
:101DE00000FC1F000000000000030000FC1FFC1F9F
:101DF00000000000000000000000000000000000E3
:101E00000000080000040E0418041004100410045C
:101E100018FC0F0000000000000000090000FC1F7B
:101E2000FC1FE001300318060C0C0C180010000019
:101E300000000000080000FC1FFC1F001000100044
:101E4000100010001000000000000000000B000057
:101E5000FC1FFC1F7000C00100030003C0017800DC
:101E6000FC1FFC1F0000090000FC1FFC1F3000E0ED
:101E70000080010007000CFC1F00000000000009AA
:101E80000000F007180C0C18041004100C18180CA3
:101E9000F007000000000000090000FC1FFC1F0408
:101EA000010401040104018801F8000000000000A1
:101EB00000090000F007180C0C18041004100C188E
:101EC000183CF027000000000000090000FC1FFC87
:101ED0001F8400840084018407FC1E781800000021
:101EE000000000090000780C6C18C41084108410E5
:101EF0008C19180F00060000000000000804000400
:101F00000004000400FC1F040004000400000000A2
:101F10000000000000090000FC07FC0F0018001082
:101F200000100018000CFC0F000000000000090465
:101F3000003C00F001800F001C001EC007F8001CD0
:101F4000000000000000000B00007C00E00F001803
:101F5000000FE001E001001F0018E00F7C0000000E
:101F60000904100C18180E7003C001E00330061CA1
:101F70001C04100000000000000904000C003800E0
:101F8000E000801FC01F700038000C00000000003F
:101F90000000080000041C041E0413C41164103C5B
:101FA000100C100000000000000000050000FE7F83
:101FB000024002400240000000000000000000005B
:101FC000000000000702000E007800E0010007009A
:101FD0003C0020000000000000000000000402405F
:101FE00002400240FE7F00000000000000000000F0
:101FF00000000000000005000008000400040008C4
:102000000000000000000000000000000000000AC6
:102010000000001000100010001000100010001050
:10202000001000100000000004000004000C000874
:1020300000000000000000000000000000000000A0
:1020400000070000401E6012201320196009C01F05
:1020500000000000000000000000080000FC1FC09D
:102060000C6018201020106018C00F000000000045
:10207000000000080000C00F601820102010601839
:10208000C00C80040000000000000000080000C038
:102090000F6018201020106018FC1FFC1F000000AB
:1020A0000000000000080000C00F6019201120117E
:1020B0006019C00980010000000000000000062037
:1020C000002000F81F2C0024002400000000000065
:1020D00000000000000000080000C04F60D8209001
:1020E00020906098E0FFE07F00000000000000000A
:1020F000080000FC1FC0006000200020006000C03D
:102100001F0000000000000000030000E41F0400A6
:1021100000000000000000000000000000000000BF
:102120000000030080E4FFE43F0000000000000026
:102130000000000000000000000000070000FC1F7D
:1021400000038006C00C60082010000000000000A2
:1021500000000000020000FC1F0000000000000062
:10216000000000000000000000000000000C000063
:10217000E01FC000200020006000C01FC000200041
:1021800020006000C01F080000E01FC000600020A9
:102190000020006000C01F000000000000000008D8
:1021A0000000C00F6018201020106018C00C8007BD
:1021B0000000000000000000080000E0FFC00C600C
:1021C00018201020106018C00F0000000000000050
:1021D00000080000C00F6018201020106018E0FFF9
:1021E000E0FF0000000000000000050000E01FC04C
:1021F000002000200000000000000000000000009F
:10220000000000070000C009601920132013601AA5
:10221000400E00000000000000000000062000202A
:1022200000FC0F201820100010000000000000002B
:102230000000000000080000E00F001C001000106B
:102240000018E01FE01F0000000000000000082050
:1022500000E0008003001E001C0007E00160000099
:10226000000000000000000C0000E0008007001CDF
:10227000000FE001E001000F001C800FE0012000D2
:102280000800106018C00C80078007C00C60182080
:10229000100000000000000000082000E00080C3E3
:1022A000007E001C0007E00160000000000000004C
:1022B00000000700002018201E2013A011E010606D
:1022C0001000000000000000000000050001C00335
:1022D000FC3E06600240000000000000000000001C
:1022E00000000000020000FFFF00000000000000EE
:1022F0000000000000000000000000000005024097
:1023000002400E60F83F8001000000000000000065
:102310000000000000000700008001800080000035
:102320000100018001000000000000000000000426
:10233000F83F08200820F83F0000000000000000DF
:10234000000000000000000011241FBECFEFD8E005
:10235000DEBFCDBF11E0A0E0B1E0E6E6F7E302C0EA
:1023600005900D92A431B107D9F725E0A4E1B1E0C1
:1023700001C01D92A233B207E1F70E94EC180C9441
:10238000B11B0C9400000F931F93CF93DF9300D0E9
:10239000CDB7DEB78C0128E643E462E0CE010196BA
:1023A0000E94A11889819A81982789279827F80186
:1023B000918380830F900F90DF91CF911F910F91A8
:1023C00008950F931F93CF93DF9300D0CDB7DEB75F
:1023D0008C0128E645E462E0CE0101960E94A11836
:1023E00089819A81982789279827F801918380838A
:1023F0000F900F90DF91CF911F910F9108950F9340
:102400001F93CF93DF9300D0CDB7DEB78C0128E6C2
:1024100047E462E0CE0101960E94A11889819A8169
:10242000982789279827F801918380830F900F9030
:10243000DF91CF911F910F9108958F929F92AF924C
:10244000BF92CF92DF92EF92FF920F931F93CF93A1
:10245000DF937C018B01EA0180912201909123019D
:1024600090932101809320018EE191E00E94C3119D
:102470008CE191E00E94E1118AE191E00E94FF115C
:10248000C0901401D0901501D0922301C092220176
:1024900020E030E0A9016091160170911701809150
:1024A0001801909119010E94E519A0902001B090A7
:1024B0002101811111C0B6016A197B09072E000C98
:1024C000880B990B0E94941A609316017093170160
:1024D0008093180190931901B6016A197B09072EA0
:1024E000000C880B990B0E94941A209116013091D0
:1024F000170140911801509119010E94791920E0AB
:1025000030E040E05FE30E94441B4B015C0180929D
:10251000160190921701A0921801B09219016091D2
:102520001E0170911F01072E000C880B990B0E9451
:10253000941A20912E0130912F0140913001509139
:1025400031010E947819A50194010E94441B20E0EA
:1025500030E043E053E40E94EA1920E030E04AE72B
:1025600054E40E94EA199B01AC01F701608171817A
:10257000828193810E947919F7016083718382833C
:10258000938360911C0170911D01072E000C880B34
:10259000990B0E94941A20912A0130912B014091AD
:1025A0002C0150912D010E947819A50194010E94DF
:1025B000441B20E030E043E053E40E94EA1920E0AD
:1025C00030E04AE754E40E94EA199B01AC01F801AB
:1025D00060817181828193810E947919F801608301
:1025E00071838283938360911A0170911B01072E7E
:1025F000000C880B990B0E94941A209126013091AF
:10260000270140912801509129010E947819A501C4
:1026100094010E94441B20E030E043E053E40E9418
:10262000EA1920E030E04AE754E40E94EA199B01ED
:10263000AC01688179818A819B810E9479196883C4
:1026400079838A839B83DF91CF911F910F91FF90B4
:10265000EF90DF90CF90BF90AF909F908F900895B4
:102660000F931F93CF93DF9300D000D000D0CDB74E
:10267000DEB7CE0105960E94C311CE0103960E94DB
:10268000E111CE0101960E94FF116D817E81072E1E
:10269000000C880B990B0E94941A60932E01709382
:1026A0002F0180933001909331016B817C81072E43
:1026B000000C880B990B0E94941A60932A01709366
:1026C0002B0180932C0190932D0169817A81072E33
:1026D000000C880B990B0E94941A6093260170934A
:1026E0002701809328019093290100E911E0CE0190
:1026F00005960E94C311CE0103960E94E111CE01FE
:1027000001960E94FF116D817E81072E000C880BBF
:10271000990B0E94941A20912E0130912F01409123
:102720003001509131010E94791920E030E040E001
:102730005FE30E94441B60932E0170932F018093EE
:102740003001909331016B817C81072E000C880B46
:10275000990B0E94941A20912A0130912B014091EB
:102760002C0150912D010E94791920E030E040E0C9
:102770005FE30E94441B60932A0170932B018093B6
:102780002C0190932D0169817A81072E000C880B12
:10279000990B0E94941A20912601309127014091B3
:1027A0002801509129010E94791920E030E040E091
:1027B0005FE30E94441B609326017093270180937E
:1027C0002801909329018FE19EE40197F1F700C061
:1027D00000000150110909F08ACF26960FB6F8942F
:1027E000DEBF0FBECDBFDF91CF911F910F91089536
:1027F00048E66BE681E00E94521848E66BE180E013
:102800000E9452182FEF81EE94E0215080409040BA
:10281000E1F700C000000C943013CF93DF93EC017C
:102820000E94401880ED0E9448188DE00E944818D0
:102830000E943C180E94401881ED0E94481880E0D8
:102840000E946B188F718883DF91CF910C943C1894
:102850000F931F93CF93DF9300D0CDB7DEB78C01DA
:1028600028E642E462E0CE0101960E94A118698147
:102870007A81072E000C880B990B0E94941A20E095
:1028800030E04AEA53E40E94EA1928EB3EE142E1D3
:1028900052E40E947919F8016083718382839383E3
:1028A0000F900F90DF91CF911F910F91089581ECC0
:1028B0008093850080E8809384001092800081E0FE
:1028C0008093810080936F00789408951F920F92F7
:1028D0000FB60F9211248F939F9381EC8093850004
:1028E00080E88093840080911401909115010196F5
:1028F00090931501809314019F918F910F900FBEBB
:102900000F901F901895EF92FF921F93CF93DF9334
:1029100000D000D01F92CDB7DEB71C821B821A8276
:1029200019821D8254E6E52EF12C1B81CE010396FF
:102930000E94C3118B819C81810F911D97FD01968F
:10294000959587959C838B8381E0E81AF10869F758
:102950000E94401880ED0E9448188BE10E944818A0
:1029600080E80E9448180E943C1834E6E32EF12CBF
:102970001981CE0101960E94C31189819A81810F2C
:10298000911D97FD0196959587959A83898381E09E
:10299000E81AF10869F7CE0105960E940D140E940D
:1029A000401880ED0E9448188BE10E94481880E092
:1029B0000E9448180E943C180F900F900F900F90A3
:1029C0000F90DF91CF911F91FF90EF900895CF93DB
:1029D000C82F0E94401888E70E94481880E80E948B
:1029E00048188C2F0E944818CF910C943C1822E371
:1029F00031E098E0F90180E010828F5F38968038EE
:102A0000D9F791502F5F3F4F9111F4CF8EEA0E947A
:102A1000E71488EA0E94E7148FE30E94E71480E23B
:102A20000E94E71482E00E94E71480E40E94E71409
:102A300083ED0E94E71480E00E94E71481EA0E947F
:102A4000E71488EC0E94E7148AED0E94E71482E103
:102A50000E94E71480EB0E94E71481E80E94E714CB
:102A600080E80E94E71484EA0E94E71486EA0E9444
:102A7000E71485ED0E94E71480E80E94E71489EDD1
:102A80000E94E71482EC0E94E7148BED0E94E71489
:102A900080E20E94E7148DE80E94E71484E10E941E
:102AA000E7148EE20E94E7148FEA0E94E71487E29F
:102AB0000E94E71480E00E94E71480E00E94E7147F
:102AC00080E00E94E71483E00E94E71480E00E9407
:102AD000E7148FEF0C94E71420912501E091240175
:102AE00098E0299F900111242E5C3E4FE20FF32FB6
:102AF000F11D9081892B80830E94401888E70E94F5
:102B0000481880E40E9448188091250120912401F2
:102B1000E8E08E9FC00111248E5C9E4F820F911DB4
:102B2000FC0180810E9448180C943C18809125017A
:102B30002091240138E0839FC00111248E5C9E4FB8
:102B4000820F911DFC0110820E94401888E70E94AC
:102B5000481880E40E94481880E00E9448180C94AD
:102B60003C18CF93DF93C82FD62F8F700E94E714A5
:102B70008C2F82958F70805F0E94E71480EB8D0F01
:102B80000E94E714C0932501D0932401DF91CF91D7
:102B9000089590912401690F90912501890F0C945B
:102BA000B115CF93DF9360E080E00E94B115C0E0E3
:102BB0006C2F80E00E94B115D0E08FEF0E946C1561
:102BC000DF5FD038D1F7CF5FC83091F760E080E0A9
:102BD0000E94B115C0E06C2F80E00E94B115D0E0DA
:102BE0000E949615DF5FD038D9F7CF5FC83099F7CC
:102BF00022E331E0F90180E010828F5F389680385F
:102C0000D9F7C1502F5F3F4FC111F4CF60E080E092
:102C1000DF91CF910C94B115BF92CF92DF92EF92DA
:102C2000FF920F931F93CF93DF93B62EC0EEC80F82
:102C3000DCE00E94961561E080E00E94C9150E94C8
:102C400096156FEF81E00E94C915D15091F760E0B1
:102C500084EF0E94C91589E1C89FE00111248E010B
:102C60000F5F1F4F6996F12CE12CC8018851964ED9
:102C70006C0103C0EE24E394F12C92E7F601EE0D13
:102C8000FF1DB91651F084E7B8120AC0F801EE0D25
:102C9000FF1DEE0FFF1FE859FF4F84910E946C1536
:102CA00091E06FEF81E0E91611F061E080E00E94B1
:102CB000C915EA94EF28F1F60E5F1F4FC017D10730
:102CC00091F6DF91CF911F910F91FF90EF90DF90E0
:102CD000CF90BF9008950F931F93CF93DF938052AF
:102CE00099E0899F80011124D0E0C0E0F801EC0F49
:102CF000FD1FEE0FFF1FE65DFC4E84910E946C15D8
:102D000060E081E00E94C9152196C830D10571F7B5
:102D1000DF91CF911F910F9108951F93CF93DF9370
:102D2000EC01623781F410E004C062E70E940C16E7
:102D30001F5FFE01E10FF11D80818111F6CFDF9150
:102D4000CF911F91089510E0643789F010E06D363F
:102D5000B1F7FE01E10FF11D8081882381F30E940C
:102D60006B161F5FF6CF64E70E940C161F5FFE0113
:102D7000E10FF11D80818111F6CFE1CFFC01369684
:102D80009C012D5F3F4FDC014D91CD015291119778
:102D90005C93408382179307B1F70895CF92DF9237
:102DA000FF920F931F93CF93DF9300D000D000D0FA
:102DB0001F92CDB7DEB7F62E27E0ECE0F1E08E01F2
:102DC0000F5F1F4FD80101900D922A95E1F731E076
:102DD00097FF04C091958195910930E0E0E02AE0E9
:102DE000C22ED12C21E02E0FE00FF12FF11DB601E4
:102DF0000E945019805D8083CB01E22F18161906BE
:102E00008CF3E00FF12FF11D40E3CF01801B910BFC
:102E10002530E8F02BE2311101C02DE2F801E80F76
:102E2000F91F2083C8010E94BE166F2DC8010E94A1
:102E30008D1627960FB6F894DEBF0FBECDBFDF917B
:102E4000CF911F910F91FF90DF90CF9008952F5F4A
:102E50004193DBCFFF920F931F93CF93DF93C82F44
:102E6000042F122F862F8770F82ED62FD695D69541
:102E7000D695621316C011E001C0110F8A95EAF7CA
:102E80000C1730F4DF91CF911F910F91FF900895AF
:102E90006D2F8C2F0E94B115812F0E946C15CF5F72
:102EA000EFCFC413EFCF022F0695069506956D2F31
:102EB0008C2F0E94B1158FEF01C0880FFA94EAF7AA
:102EC0000E946C15DF5FD017B8F0602F8C2F0E9426
:102ED000B115177027E030E0211B31098FEF90E02A
:102EE00002C0959587952A95E2F7DF91CF911F91C2
:102EF0000F91FF900C946C156D2F8C2F0E94B115C3
:102F00008FEFDECF0F931F93CF93DF93082FD62F32
:102F1000C42F122F262F0E942A17212F4C2F612FEA
:102F2000802F0E942A17212F402F6D2F802F0E9463
:102F30002A17212F4C2F6D2F8C2FDF91CF911F91AE
:102F40000F910C942A1788E18093C10086E080934A
:102F5000C20087E68093C40008959091C00095FF59
:102F6000FCCF8093C6000895CF93C82F82958F70B1
:102F7000805D0E94AD178C2F8F70805DCF910C9477
:102F8000AD17CF93DF93EC018991811103C0DF91DD
:102F9000CF9108950E94AD17F7CF8091C00087FFB1
:102FA000FCCF8091C6000895FC0136969C012D5FF0
:102FB0003F4FDC014D91CD01529111975C934083BD
:102FC00082179307B1F70895EF92FF920F931F9323
:102FD000CF93DF9300D000D000D01F92CDB7DEB7E3
:102FE00027E0ECE0F1E08E010F5F1F4FD801019068
:102FF0000D922A95E1F731E097FF04C091958195F4
:10300000910930E0E0E02AE0E22EF12C21E02E0FE1
:10301000E00FF12FF11DB7010E945019805D8083F0
:10302000CB01E22F181619068CF3E00FF12FF11DDA
:1030300040E3CF01801B910B2530D8F02BE23111FA
:1030400001C02DE2F801E80FF91F2083C8010E949A
:10305000D417C8010E94C11727960FB6F894DEBF97
:103060000FBECDBFDF91CF911F910F91FF90EF90D9
:1030700008952F5F4193DDCF84E98093BC000895CC
:1030800084EA8093BC008091BC0087FFFCCF089548
:103090008093BB0084E88093BC008091BC0087FFD4
:1030A000FCCF08951F93CF93DF93C82FD62F142FF3
:1030B0000E944018812F880F0E9448188D2F0E946F
:1030C00048188C2F0E94481884E98093BC00DF9137
:1030D000CF911F91089520E4829FC001112484683C
:1030E0008093BC008091BC0087FFFCCF8091BB0027
:1030F0000895FF920F931F93CF93DF93F82E192F0C
:10310000062FC42FD22F0E9440188D2F880F0E94A7
:1031100048188C2F0E944818CF2DD12F0C0F1D2F2F
:10312000111DC017D10749F484E98093BC00DF91D9
:10313000CF911F910F91FF90089589910E94481897
:10314000F0CFCF92DF92EF92FF920F931F93CF9326
:10315000DF938C01D62FF42EC22F0E9440188C2FA3
:10316000880F0E9448188F2D0E94481884E9809388
:10317000BC000E9440188C2F880F81600E94481864
:103180007801CD2FD0E06801CC0EDD1EEC14FD04DB
:1031900099F42197C00FD11F80E00E946B1888839B
:1031A00084E98093BC00DF91CF911F910F91FF9034
:1031B000EF90DF90CF90089581E00E946B18F701A7
:1031C00081937F01E3CF1092B9008CE08093B80027
:1031D00084E08093BC000895CF93DF93CDB7DEB732
:1031E0002C970FB6F894DEBF0FBECDBF0E94E31838
:1031F0000E94F7140E94F8130E94571419861A8629
:103200001B861C861D821E821F82188619821A82C6
:103210001B821C820E94D11560E080E00E94B115E3
:10322000AE014F5F5F4FBE016B5F7F4FCE010996CE
:103230000E941D1264E780E091E00E948D1669856E
:103240007A858B859C850E945C1ACB0164E70E947D
:10325000CE1662E080E00E94B11564E784E091E060
:103260000E948D166D817E818F8198850E945C1AE7
:10327000CB0164E70E94CE1664E080E00E94B115A5
:1032800064E788E091E00E948D1669817A818B81E4
:103290009C810E945C1ACB0164E70E94CE16BCCFD1
:1032A00097FB072E16F4009407D077FD09D00E94F3
:1032B000641907FC05D03EF4909581959F4F0895C1
:1032C000709561957F4F0895AA1BBB1B51E107C004
:1032D000AA1FBB1FA617B70710F0A61BB70B881FA6
:1032E000991F5A95A9F780959095BC01CD01089535
:1032F0005058BB27AA270E9490190C940A1B0E94C1
:10330000FC1A38F00E94031B20F039F49F3F19F497
:1033100026F40C94F91A0EF4E095E7FB0C94F31ADA
:10332000E92F0E941B1B58F3BA1762077307840723
:10333000950720F079F4A6F50C943D1B0EF4E0956A
:103340000B2EBA2FA02D0B01B90190010C01CA015F
:10335000A0011124FF27591B99F0593F50F4503E0A
:1033600068F11A16F040A22F232F342F4427585FFC
:10337000F3CF469537952795A795F0405395C9F714
:103380007EF41F16BA0B620B730B840BBAF09150CC
:10339000A1F0FF0FBB1F661F771F881FC2F70EC06B
:1033A000BA0F621F731F841F48F48795779567953E
:1033B000B795F7959E3F08F0B0CF9395880F08F02A
:1033C0009927EE0F9795879508950E94CF1A08F4D4
:1033D00081E008950E94FE190C940A1B0E94031BB1
:1033E00058F00E94FC1A40F029F45F3F29F00C9439
:1033F000F31A51110C943E1B0C94F91A0E941B1BDA
:1034000068F39923B1F3552391F3951B550BBB2713
:10341000AA2762177307840738F09F5F5F4F220F58
:10342000331F441FAA1FA9F335D00E2E3AF0E0E84F
:1034300032D091505040E695001CCAF72BD0FE2F99
:1034400029D0660F771F881FBB1F2617370748072D
:10345000AB07B0E809F0BB0B802DBF01FF279358E5
:103460005F4F3AF09E3F510578F00C94F31A0C949C
:103470003E1B5F3FE4F3983ED4F3869577956795BE
:10348000B795F7959F5FC9F7880F911D969587951A
:1034900097F90895E1E0660F771F881FBB1F621739
:1034A00073078407BA0720F0621B730B840BBA0BF7
:1034B000EE1F88F7E09508950E94631A6894B11191
:1034C0000C943E1B08950E94231B88F09F5798F090
:1034D000B92F9927B751B0F0E1F0660F771F881F19
:1034E000991F1AF0BA95C9F714C0B13091F00E9433
:1034F0003D1BB1E008950C943D1B672F782F882762
:10350000B85F39F0B93FCCF3869577956795B39559
:10351000D9F73EF490958095709561957F4F8F4FC8
:103520009F4F0895E89409C097FB3EF490958095CD
:10353000709561957F4F8F4F9F4F9923A9F0F92F79
:1035400096E9BB279395F695879577956795B795F7
:10355000F111F8CFFAF4BB0F11F460FF1BC06F5FDD
:103560007F4F8F4F9F4F16C0882311F096E911C0EF
:10357000772321F09EE8872F762F05C0662371F010
:1035800096E8862F70E060E02AF09A95660F771F24
:10359000881FDAF7880F9695879597F90895990F00
:1035A0000008550FAA0BE0E8FEEF16161706E8070D
:1035B000F907C0F012161306E407F50798F0621B2E
:1035C000730B840B950B39F40A2661F0232B242B03
:1035D000252B21F408950A2609F4A140A6958FEF22
:1035E000811D811D089597F99F6780E870E060E074
:1035F00008959FEF80EC089500240A94161617068C
:1036000018060906089500240A94121613061406D3
:1036100005060895092E0394000C11F4882352F036
:10362000BB0F40F4BF2B11F460FF04C06F5F7F4FEE
:103630008F4F9F4F089557FD9058440F551F59F0D5
:103640005F3F71F04795880F97FB991F61F09F3F8F
:1036500079F087950895121613061406551FF2CFB8
:103660004695F1DF08C0161617061806991FF1CF08
:1036700086957105610508940895E894BB2766272F
:103680007727CB0197F908950E94571B0C940A1BCA
:103690000E94FC1A38F00E94031B20F0952311F0C1
:1036A0000C94F31A0C94F91A11240C943E1B0E94EA
:1036B0001B1B70F3959FC1F3950F50E0551F629F40
:1036C000F001729FBB27F00DB11D639FAA27F00D7B
:1036D000B11DAA1F649F6627B00DA11D661F829FA2
:1036E0002227B00DA11D621F739FB00DA11D621F87
:1036F000839FA00D611D221F749F3327A00D611DA4
:10370000231F849F600D211D822F762F6A2F112485
:103710009F5750409AF0F1F088234AF0EE0FFF1FB8
:10372000BB1F661F771F881F91505040A9F79E3F0F
:10373000510580F00C94F31A0C943E1B5F3FE4F3A8
:10374000983ED4F3869577956795B795F795E79565
:103750009F5FC1F7FE2B880F911D9695879597F96E
:063760000895F894FFCF6C
:10376600583A2000593A20005A3A20002B3030307F
:0437760030300000EF
:00000001FF
