:100000000C9434000C9449000C9449000C94490061
:100010000C9449000C9449000C9449000C9449003C
:100020000C9449000C9449000C9449000C9449002C
:100030000C9449000C9449000C9449000C9449001C
:100040000C9449000C9449000C9449000C9449000C
:100050000C9449000C9449000C9449000C944900FC
:100060000C9449000C94490011241FBECFEFD8E036
:10007000DEBFCDBF11E0A0E0B1E0ECE4F2E002C0F1
:1000800005900D92A031B107D9F70E94E4000C94BD
:1000900024010C94000088E18093C10086E08093E5
:1000A000C20087E68093C40008959091C00095FF38
:1000B000FCCF8093C6000895CF93C82F82958F7090
:1000C000805D0E9455008C2F8F70805DCF910C94C5
:1000D0005500CF93DF93EC018991811103C0DF912B
:1000E000CF9108950E945500F7CF8091C00087FFFF
:1000F000FCCF8091C6000895FC0136969C012D5FCF
:100100003F4FDC014D91CD01529111975C9340839B
:1001100082179307B1F70895EF92FF920F931F9301
:10012000CF93DF9300D000D000D01F92CDB7DEB7C1
:1001300027E0E8E0F1E08E010F5F1F4FD80101904A
:100140000D922A95E1F731E097FF04C091958195D2
:10015000910930E0E0E02AE0E22EF12C21E02E0FC0
:10016000E00FF12FF11DB7010E94FC00805D80833C
:10017000CB01E22F181619068CF3E00FF12FF11DB9
:1001800040E3CF01801B910B2530D8F02BE23111D9
:1001900001C02DE2F801E80FF91F2083C8010E9479
:1001A0007C00C8010E94690027960FB6F894DEBF54
:1001B0000FBECDBFDF91CF911F910F91FF90EF90B8
:1001C00008952F5F4193DDCF0E944B0080E091E0C6
:1001D0000E9469008CE790E00E948C0085E091E02D
:1001E0000E9469002FEF83EC99E0215080409040FD
:1001F000E1F700C00000EACF97FB072E16F4009449
:1002000007D077FD09D00E94100107FC05D03EF40D
:10021000909581959F4F0895709561957F4F0895B2
:10022000AA1BBB1B51E107C0AA1FBB1FA617B7071C
:1002300010F0A61BB70B881F991F5A95A9F7809538
:0C0240009095BC01CD010895F894FFCF0B
:10024C0068656C6C6F0A0D002B303030303000005C
:00000001FF
