:100000000C9434000C9449000C9449000C94490061
:100010000C9449000C9449000C9449000C9449003C
:100020000C9449000C9449000C9449000C9449002C
:100030000C9449000C9449000C9449000C9449001C
:100040000C9449000C9449000C9449000C9449000C
:100050000C9449000C9449000C9449000C944900FC
:100060000C9449000C94490011241FBECFEFD8E036
:10007000DEBFCDBF13E0A0E0B1E0E4E2F9E002C0F2
:1000800005900D92AA30B107D9F70E9425040C946F
:1000900090040C94000084B18C6284B9249A83E5A6
:1000A0008CBD08958EBD0DB407FEFDCF8EB50895AD
:1000B000CF93DF93EC018FEF0E94520089838FEF83
:1000C0000E9452008A838FEF0E9452008B838FEF31
:1000D0000E9452008C83DF91CF910895CF932A9A8A
:1000E0008FE99FE00197F1F700C00000CAE08FEFB1
:1000F0000E945200C150D9F72A9A8FEFCF910C94E9
:100100005200FF920F931F93CF93DF93D42F152F9D
:10011000062FF72EC22F80640E9452008F2D0E945E
:100120005200802F0E945200812F0E9452008D2F7A
:100130000E9452008C2F8160DF91CF911F910F910F
:10014000FF900C945200CF93C9E08FEF0E945200B1
:100150008F3F11F4C150C9F7CF910895CF93DF932A
:10016000EC010E94A3008883823028F4CE01DF9145
:10017000CF910C945800DF91CF910895CF93DF93E6
:10018000EC010E94A3008883823028F4CE01DF9125
:10019000CF910C945800DF91CF910895CF9387FFB2
:1001A00005C080E091E0CF910C944E03811103C013
:1001B00082E191E0F8CFC82F86FF04C080E291E091
:1001C0000E944E03C5FF04C083E391E00E944E03EA
:1001D000C4FF04C084E491E00E944E03C3FF04C046
:1001E0008CE591E00E944E03C2FF04C089E691E0D5
:1001F0000E944E03C1FF04C08CE791E00E944E03B1
:10020000C0FF03C081E991E0CECFCF910895CF9395
:10021000DF93EC0188810E94CE008881823008F053
:1002200065C082EA91E00E944E03898186FF5BC02F
:100230008AEB91E00E944E0382EC91E00E944E0313
:10024000898186FF4DC08EE091E00E944E038BEDC8
:1002500091E00E944E038B8187FF04C089EE91E0FC
:100260000E944E038A8180FF04C083EF91E00E94C8
:100270004E038A8181FF04C08DEF91E00E944E03FE
:100280008A8182FF04C087E092E00E944E038A8147
:1002900083FF04C081E192E00E944E038A8184FFC3
:1002A00004C08BE192E00E944E038A8185FF04C066
:1002B00085E292E00E944E038A8186FF04C08FE2AD
:1002C00092E00E944E038A8187FF04C089E392E096
:1002D0000E944E0381ED91E0DF91CF910C944E038B
:1002E00080ED91E0B2CF84ED91E0AFCFDF91CF917F
:1002F0000895CF93DF93EC0188810E94CE0088811E
:10030000823098F581E492E00E944E0380E00E94E2
:100310005A0381ED91E00E944E0384E592E00E9431
:100320004E038B818F71813089F488E692E00E94C0
:100330004E038AE992E00E944E038C810E945A0388
:1003400081ED91E0DF91CF910C944E03823019F44E
:1003500083E792E0ECCF843019F481E892E0E7CFB4
:100360008830D9F38CE892E0E2CFDF91CF91089505
:10037000CF938FEF0E9452002A988FEF0E94520075
:1003800024E940E050E0BA0180E00E9481000E9430
:10039000A300C82F8FEF0E9452002A9A8FEF0E946D
:1003A00052008C2FCF910895CF93DF93EC018FEF04
:1003B0000E9452002A988FEF0E94520026E84AEAD3
:1003C00051E060E070E088E00E948100CE010E9470
:1003D000AE008FEF0E9452002A9A8FEFDF91CF91EB
:1003E0000C945200CF93DF93EC018FEF0E945200E8
:1003F0002A988FEF0E94520020E040E050E0BA01BE
:100400008AE30E948100CE010E94BE008FEF0E940D
:1004100052002A9A8FEFDF91CF910C945200CF9324
:100420008FEF0E9452002A988FEF0E94520020E026
:1004300040E050E0BA0187E30E9481000E94A300DF
:10044000C82F8FEF0E9452002A9A8FEF0E9452000D
:100450008C2FCF910895CF938FEF0E9452002A984E
:100460008FEF0E94520020E040E050E060E070E436
:1004700089E20E9481000E94A300C82F8FEF0E9492
:1004800052002A9A8FEF0E9452008C2FCF9108952C
:100490001F93CF93DF9300D000D01F92CDB7DEB76C
:1004A0000E946E001BE00E94B8018983813031F503
:1004B000CE0101960E94D4018981813009F58D8198
:1004C00015E68A3AE9F40E940F028983823018F413
:1004D0000E942B0289838FE39CE90197F1F700C00A
:1004E00000008981811116C0CE0101960E94F2019F
:1004F0008A818095881F8827881F03C0115099F62C
:1005000081E00F900F900F900F900F90DF91CF919F
:100510001F9108951150B9F6F3CF8F929F92AF9229
:10052000BF92CF92DF92EF92FF920F931F93CF93E0
:10053000DF934B015C016A0179018FEFF901808340
:100540000E9452002A988FEF0E94520020E0B501CD
:10055000A40181E10E9481000E94A300082FCBE149
:10056000D6E08F3F71F58FEF0E9452002A9A8FEFED
:100570000E945200802FDF91CF911F910F91FF9029
:10058000EF90DF90CF90BF90AF909F908F900895A5
:100590008FEF0E945200182F8F3F99F08E3FA1F4E9
:1005A000E601FEEFDF1A8FEF0E9452008993CC160E
:1005B000DD06C9F78FEF0E9452008FEF0E945200B4
:1005C00003C0219729F71FEFF7011083CCCF8F923B
:1005D0009F92AF92BF92CF92DF92FF920F931F93A1
:1005E000CF93DF934B015C016A0189018FEFF90121
:1005F00080830E9452002A988FEF0E94520020E0D0
:10060000B501A40188E10E9481000E94A300F82E98
:10061000811117C08EEF0E945200E601FEEFDF1A33
:1006200089910E945200CC15DD05D1F78FEF0E9411
:1006300052008F3FD9F38F718530B9F08FEFF801F9
:1006400080838FEF0E9452002A9A8FEF0E945200FF
:100650008F2DDF91CF911F910F91FF90DF90CF9061
:10066000BF90AF909F908F900895F80180838FEF97
:100670000E9452008823D9F3E4CF8093C400909362
:10068000C500E1ECF0E0808188618083089590915D
:10069000C00095FFFCCF8093C6000895CF93DF93F1
:1006A000EC01899118161CF0DF91CF9108950E94FA
:1006B0004703F7CFCF93282F22952F70C82FCF70E5
:1006C00080E32A3008F087E3820F20E3CA3008F085
:1006D00027E3C20F0E9447038C2FCF910C9447034E
:1006E000CF93C82F892F0E945A038C2FCF910C943F
:1006F0005A03CF93DF93C82F80E3C43630F08CE9E0
:100700008C0F843690F0C85C82E3D0E3CA3080F46A
:10071000803389F00E9447038D2F0E94470380E3B6
:100720008C0FDF91CF910C944703C82F81E3EDCF5D
:10073000CA50DF5FEBCFD03379F7F1CFCF93C82F1B
:1007400087FF04C08DE20E944703C1958C2FCF9193
:100750000C947903FF920F931F93CF93DF93EC01D7
:1007600080E3C03197E2D907F8F490E3F92EC83E50
:1007700093E0D907E8F400E3C436D105E8F410E3C8
:10078000CA30D105E8F48033F1F4F8121EC000330A
:10079000F9F4103301F58C2F805DDF91CF911F911B
:1007A0000F91FF900C944703C051D7428F5FD9CF70
:1007B000C85ED340F394DBCFC456D1090F5FDCCFC2
:1007C0002A971F5FDDCF0E9447038F2D0E944703AA
:1007D000802F0E944703812F0E944703DCCFCF93D5
:1007E000DF93EC0197FF06C08DE20E944703D1958D
:1007F000C195D109CE01DF91CF910C94AA038091CC
:10080000C00087FFFCCF8091C6000895EF92FF9251
:100810000F931F93CF93DF938C01D62F7C01C0E001
:100820000E94FF03CF5FF70181937F01CD1710F482
:100830008D30B1F7C00FD12FD11D1882DF91CF912C
:100840001F910F91FF90EF900895CF93DF93CDB755
:10085000DEB7CD51D2400FB6F894DEBF0FBECDBF8C
:100860008CE1EDEEF2E0DE01AF5FBD4F01900D9245
:100870008A95E1F787E690E00E943D030E944B00D5
:100880000E944802882329F082EA92E00E944E03E7
:10089000FFCF80EC92E00E944E039E01235E3D4F0D
:1008A000AE014F5F5D4F60E070E0CB010E94E70258
:1008B0002FEF83ED90E3215080409040E1F700C09E
:1008C00000009E01235E3D4FAE014F5F5F4F60E031
:1008D00070E0CB010E948D028230E8F4C35EDD4FF0
:1008E0008881CD51D2408E3FB1F48E010F5F1D4FF4
:1008F000FE0131967F01F80181918F01811105C0C0
:1009000081ED91E00E944E03FFCFF70181917F01BD
:100910000E944703F0CF86ED92E00E944E03F4CF91
:04092000F894FFCF79
:10092400094572726F723A204D5342203D20310DB9
:100934000A0009436172642052656164790D0A00FA
:1009440009506172616D65746572204572726F72CF
:100954000D0A000941646472657373204572726FF5
:10096400720D0A00094572617365205365717565DE
:100974006E6365204572726F720D0A00094352431B
:10098400204572726F720D0A0009496C6C656761CB
:100994006C20436F6D6D616E640D0A0009457261D0
:1009A4007365205265736574204572726F720D0A07
:1009B4000009496E2049646C652053746174650DA7
:1009C4000A00094361726420506F77657220557084
:1009D400205374617475733A200052454144590D93
:1009E4000A0009434353205374617475733A200019
:1009F400300D0A00425553590D0A0009564444204B
:100A040057696E646F773A2000322E372D322E38B4
:100A14002C2000322E382D322E392C2000322E3943
:100A24002D332E302C2000332E302D332E312C201C
:100A340000332E312D332E322C2000332E322D3321
:100A44002E332C2000332E332D332E342C20003320
:100A54002E342D332E352C2000332E352D332E36C7
:100A64000009436F6D6D616E642056657273696F22
:100A74006E3A200009566F6C7461676520416363A8
:100A840065707465643A2000322E372D332E365645
:100A94000D0A004C4F5720564F4C544147450D0A00
:100AA4000052455345525645440D0A004E4F5420BA
:100AB400444546494E45440D0A00094563686F3A6A
:100AC40020004572726F7220696E697469616C6985
:100AD4007A61696E6720534420434152440D0A00F1
:100AE4005344204361726420696E697469616C695E
:100AF4007A65640D0A004572726F722072656164D2
:100B0400696E6720736563746F720D0A0074686997
:100B140073206973206120746573740A7365636F4D
:0A0B24006E64206C696E652E0000FF
:00000001FF
