:100000000C94CD110C941B120C9455120C94EA1103
:100010000C94EA110C94EA110C94EA110C94EA1174
:100020000C94EA110C94EA110C94EA110C94FB1153
:100030000C94EA110C94EA110C94EA110C94EA1154
:100040000C94EA110C94EA110C94EA110C94EA1144
:100050000C94EA110C94EA110C94EA110C94EA1134
:100060000C94EA110C94EA11070000000000000053
:100070000000000000000000000000000000000080
:100080000000000000000000000000000000000070
:100090000000000000000000000008000000000058
:1000A00000000000000000007C000000FF003300A2
:1000B000FF003300FF0033007C0000000000000060
:1000C0000000000000000000000000000900000027
:1000D0000000000000003C0000003C0000003C006C
:1000E0000000000000003C0000003C0000003C005C
:1000F00000000000000000000000000000000C00F4
:100100000000020010001E0090001F00F0001F0001
:10011000FE0003007E001E009E001F00F0001F0076
:10012000FE0003007E0002001E0000001000000020
:100130000A000000000078000400FC000C00FC0035
:100140000C00FF003F00FF003F00FF003F00CC001D
:100150000F00CC000F008800070000000000000026
:1001600000000C00000030003800380038003C006F
:1001700038001E0038000F0080000700C000030098
:10018000E0003900F0003800780038003C0038000A
:100190001C0000000B000000000000001F00B80061
:1001A0003F00FC003F00FE003100E6003700FE008B
:1001B0003F003E001E001C003E0000003600000014
:1001C0002200000000000700000000000000000006
:1001D00000000000270000003F0000003F0000007A
:1001E0001F000000000000000000000000000000F0
:1001F00000000000000000000900000000000000F6
:100200000000F0000300FC000F00FE001F00FF00D4
:100210003F0007003800010020000100200000001E
:1002200000000000000000000000090000000000C5
:10023000000000000100200001002000070038003D
:10024000FF003F00FE001F00FC000F00F000030055
:100250000000000000000000000000000A00000094
:10026000000098000C00B8000E00F8000F00F80025
:100270000F00F8000F00F8000F00F8000F00B800A2
:100280000E0098000C0000000000000000000A00B2
:1002900000000000800001008000010080000100DB
:1002A000F0000F00F0000F00F0000F0080000100D0
:1002B000800001008000010000000000000000003C
:1002C0000700000000000000000000000000000027
:1002D000B8000000F8000000F800000078000000FE
:1002E000000000000000000000000000000000000E
:1002F00000000A00000000008000010080000100F2
:1003000080000100800001008000010080000100E9
:10031000800001008000010080000100000000005A
:1003200000000000070000000000000000000000C6
:100330000000000038000000380000003800000015
:100340003800000000000000000000000000000075
:100350000000000000000C000000180000001C005D
:1003600000001E0000000F0080000700C000030016
:10037000E0000100F0000000780000003C000000F8
:100380001E0000000E0000000C00F8000700FE0038
:100390001F00FE001F0007003F0083003300C30062
:1003A0003100E3003000730030003F003800FE00F1
:1003B0001F00FE001F00F80007000B0000000000F7
:1003C000000000000C0030000C0030000E00300077
:1003D000FF003F00FF003F00FF003F000000300033
:1003E0000000300000003000000000000C001C0085
:1003F00030001E0038001F003C0007003E000300D4
:100400003F0083003700C3003300E3003100F700F2
:1004100030007F0030003E0030001C0030000C0037
:100420000C000C000E001C000F003C00C700380040
:10043000C3003000C3003000C3003000C3003000F0
:10044000E7003900FF003F007E001F003C000E0067
:100450000C00C0000300E0000300F000030078007F
:1004600003003C0003001E0003000F000300FF0018
:100470003F00FF003F00FF003F00000003000000BE
:1004800003000C003F000C007F001C007F003C00BC
:100490006300380063003000630030006300300008
:1004A00063003000E3003800E3003F00C3001F009A
:1004B00083000F000C00C0000F00F0001F00F800C8
:1004C0003F00FC003900DE003000CF003000C700E4
:1004D0003000C3003000C3003900C3003F0080007B
:1004E0001F0000000F000C000300000003000000CC
:1004F000030000000300300003003C0003003F0045
:10050000C3000F00F3000300FF0000003F000000E5
:100510000F000000030000000C0000000F00BC00F2
:100520001F00FE003F00FF003900E7003000C3005D
:100530003000C3003000E7003000FF003900FE004B
:100540003F00BC001F0000000F000C003C0000003A
:100550007E000000FF003000E7003000C3003000E4
:10056000C3003800C3003C00C3001E00E7000F00BA
:10057000FF000700FE000300FC0000000700000071
:100580000000000000000000000070001C0070006F
:100590001C0070001C0070001C0000000000000027
:1005A0000000000000000000000000000000070044
:1005B00000000000000000000000000070009C002F
:1005C0007000FC007000FC0070007C000000000067
:1005D000000000000000000000000000000000001B
:1005E0000A0000000000C0000000E0000100F00070
:1005F0000300F80007003C000F001E001E000F0063
:100600003C0007003800030030000000000000003C
:1006100000000B0000000000600006006000060003
:100620006000060060000600600006006000060032
:100630006000060060000600600006006000060022
:10064000000000000A000000000003003000070066
:1006500038000F003C001E001E003C000F00F80098
:100660000700F0000300E0000100C00000000000EF
:100670000000000000000B001C0000001E00000035
:100680001F0000000700000083003700C300370090
:10069000E3003700F70000007F0000003E0000008C
:1006A0001C000000000000000B00FC000F00FE001A
:1006B0001F0007001C00E3003900F30033003B007B
:1006C00033001B0033009B003300F3003100FF00B8
:1006D0003300FE000300000000000B0000003800A3
:1006E00000003F00E0003F00FC000700FF000600A4
:1006F0001F000600FF000600FC000700E0003F00AE
:1007000000003F0000003800000000000B00FF0068
:100710003F00FF003F00FF003F00C3003000C30068
:100720003000C3003000E7003000FF003900FE0059
:100730003F00BC001F0000000F00000000000B0085
:10074000F0000300FC000F00FE001F000F003C0043
:1007500007003800030030000300300007003800B5
:100760000F003C000E001C000C000C0000000000FC
:100770000B00FF003F00FF003F00FF003F000300B1
:1007800030000300300003003000070038000F0085
:100790003C00FE001F00FC000F00F0000300000002
:1007A00000000B00FF003F00FF003F00FF003F0084
:1007B000C3003000C3003000C3003000C30030006D
:1007C000C3003000C30030000300300003003000DD
:1007D000000000000B00FF003F00FF003F00FF0093
:1007E0003F00C3000000C3000000C3000000C300BE
:1007F0000000C3000000C30000000300000003006D
:100800000000000000000B00F0000300FC000F00DF
:10081000FE001F000F003C0007003800C30030003E
:10082000C3003000C3003000C7003F00C7003F00D6
:10083000C6003F00000000000B00FF003F00FF006B
:100840003F00FF003F00C0000000C0000000C000EB
:100850000000C0000000C0000000FF003F00FF00DB
:100860003F00FF003F000000000009000000000002
:10087000000000000300300003003000FF003F00D4
:10088000FF003F00FF003F00030030000300300086
:100890000000000000000000000000000B0000004D
:1008A0000E0000001E0000003E00000038000000A6
:1008B0003000000030000000300000003800FF0071
:1008C0003F00FF001F00FF000700000000000B00BA
:1008D000FF003F00FF003F00FF003F00E00001007D
:1008E000F0000300F80007003C000F001E001E008F
:1008F0000F003C000700380003003000000000003B
:100900000B00FF003F00FF003F00FF003F00000022
:100910003000000030000000300000003000000017
:100920003000000030000000300000003000000007
:1009300000000B00FF003F00FF003F00FF003F00F2
:100940007E000000F8000100E0000100F800010056
:100950007E000000FF003F00FF003F00FF003F005F
:10096000000000000B00FF003F00FF003F00FF0001
:100970003F003E000000F8000000F0000300C0004F
:10098000070000001F00FF003F00FF003F00FF00C6
:100990003F00000000000B00F0000300FC000F000F
:1009A000FE001F000F003C0007003800030030006D
:1009B000070038000F003C00FE001F00FC000F0085
:1009C000F0000300000000000B00FF003F00FF00EC
:1009D0003F00FF003F00830001008300010083000F
:1009E000010083000100C7000100FF000100FE00BC
:1009F00000007C000000000000000B00F00003007D
:100A0000FC000F00FE001F000F003C000700380034
:100A100003003200070036000F003C00FE001F00FC
:100A2000FC003F00F0002300000000000B00FF006E
:100A30003F00FF003F00FF003F00830001008300F4
:100A400003008300070083000F00C7001F00FF00A2
:100A50003D00FE0038007C003000000000000B006C
:100A60003C000C007E001C00FF003C00E70038004A
:100A7000C3003000C3003000C3003000C70039009D
:100A8000CF003F008E001F000C000F000000000090
:100A90000A00000000000300000003000000030043
:100AA0000000FF003F00FF003F00FF003F00030089
:100AB0000000030000000300000000000000000030
:100AC00000000B00FF000700FF001F00FF003F00B9
:100AD000000038000000300000003000000030004E
:100AE00000003800FF003F00FF001F00FF0007006C
:100AF000000000000B00070000003F000000FF00A6
:100B00000100F8000F00C0003F0000003E00C000E0
:100B10003F00F8000F00FF0001003F000000070049
:100B20000000000000000B00FF003F00FF003F003E
:100B3000FF003F0000001E0080000700800003004F
:100B40008000070000001E00FF003F00FF003F0084
:100B5000FF003F00000000000B00030030000F000A
:100B60003C001F003E003C000F00F0000300E000CE
:100B70000100F00003003C000F001F003E000F00CA
:100B80003C0003003000000000000B0003000000E8
:100B90000F0000003F000000FC000000F0003F00DC
:100BA000C0003F00F0003F00FC0000003F000000DC
:100BB0000F00000003000000000000000B00030015
:100BC000300003003C0003003E0003003F00C30070
:100BD0003300E3003100F30030003F0030001F001D
:100BE00030000F003000030030000000000009005A
:100BF0000000000000000000FF003F00FF003F0079
:100C0000FF003F000300300003003000030030000D
:100C100003003000000000000000000000000000A1
:100C20000C000E0000001E0000003C0000007800D8
:100C30000000F0000000E0000100C00003008000A0
:100C4000070000000F0000001E0000001C00000054
:100C50001800090000000000000000000300300040
:100C6000030030000300300003003000FF003F00AD
:100C7000FF003F00FF003F000000000000000000F8
:100C8000000000000C006000000070000000780010
:100C900000003C0000001E0000000F0000000F00DC
:100CA00000001E0000003C00000078000000700002
:100CB0000000600000000C000000C0000000C00048
:100CC0000000C0000000C0000000C0000000C00024
:100CD0000000C0000000C0000000C0000000C00014
:100CE0000000C0000000C00008000000000000007C
:100CF000000000000000000000003E0000007E0038
:100D000000007E0000004E00000000000000000017
:100D1000000000000000000000000B0000001C00AC
:100D200040003E0060003F00600033006000330080
:100D3000600033006000330060003300E0003F00DB
:100D4000E0003F00C0003F00000000000B00FF007B
:100D50003F00FF003F00FF003F00E0003000600068
:100D600030006000300060003000E0003800E0003B
:100D70003F00C0001F0080000F00000000000B00BB
:100D800080000F00C0001F00E0003F00E0003800BE
:100D90006000300060003000600030006000300013
:100DA000E0003800C00018008000080000000000CB
:100DB0000B0080000F00C0001F00E0003F00E000BB
:100DC00038006000300060003000E0003000E000DB
:100DD0003000FF003F00FF003F00FF003F00000029
:100DE00000000B0080000F00C0001F00E0003F006B
:100DF000E0003B006000330060003300600033001F
:100E000060003300E0003300C000130080000100E8
:100E1000000000000900C0000000C0000000FC004D
:100E20003F00FE003F00FF003F00C7000000C3007E
:100E30000000C300000003000000000000000000EC
:100E40000000000000000B0080000300C000C7008D
:100E5000E000CF00E000CE006000CC006000CC00DD
:100E60006000CC006000EE00E000FF00E0007F00CA
:100E7000E0003F00000000000A00FF003F00FF000C
:100E80003F00FF003F00E000000060000000600045
:100E90000000E0000000E0003F00C0003F008000D4
:100EA0003F000000000000000000090000000000FA
:100EB000000000000000300060003000EC003F0047
:100EC000EC003F00EC003F0000003000000030006C
:100ED0000000000000000000000000000900000009
:100EE000000000000000000060000000E0000000C2
:100EF000E0006000C000EC00FF00EC00FF00EC0030
:100F00007F000000000000000000000000000A0058
:100F100000000000FF003F00FF003F00FF003F0017
:100F200080000700C0000F00E0001F00E0003C0050
:100F300060003800000030000000000000000000E9
:100F40000900000000000000000000003000030065
:100F50003000FF003F00FF003F00FF003F000000A7
:100F60003000000030000000000000000000000021
:100F700000000B00E0003F00E0003F00E0003F0009
:100F8000E0000000E0003F00C0003F00E0003F0044
:100F9000E0000000E0003F00C0003F0080003F0094
:100FA000000000000B0000000000E0003F00E00037
:100FB0003F00E0003F0060000000600000006000B3
:100FC0000000E0000000E0003F00C0003F008000A3
:100FD0003F00000000000B0080000F00C0001F0059
:100FE000E0003F00E00038006000300060003000AA
:100FF00060003000E0003800E0003F00C0001F004B
:1010000080000F00000000000B00E000FF00E00087
:10101000FF00E000FF0060001C006000180060009E
:10102000180060001800E0001C00E0001F00C00075
:101030000F0080000700000000000B008000070088
:10104000C0000F00E0001F00E0001C00600018005E
:10105000600018006000180060001C00E000FF0045
:10106000E000FF00E000FF00000000000B000000B7
:101070000000E0003F00E0003F00E0003F00E00033
:101080000000600000006000000060000000E00060
:101090000000E0000000C0000000000000000900A7
:1010A000C0001100E0003300E000330060003300B6
:1010B000600033006000330060003F0060003F00CC
:1010C00040001E00000000000000000000000000C2
:1010D00009006000000060000000FE001F00FE002C
:1010E0003F00FE003F006000300060003000600004
:1010F0003000000030000000000000000000000090
:1011000000000B00E0000F00E0001F00E0003F00C7
:101110000000380000003000000030000000300007
:1011200000003800E0003F00E0003F00E0003F002A
:10113000000000000B0060000000E0000100E00083
:10114000070080001F0000003E0000003800000083
:101150003E0080001F00E0000700E000010060008A
:101160000000000000000B00E0000700E0001F008E
:10117000E0003F0000003C00E0001F00E0000F0026
:10118000E0001F0000003C00E0003F00E0001F0006
:10119000E0000700000000000A0060003000E000EE
:1011A0003800E0003D00C0001F0080000F008000FC
:1011B0000F00C0001F00E0003D00E00038006000AC
:1011C000300000000000000000000A0000000000E5
:1011D00060000000E0008100E000E7008000FF0008
:1011E00000007E0080001F00E0000700E00001001A
:1011F0006000000000000000000000000A00600025
:1012000030006000380060003C0060003E0060007C
:101210003700E0003300E0003100E0003000600003
:1012200030002000300000000000000000000A0034
:101230000000000080000000C0000100FC001F0052
:10124000FE003F007F007F00070070000300600089
:1012500003006000030060000000000000000000C8
:101260000700000000000000000000000000000077
:101270000000BF003F00BF003F00BF003F00000074
:10128000000000000000000000000000000000005E
:1012900000000A000000000003006000030060007E
:1012A00003006000070070007F007F00FE003F0029
:1012B000FC001F00C00001008000000000000000D2
:1012C000000000000B0010000000180000001C00CF
:1012D00000000C0000000C0000001C0000001800C2
:1012E0000000180000001C0000000C0000000400BA
:1012F0000000000000000B0000000F0080000F0045
:10130000C0000F00E0000C0070000C0030000C006A
:1013100070000C00E0000C00C0000F0080000F0007
:1013200000000F0000000000090000000000FE00A7
:101330007F00FE007F0006006000060060000600DF
:10134000600006006000FE007F00FE007F000000DD
:101350000000060000000000000000000000000087
:1013600000000000FE007F00FE007F000000000083
:101370000000000000000000000000000900000064
:10138000000086007F0086007F00860061008600E6
:1013900061008600610086006100FE006100FE00C1
:1013A00061000000000009000000000086006100EC
:1013B0008600610086006100860061008600610091
:1013C00086006100FE007F00FE007F00000000003C
:1013D000090000000000FE000100FE000100800086
:1013E0000100800001008000010080000100FE007B
:1013F0007F00FE007F0000000000090000000000E8
:10140000FE006100FE006100860061008600610050
:10141000860061008600610086007F0086007F00F4
:1014200000000000090000000000FE007F00FE0038
:101430007F008600610086006100860061008600F2
:10144000610086007F0086007F0000000000090028
:10145000000000000600000006000000060000007A
:10146000060000000600000006000000FE007F00ED
:10147000FE007F0000000000090000000000FE00E8
:101480007F00FE007F00860061008600610086000C
:10149000610086006100FE007F00FE007F0000000A
:1014A0000000090000000000FE006100FE00610075
:1014B0008600610086006100860061008600610090
:1014C000FE007F00FE007F00000000000900000019
:1014D0000000FE000100FE00010086000100860001
:1014E00001008600010086000100FE000100FE00F0
:1014F00001000000000018000000000000000000D3
:10150000FE00FF00FF007F00FE00FF00FF007F00E5
:10151000FE00FF00FF007F00FE00FF00FF007F00D5
:10152000FE00FF00FF007F003E00000000007C0086
:101530003E00000000007C003E00000000007C0037
:101540003E00000000007C003E00000000007C0027
:101550003E00000000007C003E00000000007C0017
:101560003E00000000007C003E00000000007C0007
:101570003E00000000007C003E00000000007C00F7
:101580003E00000000007C003E00000000007C00E7
:10159000FE00FF00FF007F00FE00FF00FF007F0055
:1015A000FE00FF00FF007F00FE00FF00FF007F0045
:1015B000FE00FF00FF007F000000000000000000B0
:1015C0000F0000000000000000000000000000000C
:1015D000000000000000000000000000000000000B
:1015E00000000000000000000000000000000000FB
:1015F00000000000000000000000000000000000EB
:1016000000000000000000000000000000000000DA
:101610000000FE00FF00FF007F00FE00FF00FF0053
:101620007F00FE00FF00FF007F00FE00FF00FF00C4
:101630007F00FE00FF00FF007F00000000000000B0
:10164000000000000000000000000000000000009A
:10165000000000000000000000000000000000008A
:10166000000000000000000000000000000000007A
:10167000000000000000000000000000000000006A
:101680000000000000000000000018000000000042
:10169000000000003E00E000FF007F003E00E00090
:1016A000FF007F003E00E000FF007F003E00E00002
:1016B000FF007F003E00E000FF007F003E00E000F2
:1016C00003007C003E00E00003007C003E00E000E0
:1016D00003007C003E00E00003007C003E00E000D0
:1016E00003007C003E00E00003007C003E00E000C0
:1016F00003007C003E00E00003007C003E00E000B0
:1017000003007C003E00E00003007C003E00E0009F
:1017100003007C003E00E00003007C003E00E0008F
:1017200003007C00FE00FF0003007C00FE00FF00C1
:1017300003007C00FE00FF0003007C00FE00FF00B1
:1017400003007C00FE00FF0003007C00000000009E
:1017500000000000180000000000000000003E0033
:10176000E00003007C003E00E00003007C003E003F
:10177000E00003007C003E00E00003007C003E002F
:10178000E00003007C003E00E00003007C003E001F
:10179000E00003007C003E00E00003007C003E000F
:1017A000E00003007C003E00E00003007C003E00FF
:1017B000E00003007C003E00E00003007C003E00EF
:1017C000E00003007C003E00E00003007C003E00DF
:1017D000E00003007C003E00E00003007C003E00CF
:1017E000E00003007C003E00E00003007C00FE00FF
:1017F000FF00FF007F00FE00FF00FF007F00FE00F3
:10180000FF00FF007F00FE00FF00FF007F00FE00E2
:10181000FF00FF007F000000000000000000180033
:101820000000000000000000FE00FF0003000000B8
:10183000FE00FF0003000000FE00FF0003000000A8
:10184000FE00FF0003000000FE00FF000300000098
:101850000000E000030000000000E00003000000C2
:101860000000E000030000000000E00003000000B2
:101870000000E000030000000000E00003000000A2
:101880000000E000030000000000E0000300000092
:101890000000E000030000000000E0000300000082
:1018A0000000E000030000000000E0000300000072
:1018B0000000E00003000000FE00FF00FF007F00CA
:1018C000FE00FF00FF007F00FE00FF00FF007F0022
:1018D000FE00FF00FF007F00FE00FF00FF007F0012
:1018E00000000000000000001800000000000000E0
:1018F0000000FE00FF0003007C00FE00FF0003006C
:101900007C00FE00FF0003007C00FE00FF000300DF
:101910007C00FE00FF0003007C003E00E0000300AE
:101920007C003E00E00003007C003E00E00003007D
:101930007C003E00E00003007C003E00E00003006D
:101940007C003E00E00003007C003E00E00003005D
:101950007C003E00E00003007C003E00E00003004D
:101960007C003E00E00003007C003E00E00003003D
:101970007C003E00E00003007C003E00E00003002D
:101980007C003E00E000FF007F003E00E000FF0022
:101990007F003E00E000FF007F003E00E000FF000F
:1019A0007F003E00E000FF007F000000000000001C
:1019B000000018000000000000000000FE00FF0012
:1019C000FF007F00FE00FF00FF007F00FE00FF0021
:1019D000FF007F00FE00FF00FF007F00FE00FF0011
:1019E000FF007F003E00E00003007C003E00E000BE
:1019F00003007C003E00E00003007C003E00E000AD
:101A000003007C003E00E00003007C003E00E0009C
:101A100003007C003E00E00003007C003E00E0008C
:101A200003007C003E00E00003007C003E00E0007C
:101A300003007C003E00E00003007C003E00E0006C
:101A400003007C003E00E00003007C003E00E0005C
:101A5000FF007F003E00E000FF007F003E00E0004E
:101A6000FF007F003E00E000FF007F003E00E0003E
:101A7000FF007F00000000000000000018000000D0
:101A80000000000000003E000000000000003E00DA
:101A90000000000000003E000000000000003E00CA
:101AA0000000000000003E000000000000003E00BA
:101AB0000000000000003E000000000000003E00AA
:101AC0000000000000003E000000000000003E009A
:101AD0000000000000003E000000000000003E008A
:101AE0000000000000003E000000000000003E007A
:101AF0000000000000003E000000000000003E006A
:101B00000000000000003E000000000000003E0059
:101B1000000000000000FE00FF00FF007F00FE004C
:101B2000FF00FF007F00FE00FF00FF007F00FE00BF
:101B3000FF00FF007F00FE00FF00FF007F000000AD
:101B4000000000000000180000000000000000007D
:101B5000FE00FF00FF007F00FE00FF00FF007F008F
:101B6000FE00FF00FF007F00FE00FF00FF007F007F
:101B7000FE00FF00FF007F003E00E00003007C004D
:101B80003E00E00003007C003E00E00003007C001B
:101B90003E00E00003007C003E00E00003007C000B
:101BA0003E00E00003007C003E00E00003007C00FB
:101BB0003E00E00003007C003E00E00003007C00EB
:101BC0003E00E00003007C003E00E00003007C00DB
:101BD0003E00E00003007C003E00E00003007C00CB
:101BE000FE00FF00FF007F00FE00FF00FF007F00FF
:101BF000FE00FF00FF007F00FE00FF00FF007F00EF
:101C0000FE00FF00FF007F00000000000000000059
:101C100018000000000000000000FE00FF000300AC
:101C20007C00FE00FF0003007C00FE00FF000300BC
:101C30007C00FE00FF0003007C00FE00FF000300AC
:101C40007C003E00E00003007C003E00E00003005A
:101C50007C003E00E00003007C003E00E00003004A
:101C60007C003E00E00003007C003E00E00003003A
:101C70007C003E00E00003007C003E00E00003002A
:101C80007C003E00E00003007C003E00E00003001A
:101C90007C003E00E00003007C003E00E00003000A
:101CA0007C003E00E00003007C00FE00FF00FF001F
:101CB0007F00FE00FF00FF007F00FE00FF00FF002E
:101CC0007F00FE00FF00FF007F00FE00FF00FF001E
:101CD0007F00000000000000000005000000000080
:101CE00000000000000000000000000001002F00C4
:101CF00000000000000000000000000000000400E0
:101D000002000100020001000000000000000000CD
:101D1000050014007F0014007F0014000000000084
:101D20000000050024004A00FF00520024000000CB
:101D3000000000000600670035001F007C00560010
:101D40007300000000000600180026002D0032007D
:101D50001800200000000000010006000000000044
:101D60000000000000000000000003003C004200F2
:101D7000810000000000000000000000030081005E
:101D800042003C00000000000000000000000500D0
:101D9000140008003E0008001400000000000000CD
:101DA0000500080008003E000800080000000000D0
:101DB00000000100600000000000000000000000C2
:101DC00000000000050008000800080008000800E6
:101DD00000000000000002000000200000000000E1
:101DE00000000000000000000400200018000600B1
:101DF0000100000000000000000005003E0041005E
:101E0000410041003E00000000000000020002000E
:101E10007F0000000000000000000000000004003F
:101E20004600610051004E0000000000000000006C
:101E300004002200410049003600000000000000BC
:101E4000000005001800140012007F0010000000C0
:101E50000000000004002F0045004500390000008C
:101E600000000000000004003E004500450039006D
:101E700000000000000000000400010061001D00DF
:101E800003000000000000000000040036004900CC
:101E90004900360000000000000000000400260099
:101EA000490049003E000000000000000000010061
:101EB0002200000000000000000000000000000000
:101EC00001006200000000000000000000000000AF
:101ED000000005000800140022002200410000005C
:101EE0000000000005001400140014001400140089
:101EF0000000000000000500410022002200140044
:101F00000800000000000000040002000100590069
:101F10000600000000000000000006001C00220077
:101F2000390035002D002E000000000007002000C1
:101F300018000E0009000E00180020000000060026
:101F40003F0025002500250025001A0000000000A4
:101F500006001E00210021002100210012000000C7
:101F6000000006003F0021002100210012000C00AB
:101F70000000000005003F00250025002500250089
:101F800000000000000005003F00050005000500FE
:101F9000010000000000000006001E0021002100DA
:101FA000290029003A000000000006003F00080058
:101FB0000800080008003F000000000003002100A6
:101FC0003F002100000000000000000000000500AC
:101FD00018002000200020001F000000000000006A
:101FE00006003F00040004000A0011002000000069
:101FF000000005003F00200020002000200000001D
:102000000000000007003F0006000C0030000C003C
:1020100006003F00000006003F0002000400080028
:1020200010003F000000000006001E0021002100FB
:10203000210021001E000000000006003F000900F2
:1020400009000900090006000000000006001E004B
:1020500021002100290011002E00000000000500D1
:102060003F000900090019002600000000000000E0
:102070000500120025002D002900120000000000BC
:1020800000000500010001003F0001000100000008
:102090000000000006001F0020002000200020009B
:1020A0001F00000000000700010007001C003000B6
:1020B0001C0007000100000007000F0038000E00A0
:1020C00003000E0038000F0000000600210012007F
:1020D0000C000C00120021000000000006000000AF
:1020E000010002003C0002000100000000000500A9
:1020F000310029002500230021000000000000001D
:102100000200FF008100000000000000000000004D
:102110000000050052005C00F0005C00520000006E
:102120000000000002008100FF000000000000002D
:102130000000000000000400020001000100020095
:10214000000000000000000003002000200020002C
:10215000000000000000000000000300000001007B
:1021600002000000000000000000000004003A002F
:102170002A002A003E0000000000000000000400C9
:102180003F002400240018000000000000000000B0
:1021900005001C00220022002200140000000000A4
:1021A000000004001800240024003F00000000008C
:1021B0000000000004001C002A002A002C0000007F
:1021C000000000000000040004003E0005000500BF
:1021D000000000000000000004004C00920092008B
:1021E0007E00000000000000000004003F0004002A
:1021F00004003800000000000000000001003D0065
:1022000000000000000000000000000000000200CC
:1022100080007D00000000000000000000000000C1
:1022200005003F0008000C00120020000000000024
:10223000000001003F00000000000000000000005E
:102240000000000007003E00020002003E00020005
:1022500002003C00000004003E00020002003C00BE
:10226000000000000000000005001C002200220009
:1022700022001C000000000000000400FE002200FC
:1022800022001C00000000000000000004001C00F0
:1022900022002200FE0000000000000000000300F9
:1022A0003E000400020000000000000000000000EA
:1022B000040024002A002A00120000000000000090
:1022C0000000030002001F002200000000000000C8
:1022D0000000000004001E00200020003E0000005E
:1022E000000000000000050002001C0020001C008F
:1022F000020000000000000006000E0030000E008A
:102300000E0030000E000000000005002200140046
:102310000800140022000000000000000500020078
:102320009C00E0001C00020000000000000004000F
:1023300032002A00260022000000000000000000F9
:1023400003001000FF0081000000000000000000FA
:10235000000002000000FF0000000000000000007C
:102360000000000003008100FF00100000000000DA
:102370000000000000000400030001000200030050
:1023800000000000000000000200FC00FC00000053
:102390000000000000000000000011241FBECFEF6D
:1023A000D8E0DEBFCDBF11E0A0E0B1E0E8E5F8E3A2
:1023B00002C005900D92A231B107D9F725E0A2E144
:1023C000B1E001C01D92A332B207E1F70E94D61B13
:1023D0000C942A1C0C940000109280008DE08093D5
:1023E00081008BE197EB909389008093880082E0D5
:1023F00080936F0008951F920F920FB60F921124D1
:102400008F9380911701813011F480931401809192
:102410001601813011F4809312018F910F900FBE3D
:102420000F901F9018958CE08BB985E08093690020
:1024300083E08DBB08951F920F920FB60F92112467
:102440002F938F939F931092850010928400809118
:102450001701811116C02FEF80E792E021508040D4
:102460009040E1F700C000004A9903C081E08093EA
:1024700017019F918F912F910F900FBE0F901F907A
:1024800018952FEF80E792E0215080409040E1F7CF
:1024900000C000004A991092170180911401811127
:1024A000E8CF81E080931501E4CF1F920F920FB621
:1024B0000F9211242F938F939F9310928500109267
:1024C000840080911601811116C02FEF80E792E001
:1024D000215080409040E1F700C000004B9903C0BC
:1024E00081E0809316019F918F912F910F900FBEE5
:1024F0000F901F9018952FEF80E792E021508040B9
:102500009040E1F700C000004B99109216018091B5
:1025100012018111E8CF81E080931301E4CFCF93C2
:10252000DF93D82FC62F60E084E00E9493188D2F90
:1025300082958F70805D0E94DE198D2F8F70805D77
:102540000E94DE190E94D7188C2F82958F70805DB3
:102550000E94DE198C2F8F70805DDF91CF910C94DB
:10256000DE19CF93C82F64E084E00E9493188C2F6B
:1025700082958F70805D0E94DE198C2F8F70805D38
:10258000CF910C94DE19EF92FF920F931F93CF938C
:10259000082F162FC42F64E086E30E949318802F23
:1025A00082958F70805D0E947A19802F8F70805D78
:1025B0000E947A19F12CE12C82E0E816F10409F06E
:1025C00048C08FEF0E94D71761E080E00E94981802
:1025D0008FEF0E94D7176FEF81E00E9498188FEF5E
:1025E000E81AF80A85E0E816F10431F7812F8295A0
:1025F0008F70805D0E947A19812F8F70805D0E949C
:102600007A1910E000E00230110561F58FEF0E94A9
:10261000D71761E080E00E9498188FEF0E94D717CB
:102620006FEF81E00E9498180F5F1F4F0530110572
:1026300051F78C2F82958F70805D0E947A198C2FB4
:102640008F70805DCF911F910F91FF90EF900C9450
:102650007A1980E00E94D71761E080E00E94981804
:1026600080E0B7CF80E00E94D71761E080E00E9451
:10267000981880E0D3CFCF93DF93C82F6AE00E94F1
:10268000F61BD82F66E08FE40E94931880E38D0F2D
:102690000E947A1980E38C0F96EFD99F800D112448
:1026A0000E947A1960E085E00E9498188AE3DF9121
:1026B000CF910C947A19EF92FF920F931F93CF93BF
:1026C000DF9300D0CDB7DEB78C017B0128E641E077
:1026D00062E0CE0101960E948D1B8981F701808303
:1026E0008A818F73F80180830F900F90DF91CF91D3
:1026F0001F910F91FF90EF900895EF92FF920F932B
:102700001F93CF93DF9300D0CDB7DEB78C017B0151
:1027100028E648E062E0CE0101960E948D1B898187
:10272000F70180838A818F73F80180830F900F9067
:10273000DF91CF911F910F91FF90EF90089528E6C0
:1027400040E061E00C948D1BCF93DF93EC010E947D
:102750002C1B80ED0E94341B81E10E94341B0E94DF
:10276000281B0E942C1B81ED0E94341B80E00E94DC
:10277000571B8883DF91CF910C94281BCF92DF9257
:10278000EF92FF920F931F93CF93DF9300D01F928E
:10279000CDB7DEB76C017B018A0128E644E063E037
:1027A000CE0101960E948D1B8981F60180838A816A
:1027B000F70180838B81F80180830F900F900F9039
:1027C000DF91CF911F910F91FF90EF90DF90CF900D
:1027D00008952FEF83EC99E0215080409040E1F77D
:1027E00000C0000061E271E082E291E00E945B13B0
:1027F0004FE151E06CE171E080E291E00E94BE1394
:102800008EE191E00E949F138DE191E00E94A4135C
:1028100060912101809122010E948F1240911F013D
:1028200060911C01809120010E94C31264E084E049
:102830000E94931880911E010E94B11280911D0187
:102840000C943B13CF93DF9300D01F92CDB7DEB72C
:1028500019826A838F7B8B8328E640E063E0CE0198
:1028600001960E94651B0F900F900F90DF91CF9102
:102870000895CF93DF9300D0CDB7DEB769838F7B08
:102880008A8328E648E062E0CE0101960E94651B3B
:1028900048E66AE080E80E943E1B0F900F90DF91AF
:1028A000CF910895CF93DF9300D01F92CDB7DEB7BD
:1028B00089836A834B8328E644E063E0CE01019676
:1028C0000E94651B0F900F900F90DF91CF9108959C
:1028D0004F925F926F927F928F929F92AF92BF9230
:1028E000CF92DF92EF92FF920F931F93CF93DF93DC
:1028F000CDB7DEB72A970FB6F894DEBF0FBECDBFB7
:1029000010921401109213011A8619860E94A318BE
:10291000BE01675F7F4FCE010A960E947D138A85B4
:10292000982F92959F709D838F708E838985982FA5
:1029300092959F709F838F70888710E000E0409091
:102940000001509001016090020170900301882401
:102950008394912C8C0E9D1E800E911E04301105C7
:1029600049F58D8190E1899F900111248E81822B00
:102970008A876F81E0E16E9F900111246885622B48
:1029800069870E9439142A960FB6F894DEBF0FBEED
:10299000CDBFDF91CF911F910F91FF90EF90DF900E
:1029A000CF90BF90AF909F908F907F906F905F90EF
:1029B0004F90089560E084E00E9493187E0125E026
:1029C000E20EF11C5701D12CC12C0C151D0519F478
:1029D00081E00E948818F50181915F01805D0E946D
:1029E000DE190C151D0519F480E00E948818F1E02D
:1029F000CF16D10411F40E94D7182FEFC21AD20AB1
:102A000084E0C816D10409F7809113018823D9F016
:102A100049825A826B827C8290E080E00817190715
:102A200049F4F7012081F40130812317B0F42F5FBE
:102A3000F70120830196FFEFEF1AFF0A843091051A
:102A400069F71092130180911501882309F486CF4C
:102A5000109215010F5F1F4F7ACFF7011082EACF56
:102A60007F928F929F92AF92BF92CF92DF92EF921E
:102A7000FF920F931F93CF93DF93CDB7DEB72F97BE
:102A80000FB6F894DEBF0FBECDBFAE01435F5F4F00
:102A9000BE01625F7F4FCE010F960E94BE138F85ED
:102AA000982F92959F709F838F7088878E85982F1F
:102AB00092959F7099878F708A878D85982F9295B0
:102AC0009F709B878F708C87712C64E086E30E94D7
:102AD00093186E0127E0C20ED11C10E000E0460101
:102AE000A72CB12CA016B10619F481E00E94881819
:102AF000F60181916F01805D0E947A19A016B106DE
:102B000019F480E00E948818C8018D7F0197E1F4D4
:102B1000F12CE12CF2E0EF16F10409F07CC08FEF0C
:102B20000E94D71761E080E00E9498188FEF0E9402
:102B3000D7176FEF81E00E9498182FEFE21AF20A80
:102B400085E0E816F10431F70F5F1F4F06301105DD
:102B500049F680911501882319F07394109215019C
:102B600080911301882331F186E0E4E0F1E0DE0199
:102B7000119601900D928A95E1F790E080E0472D43
:102B800050E04817590781F4F401E40FF51F208144
:102B9000A1E0B0E0AC0FBD1FA40FB51F3C912317FF
:102BA00008F042C02F5F208301968630910549F7D7
:102BB0001092130186E0781288CF8F8190E1899F6F
:102BC000900111248885822B8F876985E0E16E9FB3
:102BD000900111246A85622B6E874B85F0E14F9F2F
:102BE000900111244C85422B4D870E9452142F9640
:102BF0000FB6F894DEBF0FBECDBFDF91CF911F910E
:102C00000F91FF90EF90DF90CF90BF90AF909F908B
:102C10008F907F90089580E00E94D71761E080E058
:102C20000E94981880E083CF21E0721611F0108284
:102C3000BBCF7886B9CF4F925F926F927F928F927F
:102C40009F92AF92BF92CF92DF92EF92FF920F933B
:102C50001F93CF93DF93CDB7DEB72A970FB6F894C3
:102C6000DEBF0FBECDBF109212011A86198680E01A
:102C70000E94B112BE01675F7F4FCE010A960E948B
:102C80005B138A85982F92959F709D838F708E839A
:102C90008985982F92959F709F838F70888710E009
:102CA00000E040900001509001016090020170909E
:102CB000030188248394912C8C0E9D1E800E911EFE
:102CC0000430110581F58D8190E1899F90011124D7
:102CD0008E81822B8A876F81E0E16E9F90011124A3
:102CE0006885622B698770E00E94221469858A8555
:102CF0000E948F120E9430152A960FB6F894DEBFFC
:102D00000FBECDBFDF91CF911F910F91FF90EF903C
:102D1000DF90CF90BF90AF909F908F907F906F90FB
:102D20005F904F90089560E084E00E9493187E01C8
:102D300025E0E20EF11C5701D12CC12C0C151D050C
:102D400019F481E00E948818F50181915F01805D8E
:102D50000E94DE190C151D0519F480E00E948818E8
:102D6000F1E0CF16D10411F40E94D7182FEFC21A48
:102D7000D20A84E0C816D10409F780911301882390
:102D8000D9F049825A826B827C8290E080E00817F9
:102D9000190749F4F7012081F40130812317B0F4B9
:102DA0002F5FF70120830196FFEFEF1AFF0A8430AF
:102DB000910569F71092130180911501882309F498
:102DC0007FCF109215010F5F1F4F73CFF701108255
:102DD000EACFCF93DF9380911801811124C02FE3B4
:102DE00040E060E00E94B51A2FE341E060E081E03E
:102DF0000E94B51A2FE34EE760E08EE70E94B51AF5
:102E00002FE34FE760E08FE70E94B51A48E66EE0D7
:102E10008DE10E943E1B81E0809318011092150104
:102E2000DF91CF9108958130C9F760E080E00E9482
:102E30009318C8E0D0E00E94501861E08FEF0E9424
:102E400098182197C1F760E081E00E949318C8E0CC
:102E5000D0E00E94501861E08FEF0E9498182197EF
:102E6000C1F760E08EE70E949318C8E0D0E00E94AE
:102E7000501861E08FEF0E9498182197C1F7C0E0C9
:102E80006C2F8FE70E9493180E945018CF5FC830B4
:102E9000B9F748E66EE08CE10E943E1B10921801E3
:102EA000BDCFCF93C82F0E942C1B88E70E94341BF4
:102EB00080E80E94341B8C2F0E94341BCF910C940D
:102EC000281B23E231E098E041E0F90180E04083F3
:102ED0008F5F38968038D9F791502F5F3F4F91110F
:102EE000F4CF8EEA0E94511788EA0E9451178FE3AF
:102EF0000E94511780E20E94511782E00E945117F0
:102F000080E40E94511783ED0E94511780E00E94D7
:102F1000511781EA0E94511788EC0E9451178AEDDF
:102F20000E94511782E10E94511780EB0E945117B5
:102F300081E80E94511780E80E94511784EA0E949C
:102F4000511786EA0E94511785ED0E94511780E8BB
:102F50000E94511789ED0E94511782EC0E9451176F
:102F60008BED0E94511780E20E9451178DE80E945C
:102F7000511784E10E9451178EE20E9451178FEA87
:102F80000E94511787E20E94511780E00E9451175A
:102F900080E00E94511780E00E94511783E00E9458
:102FA000511780E00E9451178FEF0C9451179091A8
:102FB0001B01E0911A0148E0949F900111242D5DBE
:102FC0003E4FE20FF32FF11D2081281759F1808326
:102FD000892F8F700E94511780911B0182958F70ED
:102FE000805F0E94511780911A0180550E945117ED
:102FF0000E942C1B88E70E94341B80E40E94341B33
:1030000080911B0120911A01E8E08E9FC0011124DC
:103010008D5D9E4F820F911DFC0180810E94341BAB
:103020000C94281B089540911B01E0911A0198E02F
:10303000499F900111242D5D3E4FE20FF32FF11DAA
:103040009081981761F1982B9083842F8F700E9444
:10305000511780911B0182958F70805F0E945117DC
:1030600080911A0180550E9451170E942C1B88E7FD
:103070000E94341B80E40E94341B80911B0120912C
:103080001A01E8E08E9FC00111248D5D9E4F820FD2
:10309000911DFC0180810E94341B0C94281B089513
:1030A00080911B01E0911A0198E0899F9001112401
:1030B0002D5D3E4FE20FF32FF11D90819923E9F032
:1030C00010828F700E94511780911B0182958F7022
:1030D000805F0E94511780911A0180550E945117FC
:1030E0000E942C1B88E70E94341B80E40E94341B42
:1030F00080E00E94341B0E94281B80911B018F37A7
:1031000019F410921B0108958F5F80931B0108959D
:10311000813021F48FEF809319010895811102C04D
:1031200010921901089580931B0160931A0108956C
:1031300090911A01690F90911B01890F80931B01D7
:1031400060931A010895CF93DF93C0E010921B01A2
:10315000C0931A01D0E08FEF0E94D717DF5FD038FD
:10316000D1F7CF5FC83091F7C0E010921B01C09338
:103170001A01D0E00E945018DF5FD038D9F7CF5F36
:10318000C83099F723E231E0F90180E010828F5FC7
:1031900038968038D9F7C1502F5F3F4FC111F4CF17
:1031A00010921B0110921A01DF91CF9108950F9395
:1031B0001F93CF93DF9302E010E0C7E0D0E080E000
:1031C0000E94D71760E081E00E9498182197B9F714
:1031D000C6E0D0E080EE0E94D71760E081E00E9458
:1031E00098182197B9F7C7E0D0E080E00E94D71780
:1031F00060E081E00E9498182197B9F761E08CEEB9
:103200000E949818C7E0D0E080E00E94D71760E0E5
:1032100081E00E9498182197B9F7C6E0D0E087E0D6
:103220000E94D71760E081E00E9498182197B9F7B3
:10323000C7E0D0E080E00E94D71760E081E00E9404
:1032400098182197B9F761E08CEE0E949818013028
:10325000110519F001E010E0B0CF6CEF84E1DF91CF
:10326000CF911F910F910C949818DF92EF92FF92DB
:103270000F931F93CF93DF93D62E805229E1829F25
:10328000C0011124880F991F10E000E09C0126590D
:103290003F4F7901EC01C459DF4F34E7D31209C025
:1032A000F701E00FF11FE491809119018E270E9430
:1032B000D71761E080E00E94981884E7D81209C00F
:1032C000FE01E00FF11FE491809119018E270E9409
:1032D000D7176FEF81E00E9498180C5F1F4F0033E3
:1032E0001105D9F6DF91CF911F910F91FF90EF90CB
:1032F000DF900895EF92FF920F931F93CF93DF9388
:10330000805325E1829FC0011124880F991F10E08E
:1033100000E09C01265D3C4E7901EC01C45DDC4E71
:10332000F701E00FF11FE491809119018E270E94AF
:10333000D71761E080E00E949818FE01E00FF11FAE
:10334000E491809119018E270E94D7176FEF81E0D9
:103350000E9498180C5F1F4F0832110509F7DF9182
:10336000CF911F910F91FF90EF9008950F931F93AE
:10337000CF93DF93805299E0899F80011124D0E0A0
:10338000C0E00E94501860E08FEF0E949818F8018A
:10339000EC0FFD1FEE0FFF1FE452F34E84910E94CD
:1033A000D71760E081E00E9498182196C830D105B7
:1033B00041F7DF91CF911F910F910895EF92FF9206
:1033C0000F931F93CF93DF93805395E6899FE0017E
:1033D00011247E018FEFE81AF80ACB59DF4F10E075
:1033E00000E0F701E00FF11FEE0FFF1FEA50FB4E68
:1033F000E491809119018E270E94D7176DEF81E02B
:10340000033011F061E080E00E9498180F5F1F4FB9
:103410000430110531F794E0E90EF11CCE15DF05FB
:10342000F1F6DF91CF911F910F91FF90EF900895EA
:103430001F93CF93DF93EC01623781F410E004C057
:1034400062E70E9435191F5FFE01E10FF11D8081C7
:103450008111F6CFDF91CF911F91089510E064376D
:1034600089F010E06D36B1F7FE01E10FF11D8081AA
:10347000882381F30E94B6191F5FF6CF64E70E948C
:1034800035191F5FFE01E10FF11D80818111F6CF1B
:10349000E1CFFC0136969C012D5F3F4FDC014D9141
:1034A000CD01529111975C93408382179307B1F736
:1034B0000895CF92DF92FF920F931F93CF93DF93E4
:1034C00000D000D000D01F92CDB7DEB7F62E27E097
:1034D000EAE0F1E08E010F5F1F4FD80101900D92DD
:1034E0002A95E1F731E097FF04C091958195910904
:1034F00030E0E0E02AE0C22ED12C21E02E0FE00FD8
:10350000F12FF11DB6010E94021C805D8083CB016A
:10351000E22F181619068CF3E00FF12FF11D40E38E
:10352000CF01801B910B2530E8F02BE2311101C057
:103530002DE2F801E80FF91F2083C8010E94491A03
:103540006F2DC8010E94181A27960FB6F894DEBF97
:103550000FBECDBFDF91CF911F910F91FF90DF90F4
:10356000CF9008952F5F4193DBCF0F931F93CF939D
:10357000DF93C82F042F122F962F9770D62FD69532
:10358000D695D695621315C011E001C0110F9A951A
:10359000EAF70C1728F4DF91CF911F910F9108954E
:1035A000C0931B01D0931A01812F0E941318CF5F83
:1035B000F0CF8413F0CF022F0695069506958093E1
:1035C0001B01D0931A018FEF01C0880F9A95EAF77B
:1035D0000E941318DF5FC0931B01D017A0F0009367
:1035E0001A01177027E030E0211B31098FEF90E0BE
:1035F00002C0959587952A95E2F7DF91CF911F91AB
:103600000F910C941318D0931A018FEFE1CF0F9301
:103610001F93CF93DF93082FD62FC42F122F262F5F
:103620000E94B51A212F4C2F612F802F0E94B51AAE
:10363000212F402F6D2F802F0E94B51A212F4C2F44
:103640006D2F8C2FDF91CF911F910F910C94B51A94
:1036500084E98093BC00089584EA8093BC00809143
:10366000BC0087FFFCCF08958093BB0084E8809363
:10367000BC008091BC0087FFFCCF08951F93CF93BF
:10368000DF93C82FD62F142F0E942C1B812F880F59
:103690000E94341B8D2F0E94341B8C2F0E94341BE0
:1036A00084E98093BC00DF91CF911F91089520E4BD
:1036B000829FC001112484688093BC008091BC006B
:1036C00087FFFCCF8091BB000895FF920F931F935B
:1036D000CF93DF93F82E192F062FC42FD22F0E94DD
:1036E0002C1B8D2F880F0E94341B8C2F0E94341BA3
:1036F000CF2DD12F0C0F1D2F111DC017D10749F44D
:1037000084E98093BC00DF91CF911F910F91FF90CE
:10371000089589910E94341BF0CFDF92EF92FF92BF
:103720000F931F93CF93DF93EC01062FF42E122FEC
:103730000E942C1B812F880F0E94341B8F2D0E940A
:10374000341B84E98093BC000E942C1B812F880FBE
:1037500081600E94341BD12C0150110BED2CF12CF7
:10376000E016F1068CF0C00FD11F80E00E94571BBD
:10377000888384E98093BC00DF91CF911F910F91E2
:10378000FF90EF90DF900895EC0EFD1E81E00E9407
:10379000571BF7018083D394E1CF1092B90084E2E4
:1037A0008093B80084E08093BC0008950E94CD1BF4
:1037B0000E9461170E94EC110E94131278940E94DB
:1037C000A3180E94E91380911501813011F40E9421
:1037D000E91680911201813011F40E941B1680912C
:1037E0001401813071F70E946814EBCF991B79E0C6
:1037F00004C0991F961708F0961B881F7A95C9F781
:103800008095089597FB072E16F4009407D077FD56
:1038100009D00E94161C07FC05D03EF490958195B6
:103820009F4F0895709561957F4F0895AA1BBB1B0C
:1038300051E107C0AA1FBB1FA617B70710F0A61BB0
:10384000B70B881F991F5A95A9F780959095BC01D1
:08385000CD010895F894FFCFAB
:10385800020906090309010909092B303030303003
:0238680000005E
:00000001FF
