:100000000C94E0010C94F2010C94F2010C94F201B6
:100010000C94F2010C94F2010C94F2010C94F20194
:100020000C94F2010C94F2010C94F2010C94F20184
:100030000C94F2010C94F2010C94F2010C94F20174
:100040000C94F2010C94F2010C94F2010C94F20164
:100050000C94F2010C94F2010C94F2010C94F20154
:100060000C94F2010C94F20111AE00A8011F2001C2
:10007000004000D30100A100C800DA010281017F25
:10008000A400A600D50180D901C2DB01208D011496
:100090002E00AF0011AE00D50180A8011FD30100D2
:1000A00040008D0114200100A100C800DA00028187
:1000B000018FD901C2DB0140A400A6002E00AF00D1
:1000C000000000000000000000065F5F0600000066
:1000D0000007070007070000147F7F147F7F1400CC
:1000E000242E6B6B3A120000466630180C666200D4
:1000F000307A4F5D377A48000407030000000000A3
:10010000001C3E63410000000041633E1C000000F3
:10011000082A3E1C1C3E2A0808083E3E080800002B
:1001200000A0E060000000000808080808080000BF
:1001300000006060000000006030180C0603010041
:100140003E7F594D7F3E000042427F7F404000008D
:10015000627359496F660000226349497F36000087
:10016000181C16137F7F1000276745457D39000056
:100170003C7E4B4979300000036371190F07000082
:10018000367F49497F360000064F49693F1E00000F
:1001900000006C6C0000000000A0EC6C000000008F
:1001A000081C3663410000001414141414140000D9
:1001B000004163361C080000020351590F0600007D
:1001C0003E7F415D5D1F1E007C7E13137E7C000020
:1001D000417F7F49497F36001C3E634141632200D5
:1001E000417F7F41637F1C00417F7F495D41630008
:1001F000417F7F491D0103001C3E63415173720022
:100200007F7F08087F7F000000417F7F4100000062
:10021000307040417F3F0100417F7F081C776300C1
:10022000417F7F41406070007F7F060C067F7F002A
:100230007F7F060C187F7F001C3E6341633E1C00DD
:10024000417F7F49090F06001E3F21717F5E00003C
:10025000417F7F19396F460026674D597B32000078
:1002600003417F7F410300007F7F40407F7F00008C
:100270001F3F60603F1F00007F7F3018307F7F008E
:1002800063771C081C776300074F78784F070000DE
:100290006773594D47637100007F7F414100000043
:1002A0000103060C183060000041417F7F00000010
:1002B000080C0603060C0800808080808080808007
:1002C0000000030704000000207454543C784000F0
:1002D000413F7F44447C3800387C44446C28000013
:1002E000307848493F7F4000387C54545C18000007
:1002F000487E7F490302000098BCA4A4F87C040057
:10030000417F7F08047C780000447D7D4000000030
:1003100040C484FD7D000000417F7F10386C4400A4
:1003200000417F7F400000007C7C0C180C7C780032
:100330007C7C04047C780000387C44447C380000D9
:1003400084FCF8A4243C1800183C24A4F8FC840085
:10035000447C78441C180000485C54547424000009
:1003600000043E7F442400003C7C40403C7C400034
:100370001C3C60603C1C00003C7C6030607C3C00AD
:10038000446C3810386C44009CBCA0A0FC7C00007D
:100390004C64745C4C64000008083E7741410000E6
:1003A00000000077770000004141773E0808000018
:1003B0000203010302030100787C4643467C780077
:1003C00011241FBECFEFD8E0DEBFCDBF23E0A0E0F9
:1003D000B1E001C01D92A230B207E1F70E94090509
:1003E0000C9497050C94000084E98093BC00089558
:1003F00084EA8093BC008091BC0087FFFCCF089505
:100400008093BB0084E88093BC008091BC0087FF90
:10041000FCCF089520E4829FC0011124846880935A
:10042000BC008091BC0087FFFCCF8091BB00089589
:100430001092B90088E98093B80084E08093BC00F2
:1004400008950E9418020E94F80180ED0E940002A7
:1004500087E00E94000280E00E94000284E980930D
:10046000BC0008951F93CF93DF93C82FD62F142F6E
:100470000E94F80180ED0E94000280E00E940002CC
:10048000812F0E9400028D2F0E9400028C2F0E945B
:10049000000284E98093BC00DF91CF911F91089501
:1004A0001F93CF93DF93C82FD62F142F0E94F801EC
:1004B00080ED0E94000284E00E940002812F0E94D1
:1004C00000028D2F0E9400028C2F0E94000284E9FE
:1004D0008093BC00DF91CF911F910895AF92BF929E
:1004E000CF92DF92EF92FF921F93CF93DF937C0125
:1004F0006B015A010E94F80180ED0E94000280E029
:100500000E940002CCEBD0E014E918830E94F801AD
:1005100081ED0E94000281E00E940A02F5018083C1
:1005200081E00E940A02F601808380E00E940A02B4
:10053000F70180831883DF91CF911F91FF90EF9097
:10054000DF90CF90BF90AF900895AF92BF92CF92BF
:10055000DF92EF92FF921F93CF93DF937C016B01A9
:100560005A010E94F80180ED0E94000284E00E947E
:100570000002CCEBD0E014E918830E94F80181ED71
:100580000E94000281E00E940A02F501808381E05E
:100590000E940A02F601808380E00E940A02F701AD
:1005A00080831883DF91CF911F91FF90EF90DF90B0
:1005B000CF90BF90AF90089588E08093C10086E00F
:1005C0008093C20087E68093C40008959091C00094
:1005D00095FFFCCF8093C6000895CF93C82F8295D6
:1005E0008F70805D0E94E6028C2F8F70805DCF91AE
:1005F0000C94E602CF93C82F0E94A904811104C075
:100600008C2FCF910C94C504CF910895CF93C82F10
:1006100080E80E94DA04811104C08C2FCF910C94E1
:10062000DA04CF910895CF92DF92EF92FF920F9369
:100630001F93CF93182FE8E6F0E0C4910E949D0429
:10064000812F0E94FA02811128C089E6E82E80E0FD
:10065000F82EC11104C00E94050580E01EC087016C
:100660000F5F1F4FF70184910E940603811115C08F
:10067000F80104916701F2E0CF0ED11C760101115F
:1006800002C0C150E6CFF60184910E940603FFEF3D
:10069000CF1ADF0A0150882389F3CF911F910F9160
:1006A000FF90EF90DF90CF900895CF930E94FA02D1
:1006B000C82F811108C086EA0E940603C82F811145
:1006C00002C00E9405058C2FCF910895CF930E9400
:1006D000FA02C82F811108C087EA0E940603C82FBA
:1006E000811102C00E9405058C2FCF910895EF92D1
:1006F000FF920F931F93CF930E94FA02C82F81118C
:1007000019C080E40E94DA04C82F811113C000E0F0
:1007100011E080E0E82E83E0F82EF80181918F014E
:100720000E94DA04C82F811105C0E016F106A9F76E
:100730000E9405058C2FCF911F910F91FF90EF9094
:100740000895E0E0F1E080E092E0DF019C011D927D
:1007500021503040E1F7089590E8699FB0011124DD
:10076000680F711D70930103609300030895209139
:10077000000330910103C901880F892F881F990B4D
:100780009195275F482F479544274795241B27FFBE
:100790000DC0843068F4823048F48F5F20E8829F77
:1007A000C0011124909301038093000380E0089519
:1007B00081E00895CF93C82F0E94B703813001F1E3
:1007C00028E0C202C00111242091000330910103EE
:1007D000D901A050BF4F50E040E080549040FC0150
:1007E000E40FF51FE491ED934F5F5F4F48305105E3
:1007F000B1F7275F3F4F309301032093000380E060
:10080000CF910895CF93DF93EC018991811103C0BB
:10081000DF91CF9108950E94DA03F7CF87FD28C0BA
:10082000613230F5262F26952695269530E0F90180
:10083000F695FE2FEE27F795E795E80FF11DCF010E
:1008400001969093010380930003E050FF4F43E033
:10085000220F331F4A95E1F7621B21E030E001C00F
:10086000220F6A95EAF78081822B808380E00895C9
:1008700081E008958F929F92AF92BF92CF92DF92C4
:10088000EF92FF920F931F93CF93DF93082F862E43
:10089000142F922E862F801B990B9C01892D841B6F
:1008A000990BEC01BB24B39437FF05C0319521951A
:1008B0003109BB24BA94AA24A394D7FF05C0D195CB
:1008C000C195D109AA24AA947E01EE0CFF1C6901EE
:1008D000CC0CDD1CC217D3073CF5E701C21BD30BC0
:1008E000612F802F0E940E0408110EC080E0DF915E
:1008F000CF911F910F91FF90EF90DF90CF90BF901D
:10090000AF909F908F9008950B0DD7FD03C01A0DE7
:10091000CC19DD09CE0DDF1DE3CF1A0D1C161D0607
:100920001CF00B0DCE0DDF1DCC19DD09612F802FC2
:100930000E940E041911F1CFD9CF82E08093B80044
:10094000E9EBF0E08081908182708160892B808367
:1009500008958091B90087758093B90084EA8093E7
:10096000BC008091BC0087FFFCCF8091B900887FDC
:10097000883049F08091B900887F803121F08091E2
:10098000B900887F089580E00895880F8093BB00A8
:1009900084E88093BC008091BC0087FFFCCF8091ED
:1009A000B900887F883121F08091B900887F08954F
:1009B00080E008958093BB0084E88093BC00809120
:1009C000BC0087FFFCCF8091B900887F883221F07E
:1009D0008091B900887F089580E00895880F990B71
:1009E00081608093BB0084E88093BC008091BC0050
:1009F00087FFFCCF8091B900887F803421F08091FF
:100A0000B900887F089580E0089584E98093BC0050
:100A10000895CF93DF9300D000D000D0CDB7DEB7DC
:100A20000E94210240E367E382E10E9432020E94B9
:100A3000DC028CE30E941303AE014C5F5F4FBE01EA
:100A40006B5F7F4FCE0106960E94A50282E30E9453
:100A5000E60280E30E94E6028E810E94ED028FE2B0
:100A60000E94E6028D810E94ED028FE20E94E60262
:100A70008C810E94ED0280E20E94E602AE014F5F8F
:100A80005F4FBE016E5F7F4FCE0103960E946E02E4
:100A90008B810E94ED028AE30E94E6028A810E9415
:100AA000ED028AE30E94E60289810E94ED028AE05B
:100AB0000E94E6028DE00E94E6020E94A10360E02F
:100AC00088E20E94AC038B8182958F70805D0E94CA
:100AD000DA038B818F70805D0E94DA038AE30E94C3
:100AE000DA038A8182958F70805D0E94DA038A81A1
:100AF0008F70805D0E94DA038AE30E94DA038981A5
:100B000082958F70805D0E94DA0389818F70805D8D
:100B10000E94DA038CE30E9477032FEF83EC99E0C5
:100B2000215080409040E1F700C0000085CFF8944C
:020B3000FFCFF5
:00000001FF
