:100000000C94E0010C94F2010C94F2010C94F201B6
:100010000C94F2010C94F2010C94F2010C94F20194
:100020000C94F2010C94F2010C94F2010C94F20184
:100030000C94F2010C94F2010C94F2010C94F20174
:100040000C94F2010C94F2010C94F2010C94F20164
:100050000C94F2010C94F2010C94F2010C94F20154
:100060000C94F2010C94F20111AE00A8011F2001C2
:10007000004000D30100A100C800DA010281017F25
:10008000A400A600D50180D901C2DB01208D011496
:100090002E00AF0011AE00D50180A8011FD30100D2
:1000A00040008D0114200100A100C800DA00028187
:1000B000018FD901C2DB0140A400A6002E00AF00D1
:1000C000000000000000000000065F5F0600000066
:1000D0000007070007070000147F7F147F7F1400CC
:1000E000242E6B6B3A120000466630180C666200D4
:1000F000307A4F5D377A48000407030000000000A3
:10010000001C3E63410000000041633E1C000000F3
:10011000082A3E1C1C3E2A0808083E3E080800002B
:1001200000A0E060000000000808080808080000BF
:1001300000006060000000006030180C0603010041
:100140003E7F594D7F3E000042427F7F404000008D
:10015000627359496F660000226349497F36000087
:10016000181C16137F7F1000276745457D39000056
:100170003C7E4B4979300000036371190F07000082
:10018000367F49497F360000064F49693F1E00000F
:1001900000006C6C0000000000A0EC6C000000008F
:1001A000081C3663410000001414141414140000D9
:1001B000004163361C080000020351590F0600007D
:1001C0003E7F415D5D1F1E007C7E13137E7C000020
:1001D000417F7F49497F36001C3E634141632200D5
:1001E000417F7F41637F1C00417F7F495D41630008
:1001F000417F7F491D0103001C3E63415173720022
:100200007F7F08087F7F000000417F7F4100000062
:10021000307040417F3F0100417F7F081C776300C1
:10022000417F7F41406070007F7F060C067F7F002A
:100230007F7F060C187F7F001C3E6341633E1C00DD
:10024000417F7F49090F06001E3F21717F5E00003C
:10025000417F7F19396F460026674D597B32000078
:1002600003417F7F410300007F7F40407F7F00008C
:100270001F3F60603F1F00007F7F3018307F7F008E
:1002800063771C081C776300074F78784F070000DE
:100290006773594D47637100007F7F414100000043
:1002A0000103060C183060000041417F7F00000010
:1002B000080C0603060C0800808080808080808007
:1002C0000000030704000000207454543C784000F0
:1002D000413F7F44447C3800387C44446C28000013
:1002E000307848493F7F4000387C54545C18000007
:1002F000487E7F490302000098BCA4A4F87C040057
:10030000417F7F08047C780000447D7D4000000030
:1003100040C484FD7D000000417F7F10386C4400A4
:1003200000417F7F400000007C7C0C180C7C780032
:100330007C7C04047C780000387C44447C380000D9
:1003400084FCF8A4243C1800183C24A4F8FC840085
:10035000447C78441C180000485C54547424000009
:1003600000043E7F442400003C7C40403C7C400034
:100370001C3C60603C1C00003C7C6030607C3C00AD
:10038000446C3810386C44009CBCA0A0FC7C00007D
:100390004C64745C4C64000008083E7741410000E6
:1003A00000000077770000004141773E0808000018
:1003B0000203010302030100787C4643467C780077
:1003C00011241FBECFEFD8E0DEBFCDBF23E0A0E0F9
:1003D000B1E001C01D92A230B207E1F70E94F9041A
:1003E0000C9482050C94000084E98093BC0008956D
:1003F00084EA8093BC008091BC0087FFFCCF089505
:100400008093BB0084E88093BC008091BC0087FF90
:10041000FCCF089520E4829FC0011124846880935A
:10042000BC008091BC0087FFFCCF8091BB00089589
:100430001092B90088E98093B80084E08093BC00F2
:1004400008950E9418020E94F80180ED0E940002A7
:1004500087E00E94000280E00E94000284E980930D
:10046000BC0008951F93CF93DF93C82FD62F142F6E
:100470000E94F80180ED0E94000280E00E940002CC
:10048000812F0E9400028D2F0E9400028C2F0E945B
:10049000000284E98093BC00DF91CF911F91089501
:1004A0001F93CF93DF93C82FD62F142F0E94F801EC
:1004B00080ED0E94000284E00E940002812F0E94D1
:1004C00000028D2F0E9400028C2F0E94000284E9FE
:1004D0008093BC00DF91CF911F910895AF92BF929E
:1004E000CF92DF92EF92FF921F93CF93DF937C0125
:1004F0006B015A010E94F80180ED0E94000280E029
:100500000E940002CCEBD0E014E918830E94F801AD
:1005100081ED0E94000281E00E940A02F5018083C1
:1005200081E00E940A02F601808380E00E940A02B4
:10053000F70180831883DF91CF911F91FF90EF9097
:10054000DF90CF90BF90AF900895AF92BF92CF92BF
:10055000DF92EF92FF921F93CF93DF937C016B01A9
:100560005A010E94F80180ED0E94000284E00E947E
:100570000002CCEBD0E014E918830E94F80181ED71
:100580000E94000281E00E940A02F501808381E05E
:100590000E940A02F601808380E00E940A02F701AD
:1005A00080831883DF91CF911F91FF90EF90DF90B0
:1005B000CF90BF90AF90089588E08093C10086E00F
:1005C0008093C20087E68093C40008959091C00094
:1005D00095FFFCCF8093C6000895CF93C82F8295D6
:1005E0008F70805D0E94E6028C2F8F70805DCF91AE
:1005F0000C94E602CF93C82F0E949904811104C085
:100600008C2FCF910C94B504CF910895CF93C82F20
:1006100080E80E94CA04811104C08C2FCF910C94F1
:10062000CA04CF910895CF92DF92EF92FF920F9379
:100630001F93CF93182FE8E6F0E0C4910E948D0439
:10064000812F0E94FA02811129C089E6E82E80E0FC
:10065000F82ECC2301F187010F5F1F4FF701849122
:100660000E94060381111AC0F801049197012E5FC0
:100670003F4F69017601002361F0F60184910E94E9
:100680000603015096012F5F3F4F6901882391F3C4
:1006900005C0C150DECF0E94F50401C0C82F8C2FC9
:1006A000CF911F910F91FF90EF90DF90CF90089521
:1006B0000E94FA02811108C086EA0E940603811195
:1006C00003C00E94F50480E008950E94FA0281119F
:1006D00008C087EA0E940603811103C00E94F50446
:1006E00080E00895CF93DF930E94FA02811113C036
:1006F00080E40E94CA0481110EC0C0E0D1E089915B
:100700000E94CA04811107C083E0C030D807B9F73E
:100710000E94F50480E0DF91CF91089580E092E09F
:10072000E0E0F1E0DF019C011D9221503040E1F753
:10073000089590E020E8629F800D911D1124909310
:100740000103809300030895209100033091010379
:10075000C901880F892F881F990B9195275F482F12
:10076000479544274795241B27FF10C0843060F429
:10077000823060F48F5F20E8829FC0011124909343
:1007800001038093000302C081E0089580E0089592
:10079000CF93C82F0E94A403813009F12091000358
:1007A00030910103D901A050BF4F48E0C402C001FD
:1007B000112440E050E09A95FC01E40FF51FE0544D
:1007C000FF4FE491ED934F5F5F4F48305105A1F724
:1007D000275F3F4F309301032093000380E0CF91C8
:1007E0000895CF93DF93EC018991882319F00E943B
:1007F000C803FACFDF91CF91089587FD26C06132FB
:1008000020F5262F26952695269530E0F901F695B8
:10081000FE2FEE27F795E795E80FF11DCF01019622
:100820009093010380930003E050FF4F88E0289FDE
:100830006019112481E090E001C0880F6A95EAF701
:100840009081892B808380E0089581E008958F92C4
:100850009F92AF92BF92CF92DF92EF92FF920F934F
:100860001F93CF93DF93082FA62E142FB22E262F7F
:1008700030E0281B31098B2D90E0841B910937FF54
:1008800006C031952195310999249A9402C0992482
:10089000939497FF06C091958195910988248A9435
:1008A00002C0882483947C01EE0CFF1C6901CC0CEF
:1008B000DD1C8217930794F4E701C21BD30B612F51
:1008C000802F0E94FD030A15D1F0090DD7FD03C04A
:1008D000180DCC19DD09CE0DDF1DF1CFEC01CC19BF
:1008E000DD09612F802F0E94FD031B1541F0180DBB
:1008F0001C161D06A4F3090DCE0DDF1DF0CF80E000
:10090000DF91CF911F910F91FF90EF90DF90CF90EB
:10091000BF90AF909F908F90089582E08093B80031
:10092000E9EBF0E08081908182708160892B808387
:1009300008958091B90087758093B90084EA809307
:10094000BC008091BC0087FFFCCF8091B900887FFC
:10095000883049F08091B900887F803121F0809102
:10096000B900887F089580E00895880F8093BB00C8
:1009700084E88093BC008091BC0087FFFCCF80910D
:10098000B900887F883121F08091B900887F08956F
:1009900080E008958093BB0084E88093BC00809140
:1009A000BC0087FFFCCF8091B900887F883221F09E
:1009B0008091B900887F089580E00895880F990B91
:1009C00081608093BB0084E88093BC008091BC0070
:1009D00087FFFCCF8091B900887F803421F080911F
:1009E000B900887F089580E0089584E98093BC0071
:1009F0000895CF93DF9300D000D000D0CDB7DEB7FD
:100A00000E9421020E94DC028CE30E941303AE01CB
:100A10004C5F5F4FBE016B5F7F4FCE0106960E9419
:100A2000A50282E30E94E60280E30E94E6028E8134
:100A30000E94ED028FE20E94E6028D810E94ED028B
:100A40008FE20E94E6028C810E94ED0280E20E9409
:100A5000E602AE014F5F5F4FBE016E5F7F4FCE017A
:100A600003960E946E028B810E94ED028AE30E942F
:100A7000E6028A810E94ED028AE30E94E6028981F1
:100A80000E94ED028AE00E94E6028DE00E94E602EA
:100A90000E948E0360E088E20E9499038B81829518
:100AA0008F70805D0E94C8038B818F70805D0E9473
:100AB000C8038AE30E94C8038A8182958F70805D93
:100AC0000E94C8038A818F70805D0E94C8038AE3F8
:100AD0000E94C803898182958F70805D0E94C8033F
:100AE00089818F70805D0E94C8038CE30E9472032D
:100AF0002FEF83EC99E0215080409040E1F700C057
:080B0000000085CFF894FFCF3F
:00000001FF
